{
  "_format": "hh-sol-artifact-1",
  "contractName": "SimpleStaking",
  "sourceName": "contracts/SimpleStaking.sol",
  "abi": [
    {
      "inputs": [],
      "stateMutability": "nonpayable",
      "type": "constructor"
    },
    {
      "anonymous": false,
      "inputs": [
        {
          "indexed": true,
          "internalType": "address",
          "name": "user",
          "type": "address"
        },
        {
          "indexed": true,
          "internalType": "address",
          "name": "agent",
          "type": "address"
        },
        {
          "indexed": false,
          "internalType": "uint256",
          "name": "amount",
          "type": "uint256"
        }
      ],
      "name": "Approval",
      "type": "event"
    },
    {
      "anonymous": false,
      "inputs": [
        {
          "indexed": true,
          "internalType": "address",
          "name": "user",
          "type": "address"
        },
        {
          "indexed": true,
          "internalType": "address",
          "name": "agent",
          "type": "address"
        },
        {
          "indexed": false,
          "internalType": "uint256",
          "name": "amount",
          "type": "uint256"
        },
        {
          "indexed": false,
          "internalType": "uint256",
          "name": "tripId",
          "type": "uint256"
        }
      ],
      "name": "StakedOnBehalf",
      "type": "event"
    },
    {
      "inputs": [
        {
          "internalType": "address",
          "name": "user",
          "type": "address"
        },
        {
          "internalType": "address",
          "name": "agent",
          "type": "address"
        }
      ],
      "name": "allowance",
      "outputs": [
        {
          "internalType": "uint256",
          "name": "",
          "type": "uint256"
        }
      ],
      "stateMutability": "view",
      "type": "function"
    },
    {
      "inputs": [
        {
          "internalType": "address",
          "name": "",
          "type": "address"
        },
        {
          "internalType": "address",
          "name": "",
          "type": "address"
        }
      ],
      "name": "allowances",
      "outputs": [
        {
          "internalType": "uint256",
          "name": "",
          "type": "uint256"
        }
      ],
      "stateMutability": "view",
      "type": "function"
    },
    {
      "inputs": [
        {
          "internalType": "address",
          "name": "agent",
          "type": "address"
        },
        {
          "internalType": "uint256",
          "name": "amount",
          "type": "uint256"
        }
      ],
      "name": "approve",
      "outputs": [],
      "stateMutability": "nonpayable",
      "type": "function"
    },
    {
      "inputs": [
        {
          "internalType": "address",
          "name": "",
          "type": "address"
        }
      ],
      "name": "balances",
      "outputs": [
        {
          "internalType": "uint256",
          "name": "",
          "type": "uint256"
        }
      ],
      "stateMutability": "view",
      "type": "function"
    },
    {
      "inputs": [
        {
          "internalType": "address",
          "name": "user",
          "type": "address"
        }
      ],
      "name": "getBalance",
      "outputs": [
        {
          "internalType": "uint256",
          "name": "",
          "type": "uint256"
        }
      ],
      "stateMutability": "view",
      "type": "function"
    },
    {
      "inputs": [],
      "name": "owner",
      "outputs": [
        {
          "internalType": "address",
          "name": "",
          "type": "address"
        }
      ],
      "stateMutability": "view",
      "type": "function"
    },
    {
      "inputs": [
        {
          "internalType": "address",
          "name": "user",
          "type": "address"
        },
        {
          "internalType": "uint256",
          "name": "amount",
          "type": "uint256"
        },
        {
          "internalType": "uint256",
          "name": "tripId",
          "type": "uint256"
        }
      ],
      "name": "stakeOnBehalf",
      "outputs": [],
      "stateMutability": "payable",
      "type": "function"
    }
  ],
  "bytecode": "0x608060405234801561001057600080fd5b50600080546001600160a01b031916331790556104df806100326000396000f3fe60806040526004361061006f5760003560e01c806355b6ed5c1161004e57806355b6ed5c146100e95780638da5cb5b14610121578063dd62ed3e14610159578063f8b2cb4f1461019f57600080fd5b8062ed3b3314610074578063095ea7b31461008957806327e235e3146100a9575b600080fd5b6100876100823660046103b2565b6101d5565b005b34801561009557600080fd5b506100876100a43660046103e5565b610337565b3480156100b557600080fd5b506100d66100c436600461040f565b60026020526000908152604090205481565b6040519081526020015b60405180910390f35b3480156100f557600080fd5b506100d6610104366004610431565b600160209081526000928352604080842090915290825290205481565b34801561012d57600080fd5b50600054610141906001600160a01b031681565b6040516001600160a01b0390911681526020016100e0565b34801561016557600080fd5b506100d6610174366004610431565b6001600160a01b03918216600090815260016020908152604080832093909416825291909152205490565b3480156101ab57600080fd5b506100d66101ba36600461040f565b6001600160a01b031660009081526002602052604090205490565b6001600160a01b03831660009081526001602090815260408083203384529091529020548211156102465760405162461bcd60e51b8152602060048201526016602482015275496e73756666696369656e7420616c6c6f77616e636560501b60448201526064015b60405180910390fd5b8134146102875760405162461bcd60e51b815260206004820152600f60248201526e082dadeeadce840dad2e6dac2e8c6d608b1b604482015260640161023d565b6001600160a01b0383166000908152600160209081526040808320338452909152812080548492906102ba90849061047a565b90915550506001600160a01b038316600090815260026020526040812080548492906102e7908490610491565b9091555050604080518381526020810183905233916001600160a01b038616917f7944565fe0c17fe787f657c435ae8aafbf6ca80cead06084219da57ef3df20a3910160405180910390a3505050565b3360008181526001602090815260408083206001600160a01b03871680855290835292819020859055518481529192917f8c5be1e5ebec7d5bd14f71427d1e84f3dd0314c0f7b2291e5b200ac8c7c3b925910160405180910390a35050565b80356001600160a01b03811681146103ad57600080fd5b919050565b6000806000606084860312156103c757600080fd5b6103d084610396565b95602085013595506040909401359392505050565b600080604083850312156103f857600080fd5b61040183610396565b946020939093013593505050565b60006020828403121561042157600080fd5b61042a82610396565b9392505050565b6000806040838503121561044457600080fd5b61044d83610396565b915061045b60208401610396565b90509250929050565b634e487b7160e01b600052601160045260246000fd5b60008282101561048c5761048c610464565b500390565b600082198211156104a4576104a4610464565b50019056fea26469706673582212204964f319bc60d55fd9bdf2b16ed800f1e0fe57ff9333169c2a804d6577d4926864736f6c63430008090033",
  "linkReferences": {},
  "deployedLinkReferences": {}
}