{"src/TripEscrow.sol":{"TripEscrow":{"abi":[{"inputs":[],"stateMutability":"nonpayable","type":"constructor"},{"inputs":[],"name":"AccessControlBadConfirmation","type":"error"},{"inputs":[{"internalType":"address","name":"account","type":"address"},{"internalType":"bytes32","name":"neededRole","type":"bytes32"}],"name":"AccessControlUnauthorizedAccount","type":"error"},{"inputs":[],"name":"EnforcedPause","type":"error"},{"inputs":[],"name":"ExpectedPause","type":"error"},{"inputs":[],"name":"ReentrancyGuardReentrantCall","type":"error"},{"anonymous":false,"inputs":[{"indexed":true,"internalType":"uint256","name":"tripId","type":"uint256"},{"indexed":true,"internalType":"address","name":"participant","type":"address"},{"indexed":false,"internalType":"bytes32","name":"proofHash","type":"bytes32"}],"name":"CheckInSubmitted","type":"event"},{"anonymous":false,"inputs":[{"indexed":true,"internalType":"uint256","name":"tripId","type":"uint256"},{"indexed":true,"internalType":"address","name":"initiator","type":"address"}],"name":"EmergencyFreeze","type":"event"},{"anonymous":false,"inputs":[{"indexed":true,"internalType":"uint256","name":"tripId","type":"uint256"},{"indexed":true,"internalType":"address","name":"participant","type":"address"},{"indexed":false,"internalType":"uint256","name":"amount","type":"uint256"}],"name":"ParticipantJoined","type":"event"},{"anonymous":false,"inputs":[{"indexed":true,"internalType":"uint256","name":"tripId","type":"uint256"},{"indexed":true,"internalType":"address","name":"participant","type":"address"},{"indexed":false,"internalType":"uint256","name":"amount","type":"uint256"}],"name":"ParticipantSlashed","type":"event"},{"anonymous":false,"inputs":[{"indexed":false,"internalType":"address","name":"account","type":"address"}],"name":"Paused","type":"event"},{"anonymous":false,"inputs":[{"indexed":true,"internalType":"bytes32","name":"role","type":"bytes32"},{"indexed":true,"internalType":"bytes32","name":"previousAdminRole","type":"bytes32"},{"indexed":true,"internalType":"bytes32","name":"newAdminRole","type":"bytes32"}],"name":"RoleAdminChanged","type":"event"},{"anonymous":false,"inputs":[{"indexed":true,"internalType":"bytes32","name":"role","type":"bytes32"},{"indexed":true,"internalType":"address","name":"account","type":"address"},{"indexed":true,"internalType":"address","name":"sender","type":"address"}],"name":"RoleGranted","type":"event"},{"anonymous":false,"inputs":[{"indexed":true,"internalType":"bytes32","name":"role","type":"bytes32"},{"indexed":true,"internalType":"address","name":"account","type":"address"},{"indexed":true,"internalType":"address","name":"sender","type":"address"}],"name":"RoleRevoked","type":"event"},{"anonymous":false,"inputs":[{"indexed":true,"internalType":"uint256","name":"tripId","type":"uint256"},{"indexed":false,"internalType":"string","name":"reason","type":"string"}],"name":"TripCancelled","type":"event"},{"anonymous":false,"inputs":[{"indexed":true,"internalType":"uint256","name":"tripId","type":"uint256"},{"indexed":false,"internalType":"uint256","name":"totalReleased","type":"uint256"}],"name":"TripCompleted","type":"event"},{"anonymous":false,"inputs":[{"indexed":true,"internalType":"uint256","name":"tripId","type":"uint256"},{"indexed":true,"internalType":"address","name":"organizer","type":"address"},{"indexed":false,"internalType":"uint256","name":"stakeAmount","type":"uint256"}],"name":"TripCreated","type":"event"},{"anonymous":false,"inputs":[{"indexed":false,"internalType":"address","name":"account","type":"address"}],"name":"Unpaused","type":"event"},{"inputs":[],"name":"ADMIN_ROLE","outputs":[{"internalType":"bytes32","name":"","type":"bytes32"}],"stateMutability":"view","type":"function"},{"inputs":[],"name":"CANCELLATION_WINDOW","outputs":[{"internalType":"uint256","name":"","type":"uint256"}],"stateMutability":"view","type":"function"},{"inputs":[],"name":"DEFAULT_ADMIN_ROLE","outputs":[{"internalType":"bytes32","name":"","type":"bytes32"}],"stateMutability":"view","type":"function"},{"inputs":[],"name":"ORGANIZER_ROLE","outputs":[{"internalType":"bytes32","name":"","type":"bytes32"}],"stateMutability":"view","type":"function"},{"inputs":[],"name":"PLATFORM_FEE","outputs":[{"internalType":"uint256","name":"","type":"uint256"}],"stateMutability":"view","type":"function"},{"inputs":[],"name":"SLASH_PERCENTAGE","outputs":[{"internalType":"uint256","name":"","type":"uint256"}],"stateMutability":"view","type":"function"},{"inputs":[{"internalType":"uint256","name":"_tripId","type":"uint256"},{"internalType":"string","name":"_reason","type":"string"}],"name":"cancelTrip","outputs":[],"stateMutability":"nonpayable","type":"function"},{"inputs":[{"internalType":"uint256","name":"_tripId","type":"uint256"}],"name":"completeTrip","outputs":[],"stateMutability":"nonpayable","type":"function"},{"inputs":[{"internalType":"uint256","name":"_tripId","type":"uint256"},{"internalType":"bytes32","name":"_proofHash","type":"bytes32"}],"name":"confirmAttendance","outputs":[],"stateMutability":"nonpayable","type":"function"},{"inputs":[{"internalType":"uint256","name":"_stakeAmount","type":"uint256"},{"internalType":"uint256","name":"_maxParticipants","type":"uint256"},{"internalType":"uint256","name":"_startTime","type":"uint256"},{"internalType":"uint256","name":"_endTime","type":"uint256"}],"name":"createTrip","outputs":[{"internalType":"uint256","name":"","type":"uint256"}],"stateMutability":"nonpayable","type":"function"},{"inputs":[{"internalType":"uint256","name":"_tripId","type":"uint256"},{"internalType":"address","name":"_participant","type":"address"}],"name":"getParticipant","outputs":[{"components":[{"internalType":"address","name":"wallet","type":"address"},{"internalType":"uint256","name":"stakedAmount","type":"uint256"},{"internalType":"bool","name":"hasJoined","type":"bool"},{"internalType":"bool","name":"hasConfirmed","type":"bool"},{"internalType":"bool","name":"isSlashed","type":"bool"},{"internalType":"bytes32","name":"checkInProofHash","type":"bytes32"},{"internalType":"uint256","name":"confirmationTime","type":"uint256"}],"internalType":"struct TripEscrow.Participant","name":"","type":"tuple"}],"stateMutability":"view","type":"function"},{"inputs":[{"internalType":"bytes32","name":"role","type":"bytes32"}],"name":"getRoleAdmin","outputs":[{"internalType":"bytes32","name":"","type":"bytes32"}],"stateMutability":"view","type":"function"},{"inputs":[{"internalType":"bytes32","name":"role","type":"bytes32"},{"internalType":"uint256","name":"index","type":"uint256"}],"name":"getRoleMember","outputs":[{"internalType":"address","name":"","type":"address"}],"stateMutability":"view","type":"function"},{"inputs":[{"internalType":"bytes32","name":"role","type":"bytes32"}],"name":"getRoleMemberCount","outputs":[{"internalType":"uint256","name":"","type":"uint256"}],"stateMutability":"view","type":"function"},{"inputs":[{"internalType":"bytes32","name":"role","type":"bytes32"}],"name":"getRoleMembers","outputs":[{"internalType":"address[]","name":"","type":"address[]"}],"stateMutability":"view","type":"function"},{"inputs":[{"internalType":"uint256","name":"_tripId","type":"uint256"}],"name":"getTrip","outputs":[{"components":[{"internalType":"uint256","name":"tripId","type":"uint256"},{"internalType":"address","name":"organizer","type":"address"},{"internalType":"uint256","name":"stakeAmount","type":"uint256"},{"internalType":"uint256","name":"maxParticipants","type":"uint256"},{"internalType":"uint256","name":"startTime","type":"uint256"},{"internalType":"uint256","name":"endTime","type":"uint256"},{"internalType":"enum TripEscrow.TripStatus","name":"status","type":"uint8"},{"internalType":"uint256","name":"totalStaked","type":"uint256"},{"internalType":"uint256","name":"participantCount","type":"uint256"},{"internalType":"bool","name":"emergencyFreeze","type":"bool"}],"internalType":"struct TripEscrow.Trip","name":"","type":"tuple"}],"stateMutability":"view","type":"function"},{"inputs":[{"internalType":"uint256","name":"_tripId","type":"uint256"}],"name":"getTripParticipants","outputs":[{"internalType":"address[]","name":"","type":"address[]"}],"stateMutability":"view","type":"function"},{"inputs":[{"internalType":"bytes32","name":"role","type":"bytes32"},{"internalType":"address","name":"account","type":"address"}],"name":"grantRole","outputs":[],"stateMutability":"nonpayable","type":"function"},{"inputs":[{"internalType":"bytes32","name":"role","type":"bytes32"},{"internalType":"address","name":"account","type":"address"}],"name":"hasRole","outputs":[{"internalType":"bool","name":"","type":"bool"}],"stateMutability":"view","type":"function"},{"inputs":[{"internalType":"uint256","name":"_tripId","type":"uint256"}],"name":"joinTrip","outputs":[],"stateMutability":"payable","type":"function"},{"inputs":[{"internalType":"uint256","name":"","type":"uint256"},{"internalType":"address","name":"","type":"address"}],"name":"participants","outputs":[{"internalType":"address","name":"wallet","type":"address"},{"internalType":"uint256","name":"stakedAmount","type":"uint256"},{"internalType":"bool","name":"hasJoined","type":"bool"},{"internalType":"bool","name":"hasConfirmed","type":"bool"},{"internalType":"bool","name":"isSlashed","type":"bool"},{"internalType":"bytes32","name":"checkInProofHash","type":"bytes32"},{"internalType":"uint256","name":"confirmationTime","type":"uint256"}],"stateMutability":"view","type":"function"},{"inputs":[],"name":"pause","outputs":[],"stateMutability":"nonpayable","type":"function"},{"inputs":[],"name":"paused","outputs":[{"internalType":"bool","name":"","type":"bool"}],"stateMutability":"view","type":"function"},{"inputs":[{"internalType":"bytes32","name":"role","type":"bytes32"},{"internalType":"address","name":"callerConfirmation","type":"address"}],"name":"renounceRole","outputs":[],"stateMutability":"nonpayable","type":"function"},{"inputs":[{"internalType":"uint256","name":"_tripId","type":"uint256"}],"name":"reportIncident","outputs":[],"stateMutability":"nonpayable","type":"function"},{"inputs":[{"internalType":"bytes32","name":"role","type":"bytes32"},{"internalType":"address","name":"account","type":"address"}],"name":"revokeRole","outputs":[],"stateMutability":"nonpayable","type":"function"},{"inputs":[{"internalType":"uint256","name":"_tripId","type":"uint256"},{"internalType":"address","name":"_participant","type":"address"}],"name":"slashUser","outputs":[],"stateMutability":"nonpayable","type":"function"},{"inputs":[{"internalType":"bytes4","name":"interfaceId","type":"bytes4"}],"name":"supportsInterface","outputs":[{"internalType":"bool","name":"","type":"bool"}],"stateMutability":"view","type":"function"},{"inputs":[],"name":"tripCounter","outputs":[{"internalType":"uint256","name":"","type":"uint256"}],"stateMutability":"view","type":"function"},{"inputs":[{"internalType":"uint256","name":"","type":"uint256"},{"internalType":"uint256","name":"","type":"uint256"}],"name":"tripParticipants","outputs":[{"internalType":"address","name":"","type":"address"}],"stateMutability":"view","type":"function"},{"inputs":[{"internalType":"uint256","name":"","type":"uint256"}],"name":"trips","outputs":[{"internalType":"uint256","name":"tripId","type":"uint256"},{"internalType":"address","name":"organizer","type":"address"},{"internalType":"uint256","name":"stakeAmount","type":"uint256"},{"internalType":"uint256","name":"maxParticipants","type":"uint256"},{"internalType":"uint256","name":"startTime","type":"uint256"},{"internalType":"uint256","name":"endTime","type":"uint256"},{"internalType":"enum TripEscrow.TripStatus","name":"status","type":"uint8"},{"internalType":"uint256","name":"totalStaked","type":"uint256"},{"internalType":"uint256","name":"participantCount","type":"uint256"},{"internalType":"bool","name":"emergencyFreeze","type":"bool"}],"stateMutability":"view","type":"function"},{"inputs":[],"name":"unpause","outputs":[],"stateMutability":"nonpayable","type":"function"}],"devdoc":{"details":"Holds stakes, enforces commitment, handles slashing and rewards","errors":{"AccessControlBadConfirmation()":[{"details":"The caller of a function is not the expected one. NOTE: Don't confuse with {AccessControlUnauthorizedAccount}."}],"AccessControlUnauthorizedAccount(address,bytes32)":[{"details":"The `account` is missing a role."}],"EnforcedPause()":[{"details":"The operation failed because the contract is paused."}],"ExpectedPause()":[{"details":"The operation failed because the contract is not paused."}],"ReentrancyGuardReentrantCall()":[{"details":"Unauthorized reentrant call."}]},"events":{"Paused(address)":{"details":"Emitted when the pause is triggered by `account`."},"RoleAdminChanged(bytes32,bytes32,bytes32)":{"details":"Emitted when `newAdminRole` is set as ``role``'s admin role, replacing `previousAdminRole` `DEFAULT_ADMIN_ROLE` is the starting admin for all roles, despite {RoleAdminChanged} not being emitted to signal this."},"RoleGranted(bytes32,address,address)":{"details":"Emitted when `account` is granted `role`. `sender` is the account that originated the contract call. This account bears the admin role (for the granted role). Expected in cases where the role was granted using the internal {AccessControl-_grantRole}."},"RoleRevoked(bytes32,address,address)":{"details":"Emitted when `account` is revoked `role`. `sender` is the account that originated the contract call:   - if using `revokeRole`, it is the admin role bearer   - if using `renounceRole`, it is the role bearer (i.e. `account`)"},"Unpaused(address)":{"details":"Emitted when the pause is lifted by `account`."}},"kind":"dev","methods":{"cancelTrip(uint256,string)":{"params":{"_reason":"Cancellation reason","_tripId":"Trip to cancel"}},"completeTrip(uint256)":{"params":{"_tripId":"Trip to complete"}},"confirmAttendance(uint256,bytes32)":{"params":{"_proofHash":"Keccak256 hash of signed location + timestamp","_tripId":"Trip ID"}},"createTrip(uint256,uint256,uint256,uint256)":{"params":{"_endTime":"Trip end timestamp","_maxParticipants":"Maximum number of participants","_stakeAmount":"Required stake per participant","_startTime":"Trip start timestamp"}},"getRoleAdmin(bytes32)":{"details":"Returns the admin role that controls `role`. See {grantRole} and {revokeRole}. To change a role's admin, use {_setRoleAdmin}."},"getRoleMember(bytes32,uint256)":{"details":"Returns one of the accounts that have `role`. `index` must be a value between 0 and {getRoleMemberCount}, non-inclusive. Role bearers are not sorted in any particular way, and their ordering may change at any point. WARNING: When using {getRoleMember} and {getRoleMemberCount}, make sure you perform all queries on the same block. See the following https://forum.openzeppelin.com/t/iterating-over-elements-on-enumerableset-in-openzeppelin-contracts/2296[forum post] for more information."},"getRoleMemberCount(bytes32)":{"details":"Returns the number of accounts that have `role`. Can be used together with {getRoleMember} to enumerate all bearers of a role."},"getRoleMembers(bytes32)":{"details":"Return all accounts that have `role` WARNING: This operation will copy the entire storage to memory, which can be quite expensive. This is designed to mostly be used by view accessors that are queried without any gas fees. Developers should keep in mind that this function has an unbounded cost, and using it as part of a state-changing function may render the function uncallable if the set grows to a point where copying to memory consumes too much gas to fit in a block."},"grantRole(bytes32,address)":{"details":"Grants `role` to `account`. If `account` had not been already granted `role`, emits a {RoleGranted} event. Requirements: - the caller must have ``role``'s admin role. May emit a {RoleGranted} event."},"hasRole(bytes32,address)":{"details":"Returns `true` if `account` has been granted `role`."},"joinTrip(uint256)":{"params":{"_tripId":"Trip to join"}},"paused()":{"details":"Returns true if the contract is paused, and false otherwise."},"renounceRole(bytes32,address)":{"details":"Revokes `role` from the calling account. Roles are often managed via {grantRole} and {revokeRole}: this function's purpose is to provide a mechanism for accounts to lose their privileges if they are compromised (such as when a trusted device is misplaced). If the calling account had been revoked `role`, emits a {RoleRevoked} event. Requirements: - the caller must be `callerConfirmation`. May emit a {RoleRevoked} event."},"reportIncident(uint256)":{"params":{"_tripId":"Trip with incident"}},"revokeRole(bytes32,address)":{"details":"Revokes `role` from `account`. If `account` had been granted `role`, emits a {RoleRevoked} event. Requirements: - the caller must have ``role``'s admin role. May emit a {RoleRevoked} event."},"slashUser(uint256,address)":{"params":{"_participant":"Address to slash","_tripId":"Trip ID"}},"supportsInterface(bytes4)":{"details":"Returns true if this contract implements the interface defined by `interfaceId`. See the corresponding https://eips.ethereum.org/EIPS/eip-165#how-interfaces-are-identified[ERC section] to learn more about how these ids are created. This function call must use less than 30 000 gas."}},"title":"TripEscrow","version":1},"evm":{"bytecode":{"linkReferences":{},"object":"60806040523480156200001157600080fd5b506001600090815562000025903362000059565b50620000527fa49807205ce4d355092ef5a8a18f56e8913cf4a201fbe287825b095693c217753362000059565b5062000186565b60008062000068848462000096565b905080156200008d5760008481526002602052604090206200008b90846200012c565b505b90505b92915050565b60008281526001602090815260408083206001600160a01b038516845290915281205460ff16620001235760008381526001602081815260408084206001600160a01b0387168086529252808420805460ff19169093179092559051339286917f2f8788117e7eff1d82e926ec794901d17c78024a50270940304540a733656f0d9190a450600162000090565b50600062000090565b60006200008d836001600160a01b0384166000818152600183016020526040812054620001235750815460018181018455600084815260208082209093018490558454848252828601909352604090209190915562000090565b6128ee80620001966000396000f3fe6080604052600436106101e35760003560e01c80637909cb59116101025780639df66a6911610095578063c1917e7911610064578063c1917e7914610743578063ca15c87314610763578063d547741f14610783578063f6824a7c146107a357600080fd5b80639df66a69146106d95780639f29f135146106f9578063a217fddf1461070e578063a3246ad31461072357600080fd5b80638eda7a36116100d15780638eda7a361461064a5780639010d07c1461066a57806391d14854146106a257806392a57fca146106c257600080fd5b80637909cb59146105b45780637d74ee84146105e85780637fd20d43146106085780638456cb591461063557600080fd5b806334fbc9a11161017a5780635c975abb116101495780635c975abb146105445780636fa4ec271461055c57806375b238fc146105725780637900943e1461059457600080fd5b806334fbc9a1146103bd57806335f3ad7a146103d257806336568abe1461050f5780633f4ba83a1461052f57600080fd5b806319c9f3e3116101b657806319c9f3e31461031e578063248a9ca31461034c5780632d8dfe1d1461037d5780632f2ff15d1461039d57600080fd5b806301011705146101e857806301ffc9a71461021e57806302e060c61461024e57806313c3ea3314610309575b600080fd5b3480156101f457600080fd5b5061020861020336600461248d565b610835565b60405161021591906124de565b60405180910390f35b34801561022a57600080fd5b5061023e610239366004612567565b6108f9565b6040519015158152602001610215565b34801561025a57600080fd5b506102c26102693660046125ad565b6006602090815260009283526040808420909152908252902080546001820154600283015460038401546004909401546001600160a01b0390931693919260ff8083169361010084048216936201000090049091169187565b604080516001600160a01b03909816885260208801969096529315159486019490945290151560608501521515608084015260a083019190915260c082015260e001610215565b61031c61031736600461248d565b610924565b005b34801561032a57600080fd5b5061033e6103393660046125d9565b610c6c565b604051908152602001610215565b34801561035857600080fd5b5061033e61036736600461248d565b6000908152600160208190526040909120015490565b34801561038957600080fd5b5061031c61039836600461260b565b610f3f565b3480156103a957600080fd5b5061031c6103b83660046125ad565b611113565b3480156103c957600080fd5b5061033e600581565b3480156103de57600080fd5b506104af6103ed3660046125ad565b6040805160e081018252600080825260208201819052918101829052606081018290526080810182905260a0810182905260c08101919091525060008281526006602090815260408083206001600160a01b03808616855290835292819020815160e08101835281549094168452600181015492840192909252600282015460ff80821615159285019290925261010081048216151560608501526201000090041615156080830152600381015460a08301526004015460c082015292915050565b604051610215919081516001600160a01b031681526020808301519082015260408083015115159082015260608083015115159082015260808083015115159082015260a0828101519082015260c0918201519181019190915260e00190565b34801561051b57600080fd5b5061031c61052a3660046125ad565b61113f565b34801561053b57600080fd5b5061031c611177565b34801561055057600080fd5b5060035460ff1661023e565b34801561056857600080fd5b5061033e60045481565b34801561057e57600080fd5b5061033e60008051602061289983398151915281565b3480156105a057600080fd5b5061031c6105af36600461262d565b611197565b3480156105c057600080fd5b5061033e7f4d2e7a1e3f5dd6e203f087b15756ccf0e4ccd947fe1b639a38540089a1e47f6381565b3480156105f457600080fd5b5061031c61060336600461248d565b61149a565b34801561061457600080fd5b5061062861062336600461248d565b6115af565b60405161021591906126a9565b34801561064157600080fd5b5061031c61161b565b34801561065657600080fd5b5061031c6106653660046125ad565b61163b565b34801561067657600080fd5b5061068a61068536600461260b565b611955565b6040516001600160a01b039091168152602001610215565b3480156106ae57600080fd5b5061023e6106bd3660046125ad565b611974565b3480156106ce57600080fd5b5061033e62093a8081565b3480156106e557600080fd5b5061068a6106f436600461260b565b61199f565b34801561070557600080fd5b5061033e601e81565b34801561071a57600080fd5b5061033e600081565b34801561072f57600080fd5b5061062861073e36600461248d565b6119d7565b34801561074f57600080fd5b5061031c61075e36600461248d565b6119f1565b34801561076f57600080fd5b5061033e61077e36600461248d565b611f0f565b34801561078f57600080fd5b5061031c61079e3660046125ad565b611f26565b3480156107af57600080fd5b5061081f6107be36600461248d565b6005602081905260009182526040909120805460018201546002830154600384015460048501549585015460068601546007870154600888015460099098015496986001600160a01b03909616979496939594929360ff928316939192168a565b6040516102159a999897969594939291906126f6565b61083d61241e565b6000828152600560208181526040928390208351610140810185528154815260018201546001600160a01b0316928101929092526002810154938201939093526003830154606082015260048084015460808301529183015460a0820152600683015490929160c084019160ff16908111156108bb576108bb6124a6565b60048111156108cc576108cc6124a6565b8152600782015460208201526008820154604082015260099091015460ff16151560609091015292915050565b60006001600160e01b03198216635a05180f60e01b148061091e575061091e82611f4c565b92915050565b61092c611f81565b610934611fab565b600081815260056020526040812090600682015460ff16600481111561095c5761095c6124a6565b146109ae5760405162461bcd60e51b815260206004820152601960248201527f54726970206e6f74206f70656e20666f72206a6f696e696e670000000000000060448201526064015b60405180910390fd5b806002015434146109fa5760405162461bcd60e51b8152602060048201526016602482015275125b98dbdc9c9958dd081cdd185ad948185b5bdd5b9d60521b60448201526064016109a5565b8060030154816008015410610a405760405162461bcd60e51b815260206004820152600c60248201526b151c9a5c081a5cc8199d5b1b60a21b60448201526064016109a5565b600082815260066020908152604080832033845290915290206002015460ff1615610a9e5760405162461bcd60e51b815260206004820152600e60248201526d105b1c9958591e481a9bda5b995960921b60448201526064016109a5565b62093a808160040154610ab19190612771565b4210610af45760405162461bcd60e51b8152602060048201526012602482015271151bdbc818db1bdcd9481d1bc81cdd185c9d60721b60448201526064016109a5565b6040805160e0810182523380825234602080840191825260018486018181526000606087018181526080880182815260a0890183815260c08a018481528d8552600688528b85208a865288528b85209a518b546001600160a01b03919091166001600160a01b0319918216178c5598518b880155945160028b018054945193511515620100000262ff0000199415156101000261ff00199315159390931661ffff19909616959095179190911792909216929092179055516003880155905160049096019590955587855260078252948420805495860181558452832090930180549093161790915560088201805491610bed83612784565b919050555034816007016000828254610c06919061279d565b90915550506008810154600311610c275760068101805460ff191660011790555b604051348152339083907f338e0cd33c4e120afcd73f43f082fd8940ed67ac35180d278d2eb4f3ed51d92e9060200160405180910390a350610c696001600055565b50565b6000610c76611fab565b60008511610cbf5760405162461bcd60e51b81526020600482015260166024820152755374616b65206d75737420626520706f73697469766560501b60448201526064016109a5565b60038410158015610cd1575060088411155b610d1d5760405162461bcd60e51b815260206004820152601960248201527f496e76616c6964207061727469636970616e7420636f756e740000000000000060448201526064016109a5565b428311610d6c5760405162461bcd60e51b815260206004820152601960248201527f53746172742074696d65206d757374206265206675747572650000000000000060448201526064016109a5565b828211610dbb5760405162461bcd60e51b815260206004820152601c60248201527f456e642074696d65206d7573742062652061667465722073746172740000000060448201526064016109a5565b60048054906000610dcb83612784565b90915550506004805460408051610140810182528281523360208083019182528284018b8152606084018b8152608085018b815260a086018b8152600060c0880181815260e08901829052610100890182905261012089018290528a8252600596879052989020875181559551600180880180546001600160a01b0319166001600160a01b039093169290921790915593516002870155915160038601555184890155519183019190915592516006820180549596939592949193909260ff191691908490811115610e9f57610e9f6124a6565b021790555060e082015160078201556101008201516008820155610120909101516009909101805460ff1916911515919091179055610efe7f4d2e7a1e3f5dd6e203f087b15756ccf0e4ccd947fe1b639a38540089a1e47f6333611fd1565b50604051868152339082907f2aa6689a7861338405bc8aa2568b15d017a367c50c8bf69755e52ff789c725469060200160405180910390a395945050505050565b60008281526005602052604090206001600682015460ff166004811115610f6857610f686124a6565b14610f855760405162461bcd60e51b81526004016109a5906127b0565b8060040154421015610fcc5760405162461bcd60e51b815260206004820152601060248201526f151c9a5c081b9bdd081cdd185c9d195960821b60448201526064016109a5565b6005810154610fde906201518061279d565b4211156110265760405162461bcd60e51b815260206004820152601660248201527510da1958dacb5a5b881dda5b991bddc818db1bdcd95960521b60448201526064016109a5565b60008381526006602090815260408083203384529091529020600281015460ff166110635760405162461bcd60e51b81526004016109a5906127d9565b6002810154610100900460ff16156110b15760405162461bcd60e51b8152602060048201526011602482015270105b1c9958591e4818dbdb999a5c9b5959607a1b60448201526064016109a5565b60028101805461ff00191661010017905560038101839055426004820155604051339085907f430e77d45ae48215e70ee9bcdbb9c7ccd0d396fb46535fad0fce952272c4bb09906111059087815260200190565b60405180910390a350505050565b6000828152600160208190526040909120015461112f81612006565b6111398383611fd1565b50505050565b6001600160a01b03811633146111685760405163334bd91960e11b815260040160405180910390fd5b6111728282612010565b505050565b60008051602061289983398151915261118f81612006565b610c6961203d565b600083815260056020526040902060018101546001600160a01b03163314806111d357506111d360008051602061289983398151915233611974565b6112105760405162461bcd60e51b815260206004820152600e60248201526d139bdd08185d5d1a1bdc9a5e995960921b60448201526064016109a5565b6000600682015460ff16600481111561122b5761122b6124a6565b148061124f57506001600682015460ff16600481111561124d5761124d6124a6565b145b61128b5760405162461bcd60e51b815260206004820152600d60248201526c10d85b9b9bdd0818d85b98d95b609a1b60448201526064016109a5565b806004015442106112d55760405162461bcd60e51b8152602060048201526014602482015273151c9a5c08185b1c9958591e481cdd185c9d195960621b60448201526064016109a5565b60068101805460ff1916600317905560008481526007602090815260408083208054825181850281018501909352808352919290919083018282801561134457602002820191906000526020600020905b81546001600160a01b03168152600190910190602001808311611326575b5050505050905060005b815181101561145857600082828151811061136b5761136b612804565b60209081029190910181015160008981526006835260408082206001600160a01b038416835290935291909120600181015491925090156114435760018101546040516000916001600160a01b038516918381818185875af1925050503d80600081146113f4576040519150601f19603f3d011682016040523d82523d6000602084013e6113f9565b606091505b505090508061143a5760405162461bcd60e51b815260206004820152600d60248201526c1499599d5b990819985a5b1959609a1b60448201526064016109a5565b50600060018201555b5050808061145090612784565b91505061134e565b50847f0cc974a8ed71442b832b78decd00a1fa53ebb6889c70a2effb3275ce8e6e94f6858560405161148b92919061281a565b60405180910390a25050505050565b600081815260056020908152604080832060068352818420338552909252909120600281015460ff166114df5760405162461bcd60e51b81526004016109a5906127d9565b6001600683015460ff1660048111156114fa576114fa6124a6565b146115175760405162461bcd60e51b81526004016109a5906127b0565b600982015460ff161561155d5760405162461bcd60e51b815260206004820152600e60248201526d20b63932b0b23c90333937bd32b760911b60448201526064016109a5565b60098201805460ff199081166001179091556006830180549091166004179055604051339084907f11215f0d387bde1f67e012b0ebef8cafc0686c6533b6afbf73fddc814ecacbff90600090a3505050565b60008181526007602090815260409182902080548351818402810184019094528084526060939283018282801561160f57602002820191906000526020600020905b81546001600160a01b031681526001909101906020018083116115f1575b50505050509050919050565b60008051602061289983398151915261163381612006565b610c6961208f565b60008051602061289983398151915261165381612006565b60008381526005602052604090206004600682015460ff16600481111561167c5761167c6124a6565b146116bf5760405162461bcd60e51b815260206004820152601360248201527254726970206e6f7420696e206469737075746560681b60448201526064016109a5565b60008481526006602090815260408083206001600160a01b03871684529091529020600281015460ff166117055760405162461bcd60e51b81526004016109a5906127d9565b600281015462010000900460ff16156117525760405162461bcd60e51b815260206004820152600f60248201526e105b1c9958591e481cdb185cda1959608a1b60448201526064016109a5565b60028101805462ff00001916620100001790556001818101546008840154909160009161177f9190612771565b905080156119085760006117938284612849565b6000898152600760209081526040808320805482518185028101850190935280835294955092939092918301828280156117f657602002820191906000526020600020905b81546001600160a01b031681526001909101906020018083116117d8575b5050505050905060005b815181101561190457886001600160a01b031682828151811061182557611825612804565b60200260200101516001600160a01b0316146118f257600082828151811061184f5761184f612804565b60200260200101516001600160a01b03168460405160006040518083038185875af1925050503d80600081146118a1576040519150601f19603f3d011682016040523d82523d6000602084013e6118a6565b606091505b50509050806118f05760405162461bcd60e51b815260206004820152601660248201527514995dd85c99081d1c985b9cd9995c8819985a5b195960521b60448201526064016109a5565b505b806118fc81612784565b915050611800565b5050505b856001600160a01b0316877f22d98087e73327c576741a1d13b818fa68a68afa414e1c94d63ae6659d748c368460405161194491815260200190565b60405180910390a350505050505050565b600082815260026020526040812061196d90836120cc565b9392505050565b60009182526001602090815260408084206001600160a01b0393909316845291905290205460ff1690565b600760205281600052604060002081815481106119bb57600080fd5b6000918252602090912001546001600160a01b03169150829050565b600081815260026020526040902060609061091e906120d8565b6119f9611f81565b60008181526005602052604090206001600682015460ff166004811115611a2257611a226124a6565b14611a3f5760405162461bcd60e51b81526004016109a5906127b0565b6005810154611a51906202a30061279d565b4211611a9f5760405162461bcd60e51b815260206004820152601c60248201527f566572696669636174696f6e20706572696f64206e6f74206f7665720000000060448201526064016109a5565b600981015460ff1615611ae55760405162461bcd60e51b815260206004820152600e60248201526d2a3934b81034b990333937bd32b760911b60448201526064016109a5565b60068101805460ff19166002179055600781015460006064611b0860058461286b565b611b129190612849565b90506000611b208284612771565b60008681526007602090815260408083208054825181850281018501909352808352949550929384939192830182828015611b8457602002820191906000526020600020905b81546001600160a01b03168152600190910190602001808311611b66575b5050505050905060005b8151811015611ca3576000828281518110611bab57611bab612804565b60209081029190910181015160008b81526006835260408082206001600160a01b038416835290935291909120600281015491925090610100900460ff1615611c005784611bf881612784565b955050611c8e565b600281015462010000900460ff16611c8e5760028101805462ff00001916620100001790556001810154600090606490611c3c90601e9061286b565b611c469190612849565b9050826001600160a01b03168b7f22d98087e73327c576741a1d13b818fa68a68afa414e1c94d63ae6659d748c3683604051611c8491815260200190565b60405180910390a3505b50508080611c9b90612784565b915050611b8e565b5060008211611cf45760405162461bcd60e51b815260206004820152601960248201527f4e6f20636f6e6669726d6564207061727469636970616e74730000000000000060448201526064016109a5565b6000611d008385612849565b905060005b8251811015611e11576000838281518110611d2257611d22612804565b60209081029190910181015160008c81526006835260408082206001600160a01b038416835290935291909120600281015491925090610100900460ff1615611dfc576000826001600160a01b03168560405160006040518083038185875af1925050503d8060008114611db2576040519150601f19603f3d011682016040523d82523d6000602084013e611db7565b606091505b5050905080611dfa5760405162461bcd60e51b815260206004820152600f60248201526e151c985b9cd9995c8819985a5b1959608a1b60448201526064016109a5565b505b50508080611e0990612784565b915050611d05565b506000611e2d6000805160206128998339815191526000611955565b6001600160a01b03168660405160006040518083038185875af1925050503d8060008114611e77576040519150601f19603f3d011682016040523d82523d6000602084013e611e7c565b606091505b5050905080611ec35760405162461bcd60e51b8152602060048201526013602482015272119959481d1c985b9cd9995c8819985a5b1959606a1b60448201526064016109a5565b887fbe91c0e11ad7e25ee0e09afb2468fa4a6003ff00ea555c21102764fa13a58b2088604051611ef591815260200190565b60405180910390a25050505050505050610c696001600055565b600081815260026020526040812061091e906120e5565b60008281526001602081905260409091200154611f4281612006565b6111398383612010565b60006001600160e01b03198216637965db0b60e01b148061091e57506301ffc9a760e01b6001600160e01b031983161461091e565b600260005403611fa457604051633ee5aeb560e01b815260040160405180910390fd5b6002600055565b60035460ff1615611fcf5760405163d93c066560e01b815260040160405180910390fd5b565b600080611fde84846120ef565b9050801561196d576000848152600260205260409020611ffe9084612168565b509392505050565b610c69813361217d565b60008061201d84846121ba565b9050801561196d576000848152600260205260409020611ffe9084612227565b61204561223c565b6003805460ff191690557f5db9ee0a495bf2e6ff9c91a7834c1ba4fdd244a5e8aa4e537bd38aeae4b073aa335b6040516001600160a01b03909116815260200160405180910390a1565b612097611fab565b6003805460ff191660011790557f62e78cea01bee320cd4e420270b5ea74000d11b0c9f74754ebdbfc544b05a2586120723390565b600061196d838361225f565b6060600061196d83612289565b600061091e825490565b60006120fb8383611974565b6121605760008381526001602081815260408084206001600160a01b0387168086529252808420805460ff19169093179092559051339286917f2f8788117e7eff1d82e926ec794901d17c78024a50270940304540a733656f0d9190a450600161091e565b50600061091e565b600061196d836001600160a01b0384166122e4565b6121878282611974565b6121b65760405163e2517d3f60e01b81526001600160a01b0382166004820152602481018390526044016109a5565b5050565b60006121c68383611974565b156121605760008381526001602090815260408083206001600160a01b0386168085529252808320805460ff1916905551339286917ff6391f5c32d9c69d2a47ea670b442974b53935d1edc7fd64eb21e047a839171b9190a450600161091e565b600061196d836001600160a01b03841661232b565b60035460ff16611fcf57604051638dfc202b60e01b815260040160405180910390fd5b600082600001828154811061227657612276612804565b9060005260206000200154905092915050565b60608160000180548060200260200160405190810160405280929190818152602001828054801561160f57602002820191906000526020600020905b8154815260200190600101908083116122c55750505050509050919050565b60008181526001830160205260408120546121605750815460018181018455600084815260208082209093018490558454848252828601909352604090209190915561091e565b6000818152600183016020526040812054801561241457600061234f600183612771565b855490915060009061236390600190612771565b90508082146123c857600086600001828154811061238357612383612804565b90600052602060002001549050808760000184815481106123a6576123a6612804565b6000918252602080832090910192909255918252600188019052604090208390555b85548690806123d9576123d9612882565b60019003818190600052602060002001600090559055856001016000868152602001908152602001600020600090556001935050505061091e565b600091505061091e565b6040518061014001604052806000815260200160006001600160a01b031681526020016000815260200160008152602001600081526020016000815260200160006004811115612470576124706124a6565b815260200160008152602001600081526020016000151581525090565b60006020828403121561249f57600080fd5b5035919050565b634e487b7160e01b600052602160045260246000fd5b600581106124da57634e487b7160e01b600052602160045260246000fd5b9052565b81518152602080830151610140830191612502908401826001600160a01b03169052565b5060408301516040830152606083015160608301526080830151608083015260a083015160a083015260c083015161253d60c08401826124bc565b5060e083810151908301526101008084015190830152610120928301511515929091019190915290565b60006020828403121561257957600080fd5b81356001600160e01b03198116811461196d57600080fd5b80356001600160a01b03811681146125a857600080fd5b919050565b600080604083850312156125c057600080fd5b823591506125d060208401612591565b90509250929050565b600080600080608085870312156125ef57600080fd5b5050823594602084013594506040840135936060013592509050565b6000806040838503121561261e57600080fd5b50508035926020909101359150565b60008060006040848603121561264257600080fd5b83359250602084013567ffffffffffffffff8082111561266157600080fd5b818601915086601f83011261267557600080fd5b81358181111561268457600080fd5b87602082850101111561269657600080fd5b6020830194508093505050509250925092565b6020808252825182820181905260009190848201906040850190845b818110156126ea5783516001600160a01b0316835292840192918401916001016126c5565b50909695505050505050565b8a81526001600160a01b038a16602082015260408101899052606081018890526080810187905260a08101869052610140810161273660c08301876124bc565b8460e0830152836101008301528215156101208301529b9a5050505050505050505050565b634e487b7160e01b600052601160045260246000fd5b8181038181111561091e5761091e61275b565b6000600182016127965761279661275b565b5060010190565b8082018082111561091e5761091e61275b565b6020808252600f908201526e54726970206e6f742061637469766560881b604082015260600190565b602080825260119082015270139bdd0818481c185c9d1a58da5c185b9d607a1b604082015260600190565b634e487b7160e01b600052603260045260246000fd5b60208152816020820152818360408301376000818301604090810191909152601f909201601f19160101919050565b60008261286657634e487b7160e01b600052601260045260246000fd5b500490565b808202811582820484141761091e5761091e61275b565b634e487b7160e01b600052603160045260246000fdfea49807205ce4d355092ef5a8a18f56e8913cf4a201fbe287825b095693c21775a26469706673582212208f04339a949cf9e838f000e85ee73c72a45d0ed3bb5085380740fe82990f981a64736f6c63430008140033","opcodes":"PUSH1 0x80 PUSH1 0x40 MSTORE CALLVALUE DUP1 ISZERO PUSH3 0x11 JUMPI PUSH1 0x0 DUP1 REVERT JUMPDEST POP PUSH1 0x1 PUSH1 0x0 SWAP1 DUP2 SSTORE PUSH3 0x25 SWAP1 CALLER PUSH3 0x59 JUMP JUMPDEST POP PUSH3 0x52 PUSH32 0xA49807205CE4D355092EF5A8A18F56E8913CF4A201FBE287825B095693C21775 CALLER PUSH3 0x59 JUMP JUMPDEST POP PUSH3 0x186 JUMP JUMPDEST PUSH1 0x0 DUP1 PUSH3 0x68 DUP5 DUP5 PUSH3 0x96 JUMP JUMPDEST SWAP1 POP DUP1 ISZERO PUSH3 0x8D JUMPI PUSH1 0x0 DUP5 DUP2 MSTORE PUSH1 0x2 PUSH1 0x20 MSTORE PUSH1 0x40 SWAP1 KECCAK256 PUSH3 0x8B SWAP1 DUP5 PUSH3 0x12C JUMP JUMPDEST POP JUMPDEST SWAP1 POP JUMPDEST SWAP3 SWAP2 POP POP JUMP JUMPDEST PUSH1 0x0 DUP3 DUP2 MSTORE PUSH1 0x1 PUSH1 0x20 SWAP1 DUP2 MSTORE PUSH1 0x40 DUP1 DUP4 KECCAK256 PUSH1 0x1 PUSH1 0x1 PUSH1 0xA0 SHL SUB DUP6 AND DUP5 MSTORE SWAP1 SWAP2 MSTORE DUP2 KECCAK256 SLOAD PUSH1 0xFF AND PUSH3 0x123 JUMPI PUSH1 0x0 DUP4 DUP2 MSTORE PUSH1 0x1 PUSH1 0x20 DUP2 DUP2 MSTORE PUSH1 0x40 DUP1 DUP5 KECCAK256 PUSH1 0x1 PUSH1 0x1 PUSH1 0xA0 SHL SUB DUP8 AND DUP1 DUP7 MSTORE SWAP3 MSTORE DUP1 DUP5 KECCAK256 DUP1 SLOAD PUSH1 0xFF NOT AND SWAP1 SWAP4 OR SWAP1 SWAP3 SSTORE SWAP1 MLOAD CALLER SWAP3 DUP7 SWAP2 PUSH32 0x2F8788117E7EFF1D82E926EC794901D17C78024A50270940304540A733656F0D SWAP2 SWAP1 LOG4 POP PUSH1 0x1 PUSH3 0x90 JUMP JUMPDEST POP PUSH1 0x0 PUSH3 0x90 JUMP JUMPDEST PUSH1 0x0 PUSH3 0x8D DUP4 PUSH1 0x1 PUSH1 0x1 PUSH1 0xA0 SHL SUB DUP5 AND PUSH1 0x0 DUP2 DUP2 MSTORE PUSH1 0x1 DUP4 ADD PUSH1 0x20 MSTORE PUSH1 0x40 DUP2 KECCAK256 SLOAD PUSH3 0x123 JUMPI POP DUP2 SLOAD PUSH1 0x1 DUP2 DUP2 ADD DUP5 SSTORE PUSH1 0x0 DUP5 DUP2 MSTORE PUSH1 0x20 DUP1 DUP3 KECCAK256 SWAP1 SWAP4 ADD DUP5 SWAP1 SSTORE DUP5 SLOAD DUP5 DUP3 MSTORE DUP3 DUP7 ADD SWAP1 SWAP4 MSTORE PUSH1 0x40 SWAP1 KECCAK256 SWAP2 SWAP1 SWAP2 SSTORE PUSH3 0x90 JUMP JUMPDEST PUSH2 0x28EE DUP1 PUSH3 0x196 PUSH1 0x0 CODECOPY PUSH1 0x0 RETURN INVALID PUSH1 0x80 PUSH1 0x40 MSTORE PUSH1 0x4 CALLDATASIZE LT PUSH2 0x1E3 JUMPI PUSH1 0x0 CALLDATALOAD PUSH1 0xE0 SHR DUP1 PUSH4 0x7909CB59 GT PUSH2 0x102 JUMPI DUP1 PUSH4 0x9DF66A69 GT PUSH2 0x95 JUMPI DUP1 PUSH4 0xC1917E79 GT PUSH2 0x64 JUMPI DUP1 PUSH4 0xC1917E79 EQ PUSH2 0x743 JUMPI DUP1 PUSH4 0xCA15C873 EQ PUSH2 0x763 JUMPI DUP1 PUSH4 0xD547741F EQ PUSH2 0x783 JUMPI DUP1 PUSH4 0xF6824A7C EQ PUSH2 0x7A3 JUMPI PUSH1 0x0 DUP1 REVERT JUMPDEST DUP1 PUSH4 0x9DF66A69 EQ PUSH2 0x6D9 JUMPI DUP1 PUSH4 0x9F29F135 EQ PUSH2 0x6F9 JUMPI DUP1 PUSH4 0xA217FDDF EQ PUSH2 0x70E JUMPI DUP1 PUSH4 0xA3246AD3 EQ PUSH2 0x723 JUMPI PUSH1 0x0 DUP1 REVERT JUMPDEST DUP1 PUSH4 0x8EDA7A36 GT PUSH2 0xD1 JUMPI DUP1 PUSH4 0x8EDA7A36 EQ PUSH2 0x64A JUMPI DUP1 PUSH4 0x9010D07C EQ PUSH2 0x66A JUMPI DUP1 PUSH4 0x91D14854 EQ PUSH2 0x6A2 JUMPI DUP1 PUSH4 0x92A57FCA EQ PUSH2 0x6C2 JUMPI PUSH1 0x0 DUP1 REVERT JUMPDEST DUP1 PUSH4 0x7909CB59 EQ PUSH2 0x5B4 JUMPI DUP1 PUSH4 0x7D74EE84 EQ PUSH2 0x5E8 JUMPI DUP1 PUSH4 0x7FD20D43 EQ PUSH2 0x608 JUMPI DUP1 PUSH4 0x8456CB59 EQ PUSH2 0x635 JUMPI PUSH1 0x0 DUP1 REVERT JUMPDEST DUP1 PUSH4 0x34FBC9A1 GT PUSH2 0x17A JUMPI DUP1 PUSH4 0x5C975ABB GT PUSH2 0x149 JUMPI DUP1 PUSH4 0x5C975ABB EQ PUSH2 0x544 JUMPI DUP1 PUSH4 0x6FA4EC27 EQ PUSH2 0x55C JUMPI DUP1 PUSH4 0x75B238FC EQ PUSH2 0x572 JUMPI DUP1 PUSH4 0x7900943E EQ PUSH2 0x594 JUMPI PUSH1 0x0 DUP1 REVERT JUMPDEST DUP1 PUSH4 0x34FBC9A1 EQ PUSH2 0x3BD JUMPI DUP1 PUSH4 0x35F3AD7A EQ PUSH2 0x3D2 JUMPI DUP1 PUSH4 0x36568ABE EQ PUSH2 0x50F JUMPI DUP1 PUSH4 0x3F4BA83A EQ PUSH2 0x52F JUMPI PUSH1 0x0 DUP1 REVERT JUMPDEST DUP1 PUSH4 0x19C9F3E3 GT PUSH2 0x1B6 JUMPI DUP1 PUSH4 0x19C9F3E3 EQ PUSH2 0x31E JUMPI DUP1 PUSH4 0x248A9CA3 EQ PUSH2 0x34C JUMPI DUP1 PUSH4 0x2D8DFE1D EQ PUSH2 0x37D JUMPI DUP1 PUSH4 0x2F2FF15D EQ PUSH2 0x39D JUMPI PUSH1 0x0 DUP1 REVERT JUMPDEST DUP1 PUSH4 0x1011705 EQ PUSH2 0x1E8 JUMPI DUP1 PUSH4 0x1FFC9A7 EQ PUSH2 0x21E JUMPI DUP1 PUSH4 0x2E060C6 EQ PUSH2 0x24E JUMPI DUP1 PUSH4 0x13C3EA33 EQ PUSH2 0x309 JUMPI JUMPDEST PUSH1 0x0 DUP1 REVERT JUMPDEST CALLVALUE DUP1 ISZERO PUSH2 0x1F4 JUMPI PUSH1 0x0 DUP1 REVERT JUMPDEST POP PUSH2 0x208 PUSH2 0x203 CALLDATASIZE PUSH1 0x4 PUSH2 0x248D JUMP JUMPDEST PUSH2 0x835 JUMP JUMPDEST PUSH1 0x40 MLOAD PUSH2 0x215 SWAP2 SWAP1 PUSH2 0x24DE JUMP JUMPDEST PUSH1 0x40 MLOAD DUP1 SWAP2 SUB SWAP1 RETURN JUMPDEST CALLVALUE DUP1 ISZERO PUSH2 0x22A JUMPI PUSH1 0x0 DUP1 REVERT JUMPDEST POP PUSH2 0x23E PUSH2 0x239 CALLDATASIZE PUSH1 0x4 PUSH2 0x2567 JUMP JUMPDEST PUSH2 0x8F9 JUMP JUMPDEST PUSH1 0x40 MLOAD SWAP1 ISZERO ISZERO DUP2 MSTORE PUSH1 0x20 ADD PUSH2 0x215 JUMP JUMPDEST CALLVALUE DUP1 ISZERO PUSH2 0x25A JUMPI PUSH1 0x0 DUP1 REVERT JUMPDEST POP PUSH2 0x2C2 PUSH2 0x269 CALLDATASIZE PUSH1 0x4 PUSH2 0x25AD JUMP JUMPDEST PUSH1 0x6 PUSH1 0x20 SWAP1 DUP2 MSTORE PUSH1 0x0 SWAP3 DUP4 MSTORE PUSH1 0x40 DUP1 DUP5 KECCAK256 SWAP1 SWAP2 MSTORE SWAP1 DUP3 MSTORE SWAP1 KECCAK256 DUP1 SLOAD PUSH1 0x1 DUP3 ADD SLOAD PUSH1 0x2 DUP4 ADD SLOAD PUSH1 0x3 DUP5 ADD SLOAD PUSH1 0x4 SWAP1 SWAP5 ADD SLOAD PUSH1 0x1 PUSH1 0x1 PUSH1 0xA0 SHL SUB SWAP1 SWAP4 AND SWAP4 SWAP2 SWAP3 PUSH1 0xFF DUP1 DUP4 AND SWAP4 PUSH2 0x100 DUP5 DIV DUP3 AND SWAP4 PUSH3 0x10000 SWAP1 DIV SWAP1 SWAP2 AND SWAP2 DUP8 JUMP JUMPDEST PUSH1 0x40 DUP1 MLOAD PUSH1 0x1 PUSH1 0x1 PUSH1 0xA0 SHL SUB SWAP1 SWAP9 AND DUP9 MSTORE PUSH1 0x20 DUP9 ADD SWAP7 SWAP1 SWAP7 MSTORE SWAP4 ISZERO ISZERO SWAP5 DUP7 ADD SWAP5 SWAP1 SWAP5 MSTORE SWAP1 ISZERO ISZERO PUSH1 0x60 DUP6 ADD MSTORE ISZERO ISZERO PUSH1 0x80 DUP5 ADD MSTORE PUSH1 0xA0 DUP4 ADD SWAP2 SWAP1 SWAP2 MSTORE PUSH1 0xC0 DUP3 ADD MSTORE PUSH1 0xE0 ADD PUSH2 0x215 JUMP JUMPDEST PUSH2 0x31C PUSH2 0x317 CALLDATASIZE PUSH1 0x4 PUSH2 0x248D JUMP JUMPDEST PUSH2 0x924 JUMP JUMPDEST STOP JUMPDEST CALLVALUE DUP1 ISZERO PUSH2 0x32A JUMPI PUSH1 0x0 DUP1 REVERT JUMPDEST POP PUSH2 0x33E PUSH2 0x339 CALLDATASIZE PUSH1 0x4 PUSH2 0x25D9 JUMP JUMPDEST PUSH2 0xC6C JUMP JUMPDEST PUSH1 0x40 MLOAD SWAP1 DUP2 MSTORE PUSH1 0x20 ADD PUSH2 0x215 JUMP JUMPDEST CALLVALUE DUP1 ISZERO PUSH2 0x358 JUMPI PUSH1 0x0 DUP1 REVERT JUMPDEST POP PUSH2 0x33E PUSH2 0x367 CALLDATASIZE PUSH1 0x4 PUSH2 0x248D JUMP JUMPDEST PUSH1 0x0 SWAP1 DUP2 MSTORE PUSH1 0x1 PUSH1 0x20 DUP2 SWAP1 MSTORE PUSH1 0x40 SWAP1 SWAP2 KECCAK256 ADD SLOAD SWAP1 JUMP JUMPDEST CALLVALUE DUP1 ISZERO PUSH2 0x389 JUMPI PUSH1 0x0 DUP1 REVERT JUMPDEST POP PUSH2 0x31C PUSH2 0x398 CALLDATASIZE PUSH1 0x4 PUSH2 0x260B JUMP JUMPDEST PUSH2 0xF3F JUMP JUMPDEST CALLVALUE DUP1 ISZERO PUSH2 0x3A9 JUMPI PUSH1 0x0 DUP1 REVERT JUMPDEST POP PUSH2 0x31C PUSH2 0x3B8 CALLDATASIZE PUSH1 0x4 PUSH2 0x25AD JUMP JUMPDEST PUSH2 0x1113 JUMP JUMPDEST CALLVALUE DUP1 ISZERO PUSH2 0x3C9 JUMPI PUSH1 0x0 DUP1 REVERT JUMPDEST POP PUSH2 0x33E PUSH1 0x5 DUP2 JUMP JUMPDEST CALLVALUE DUP1 ISZERO PUSH2 0x3DE JUMPI PUSH1 0x0 DUP1 REVERT JUMPDEST POP PUSH2 0x4AF PUSH2 0x3ED CALLDATASIZE PUSH1 0x4 PUSH2 0x25AD JUMP JUMPDEST PUSH1 0x40 DUP1 MLOAD PUSH1 0xE0 DUP2 ADD DUP3 MSTORE PUSH1 0x0 DUP1 DUP3 MSTORE PUSH1 0x20 DUP3 ADD DUP2 SWAP1 MSTORE SWAP2 DUP2 ADD DUP3 SWAP1 MSTORE PUSH1 0x60 DUP2 ADD DUP3 SWAP1 MSTORE PUSH1 0x80 DUP2 ADD DUP3 SWAP1 MSTORE PUSH1 0xA0 DUP2 ADD DUP3 SWAP1 MSTORE PUSH1 0xC0 DUP2 ADD SWAP2 SWAP1 SWAP2 MSTORE POP PUSH1 0x0 DUP3 DUP2 MSTORE PUSH1 0x6 PUSH1 0x20 SWAP1 DUP2 MSTORE PUSH1 0x40 DUP1 DUP4 KECCAK256 PUSH1 0x1 PUSH1 0x1 PUSH1 0xA0 SHL SUB DUP1 DUP7 AND DUP6 MSTORE SWAP1 DUP4 MSTORE SWAP3 DUP2 SWAP1 KECCAK256 DUP2 MLOAD PUSH1 0xE0 DUP2 ADD DUP4 MSTORE DUP2 SLOAD SWAP1 SWAP5 AND DUP5 MSTORE PUSH1 0x1 DUP2 ADD SLOAD SWAP3 DUP5 ADD SWAP3 SWAP1 SWAP3 MSTORE PUSH1 0x2 DUP3 ADD SLOAD PUSH1 0xFF DUP1 DUP3 AND ISZERO ISZERO SWAP3 DUP6 ADD SWAP3 SWAP1 SWAP3 MSTORE PUSH2 0x100 DUP2 DIV DUP3 AND ISZERO ISZERO PUSH1 0x60 DUP6 ADD MSTORE PUSH3 0x10000 SWAP1 DIV AND ISZERO ISZERO PUSH1 0x80 DUP4 ADD MSTORE PUSH1 0x3 DUP2 ADD SLOAD PUSH1 0xA0 DUP4 ADD MSTORE PUSH1 0x4 ADD SLOAD PUSH1 0xC0 DUP3 ADD MSTORE SWAP3 SWAP2 POP POP JUMP JUMPDEST PUSH1 0x40 MLOAD PUSH2 0x215 SWAP2 SWAP1 DUP2 MLOAD PUSH1 0x1 PUSH1 0x1 PUSH1 0xA0 SHL SUB AND DUP2 MSTORE PUSH1 0x20 DUP1 DUP4 ADD MLOAD SWAP1 DUP3 ADD MSTORE PUSH1 0x40 DUP1 DUP4 ADD MLOAD ISZERO ISZERO SWAP1 DUP3 ADD MSTORE PUSH1 0x60 DUP1 DUP4 ADD MLOAD ISZERO ISZERO SWAP1 DUP3 ADD MSTORE PUSH1 0x80 DUP1 DUP4 ADD MLOAD ISZERO ISZERO SWAP1 DUP3 ADD MSTORE PUSH1 0xA0 DUP3 DUP2 ADD MLOAD SWAP1 DUP3 ADD MSTORE PUSH1 0xC0 SWAP2 DUP3 ADD MLOAD SWAP2 DUP2 ADD SWAP2 SWAP1 SWAP2 MSTORE PUSH1 0xE0 ADD SWAP1 JUMP JUMPDEST CALLVALUE DUP1 ISZERO PUSH2 0x51B JUMPI PUSH1 0x0 DUP1 REVERT JUMPDEST POP PUSH2 0x31C PUSH2 0x52A CALLDATASIZE PUSH1 0x4 PUSH2 0x25AD JUMP JUMPDEST PUSH2 0x113F JUMP JUMPDEST CALLVALUE DUP1 ISZERO PUSH2 0x53B JUMPI PUSH1 0x0 DUP1 REVERT JUMPDEST POP PUSH2 0x31C PUSH2 0x1177 JUMP JUMPDEST CALLVALUE DUP1 ISZERO PUSH2 0x550 JUMPI PUSH1 0x0 DUP1 REVERT JUMPDEST POP PUSH1 0x3 SLOAD PUSH1 0xFF AND PUSH2 0x23E JUMP JUMPDEST CALLVALUE DUP1 ISZERO PUSH2 0x568 JUMPI PUSH1 0x0 DUP1 REVERT JUMPDEST POP PUSH2 0x33E PUSH1 0x4 SLOAD DUP2 JUMP JUMPDEST CALLVALUE DUP1 ISZERO PUSH2 0x57E JUMPI PUSH1 0x0 DUP1 REVERT JUMPDEST POP PUSH2 0x33E PUSH1 0x0 DUP1 MLOAD PUSH1 0x20 PUSH2 0x2899 DUP4 CODECOPY DUP2 MLOAD SWAP2 MSTORE DUP2 JUMP JUMPDEST CALLVALUE DUP1 ISZERO PUSH2 0x5A0 JUMPI PUSH1 0x0 DUP1 REVERT JUMPDEST POP PUSH2 0x31C PUSH2 0x5AF CALLDATASIZE PUSH1 0x4 PUSH2 0x262D JUMP JUMPDEST PUSH2 0x1197 JUMP JUMPDEST CALLVALUE DUP1 ISZERO PUSH2 0x5C0 JUMPI PUSH1 0x0 DUP1 REVERT JUMPDEST POP PUSH2 0x33E PUSH32 0x4D2E7A1E3F5DD6E203F087B15756CCF0E4CCD947FE1B639A38540089A1E47F63 DUP2 JUMP JUMPDEST CALLVALUE DUP1 ISZERO PUSH2 0x5F4 JUMPI PUSH1 0x0 DUP1 REVERT JUMPDEST POP PUSH2 0x31C PUSH2 0x603 CALLDATASIZE PUSH1 0x4 PUSH2 0x248D JUMP JUMPDEST PUSH2 0x149A JUMP JUMPDEST CALLVALUE DUP1 ISZERO PUSH2 0x614 JUMPI PUSH1 0x0 DUP1 REVERT JUMPDEST POP PUSH2 0x628 PUSH2 0x623 CALLDATASIZE PUSH1 0x4 PUSH2 0x248D JUMP JUMPDEST PUSH2 0x15AF JUMP JUMPDEST PUSH1 0x40 MLOAD PUSH2 0x215 SWAP2 SWAP1 PUSH2 0x26A9 JUMP JUMPDEST CALLVALUE DUP1 ISZERO PUSH2 0x641 JUMPI PUSH1 0x0 DUP1 REVERT JUMPDEST POP PUSH2 0x31C PUSH2 0x161B JUMP JUMPDEST CALLVALUE DUP1 ISZERO PUSH2 0x656 JUMPI PUSH1 0x0 DUP1 REVERT JUMPDEST POP PUSH2 0x31C PUSH2 0x665 CALLDATASIZE PUSH1 0x4 PUSH2 0x25AD JUMP JUMPDEST PUSH2 0x163B JUMP JUMPDEST CALLVALUE DUP1 ISZERO PUSH2 0x676 JUMPI PUSH1 0x0 DUP1 REVERT JUMPDEST POP PUSH2 0x68A PUSH2 0x685 CALLDATASIZE PUSH1 0x4 PUSH2 0x260B JUMP JUMPDEST PUSH2 0x1955 JUMP JUMPDEST PUSH1 0x40 MLOAD PUSH1 0x1 PUSH1 0x1 PUSH1 0xA0 SHL SUB SWAP1 SWAP2 AND DUP2 MSTORE PUSH1 0x20 ADD PUSH2 0x215 JUMP JUMPDEST CALLVALUE DUP1 ISZERO PUSH2 0x6AE JUMPI PUSH1 0x0 DUP1 REVERT JUMPDEST POP PUSH2 0x23E PUSH2 0x6BD CALLDATASIZE PUSH1 0x4 PUSH2 0x25AD JUMP JUMPDEST PUSH2 0x1974 JUMP JUMPDEST CALLVALUE DUP1 ISZERO PUSH2 0x6CE JUMPI PUSH1 0x0 DUP1 REVERT JUMPDEST POP PUSH2 0x33E PUSH3 0x93A80 DUP2 JUMP JUMPDEST CALLVALUE DUP1 ISZERO PUSH2 0x6E5 JUMPI PUSH1 0x0 DUP1 REVERT JUMPDEST POP PUSH2 0x68A PUSH2 0x6F4 CALLDATASIZE PUSH1 0x4 PUSH2 0x260B JUMP JUMPDEST PUSH2 0x199F JUMP JUMPDEST CALLVALUE DUP1 ISZERO PUSH2 0x705 JUMPI PUSH1 0x0 DUP1 REVERT JUMPDEST POP PUSH2 0x33E PUSH1 0x1E DUP2 JUMP JUMPDEST CALLVALUE DUP1 ISZERO PUSH2 0x71A JUMPI PUSH1 0x0 DUP1 REVERT JUMPDEST POP PUSH2 0x33E PUSH1 0x0 DUP2 JUMP JUMPDEST CALLVALUE DUP1 ISZERO PUSH2 0x72F JUMPI PUSH1 0x0 DUP1 REVERT JUMPDEST POP PUSH2 0x628 PUSH2 0x73E CALLDATASIZE PUSH1 0x4 PUSH2 0x248D JUMP JUMPDEST PUSH2 0x19D7 JUMP JUMPDEST CALLVALUE DUP1 ISZERO PUSH2 0x74F JUMPI PUSH1 0x0 DUP1 REVERT JUMPDEST POP PUSH2 0x31C PUSH2 0x75E CALLDATASIZE PUSH1 0x4 PUSH2 0x248D JUMP JUMPDEST PUSH2 0x19F1 JUMP JUMPDEST CALLVALUE DUP1 ISZERO PUSH2 0x76F JUMPI PUSH1 0x0 DUP1 REVERT JUMPDEST POP PUSH2 0x33E PUSH2 0x77E CALLDATASIZE PUSH1 0x4 PUSH2 0x248D JUMP JUMPDEST PUSH2 0x1F0F JUMP JUMPDEST CALLVALUE DUP1 ISZERO PUSH2 0x78F JUMPI PUSH1 0x0 DUP1 REVERT JUMPDEST POP PUSH2 0x31C PUSH2 0x79E CALLDATASIZE PUSH1 0x4 PUSH2 0x25AD JUMP JUMPDEST PUSH2 0x1F26 JUMP JUMPDEST CALLVALUE DUP1 ISZERO PUSH2 0x7AF JUMPI PUSH1 0x0 DUP1 REVERT JUMPDEST POP PUSH2 0x81F PUSH2 0x7BE CALLDATASIZE PUSH1 0x4 PUSH2 0x248D JUMP JUMPDEST PUSH1 0x5 PUSH1 0x20 DUP2 SWAP1 MSTORE PUSH1 0x0 SWAP2 DUP3 MSTORE PUSH1 0x40 SWAP1 SWAP2 KECCAK256 DUP1 SLOAD PUSH1 0x1 DUP3 ADD SLOAD PUSH1 0x2 DUP4 ADD SLOAD PUSH1 0x3 DUP5 ADD SLOAD PUSH1 0x4 DUP6 ADD SLOAD SWAP6 DUP6 ADD SLOAD PUSH1 0x6 DUP7 ADD SLOAD PUSH1 0x7 DUP8 ADD SLOAD PUSH1 0x8 DUP9 ADD SLOAD PUSH1 0x9 SWAP1 SWAP9 ADD SLOAD SWAP7 SWAP9 PUSH1 0x1 PUSH1 0x1 PUSH1 0xA0 SHL SUB SWAP1 SWAP7 AND SWAP8 SWAP5 SWAP7 SWAP4 SWAP6 SWAP5 SWAP3 SWAP4 PUSH1 0xFF SWAP3 DUP4 AND SWAP4 SWAP2 SWAP3 AND DUP11 JUMP JUMPDEST PUSH1 0x40 MLOAD PUSH2 0x215 SWAP11 SWAP10 SWAP9 SWAP8 SWAP7 SWAP6 SWAP5 SWAP4 SWAP3 SWAP2 SWAP1 PUSH2 0x26F6 JUMP JUMPDEST PUSH2 0x83D PUSH2 0x241E JUMP JUMPDEST PUSH1 0x0 DUP3 DUP2 MSTORE PUSH1 0x5 PUSH1 0x20 DUP2 DUP2 MSTORE PUSH1 0x40 SWAP3 DUP4 SWAP1 KECCAK256 DUP4 MLOAD PUSH2 0x140 DUP2 ADD DUP6 MSTORE DUP2 SLOAD DUP2 MSTORE PUSH1 0x1 DUP3 ADD SLOAD PUSH1 0x1 PUSH1 0x1 PUSH1 0xA0 SHL SUB AND SWAP3 DUP2 ADD SWAP3 SWAP1 SWAP3 MSTORE PUSH1 0x2 DUP2 ADD SLOAD SWAP4 DUP3 ADD SWAP4 SWAP1 SWAP4 MSTORE PUSH1 0x3 DUP4 ADD SLOAD PUSH1 0x60 DUP3 ADD MSTORE PUSH1 0x4 DUP1 DUP5 ADD SLOAD PUSH1 0x80 DUP4 ADD MSTORE SWAP2 DUP4 ADD SLOAD PUSH1 0xA0 DUP3 ADD MSTORE PUSH1 0x6 DUP4 ADD SLOAD SWAP1 SWAP3 SWAP2 PUSH1 0xC0 DUP5 ADD SWAP2 PUSH1 0xFF AND SWAP1 DUP2 GT ISZERO PUSH2 0x8BB JUMPI PUSH2 0x8BB PUSH2 0x24A6 JUMP JUMPDEST PUSH1 0x4 DUP2 GT ISZERO PUSH2 0x8CC JUMPI PUSH2 0x8CC PUSH2 0x24A6 JUMP JUMPDEST DUP2 MSTORE PUSH1 0x7 DUP3 ADD SLOAD PUSH1 0x20 DUP3 ADD MSTORE PUSH1 0x8 DUP3 ADD SLOAD PUSH1 0x40 DUP3 ADD MSTORE PUSH1 0x9 SWAP1 SWAP2 ADD SLOAD PUSH1 0xFF AND ISZERO ISZERO PUSH1 0x60 SWAP1 SWAP2 ADD MSTORE SWAP3 SWAP2 POP POP JUMP JUMPDEST PUSH1 0x0 PUSH1 0x1 PUSH1 0x1 PUSH1 0xE0 SHL SUB NOT DUP3 AND PUSH4 0x5A05180F PUSH1 0xE0 SHL EQ DUP1 PUSH2 0x91E JUMPI POP PUSH2 0x91E DUP3 PUSH2 0x1F4C JUMP JUMPDEST SWAP3 SWAP2 POP POP JUMP JUMPDEST PUSH2 0x92C PUSH2 0x1F81 JUMP JUMPDEST PUSH2 0x934 PUSH2 0x1FAB JUMP JUMPDEST PUSH1 0x0 DUP2 DUP2 MSTORE PUSH1 0x5 PUSH1 0x20 MSTORE PUSH1 0x40 DUP2 KECCAK256 SWAP1 PUSH1 0x6 DUP3 ADD SLOAD PUSH1 0xFF AND PUSH1 0x4 DUP2 GT ISZERO PUSH2 0x95C JUMPI PUSH2 0x95C PUSH2 0x24A6 JUMP JUMPDEST EQ PUSH2 0x9AE JUMPI PUSH1 0x40 MLOAD PUSH3 0x461BCD PUSH1 0xE5 SHL DUP2 MSTORE PUSH1 0x20 PUSH1 0x4 DUP3 ADD MSTORE PUSH1 0x19 PUSH1 0x24 DUP3 ADD MSTORE PUSH32 0x54726970206E6F74206F70656E20666F72206A6F696E696E6700000000000000 PUSH1 0x44 DUP3 ADD MSTORE PUSH1 0x64 ADD JUMPDEST PUSH1 0x40 MLOAD DUP1 SWAP2 SUB SWAP1 REVERT JUMPDEST DUP1 PUSH1 0x2 ADD SLOAD CALLVALUE EQ PUSH2 0x9FA JUMPI PUSH1 0x40 MLOAD PUSH3 0x461BCD PUSH1 0xE5 SHL DUP2 MSTORE PUSH1 0x20 PUSH1 0x4 DUP3 ADD MSTORE PUSH1 0x16 PUSH1 0x24 DUP3 ADD MSTORE PUSH22 0x125B98DBDC9C9958DD081CDD185AD948185B5BDD5B9D PUSH1 0x52 SHL PUSH1 0x44 DUP3 ADD MSTORE PUSH1 0x64 ADD PUSH2 0x9A5 JUMP JUMPDEST DUP1 PUSH1 0x3 ADD SLOAD DUP2 PUSH1 0x8 ADD SLOAD LT PUSH2 0xA40 JUMPI PUSH1 0x40 MLOAD PUSH3 0x461BCD PUSH1 0xE5 SHL DUP2 MSTORE PUSH1 0x20 PUSH1 0x4 DUP3 ADD MSTORE PUSH1 0xC PUSH1 0x24 DUP3 ADD MSTORE PUSH12 0x151C9A5C081A5CC8199D5B1B PUSH1 0xA2 SHL PUSH1 0x44 DUP3 ADD MSTORE PUSH1 0x64 ADD PUSH2 0x9A5 JUMP JUMPDEST PUSH1 0x0 DUP3 DUP2 MSTORE PUSH1 0x6 PUSH1 0x20 SWAP1 DUP2 MSTORE PUSH1 0x40 DUP1 DUP4 KECCAK256 CALLER DUP5 MSTORE SWAP1 SWAP2 MSTORE SWAP1 KECCAK256 PUSH1 0x2 ADD SLOAD PUSH1 0xFF AND ISZERO PUSH2 0xA9E JUMPI PUSH1 0x40 MLOAD PUSH3 0x461BCD PUSH1 0xE5 SHL DUP2 MSTORE PUSH1 0x20 PUSH1 0x4 DUP3 ADD MSTORE PUSH1 0xE PUSH1 0x24 DUP3 ADD MSTORE PUSH14 0x105B1C9958591E481A9BDA5B9959 PUSH1 0x92 SHL PUSH1 0x44 DUP3 ADD MSTORE PUSH1 0x64 ADD PUSH2 0x9A5 JUMP JUMPDEST PUSH3 0x93A80 DUP2 PUSH1 0x4 ADD SLOAD PUSH2 0xAB1 SWAP2 SWAP1 PUSH2 0x2771 JUMP JUMPDEST TIMESTAMP LT PUSH2 0xAF4 JUMPI PUSH1 0x40 MLOAD PUSH3 0x461BCD PUSH1 0xE5 SHL DUP2 MSTORE PUSH1 0x20 PUSH1 0x4 DUP3 ADD MSTORE PUSH1 0x12 PUSH1 0x24 DUP3 ADD MSTORE PUSH18 0x151BDBC818DB1BDCD9481D1BC81CDD185C9D PUSH1 0x72 SHL PUSH1 0x44 DUP3 ADD MSTORE PUSH1 0x64 ADD PUSH2 0x9A5 JUMP JUMPDEST PUSH1 0x40 DUP1 MLOAD PUSH1 0xE0 DUP2 ADD DUP3 MSTORE CALLER DUP1 DUP3 MSTORE CALLVALUE PUSH1 0x20 DUP1 DUP5 ADD SWAP2 DUP3 MSTORE PUSH1 0x1 DUP5 DUP7 ADD DUP2 DUP2 MSTORE PUSH1 0x0 PUSH1 0x60 DUP8 ADD DUP2 DUP2 MSTORE PUSH1 0x80 DUP9 ADD DUP3 DUP2 MSTORE PUSH1 0xA0 DUP10 ADD DUP4 DUP2 MSTORE PUSH1 0xC0 DUP11 ADD DUP5 DUP2 MSTORE DUP14 DUP6 MSTORE PUSH1 0x6 DUP9 MSTORE DUP12 DUP6 KECCAK256 DUP11 DUP7 MSTORE DUP9 MSTORE DUP12 DUP6 KECCAK256 SWAP11 MLOAD DUP12 SLOAD PUSH1 0x1 PUSH1 0x1 PUSH1 0xA0 SHL SUB SWAP2 SWAP1 SWAP2 AND PUSH1 0x1 PUSH1 0x1 PUSH1 0xA0 SHL SUB NOT SWAP2 DUP3 AND OR DUP13 SSTORE SWAP9 MLOAD DUP12 DUP9 ADD SSTORE SWAP5 MLOAD PUSH1 0x2 DUP12 ADD DUP1 SLOAD SWAP5 MLOAD SWAP4 MLOAD ISZERO ISZERO PUSH3 0x10000 MUL PUSH3 0xFF0000 NOT SWAP5 ISZERO ISZERO PUSH2 0x100 MUL PUSH2 0xFF00 NOT SWAP4 ISZERO ISZERO SWAP4 SWAP1 SWAP4 AND PUSH2 0xFFFF NOT SWAP1 SWAP7 AND SWAP6 SWAP1 SWAP6 OR SWAP2 SWAP1 SWAP2 OR SWAP3 SWAP1 SWAP3 AND SWAP3 SWAP1 SWAP3 OR SWAP1 SSTORE MLOAD PUSH1 0x3 DUP9 ADD SSTORE SWAP1 MLOAD PUSH1 0x4 SWAP1 SWAP7 ADD SWAP6 SWAP1 SWAP6 SSTORE DUP8 DUP6 MSTORE PUSH1 0x7 DUP3 MSTORE SWAP5 DUP5 KECCAK256 DUP1 SLOAD SWAP6 DUP7 ADD DUP2 SSTORE DUP5 MSTORE DUP4 KECCAK256 SWAP1 SWAP4 ADD DUP1 SLOAD SWAP1 SWAP4 AND OR SWAP1 SWAP2 SSTORE PUSH1 0x8 DUP3 ADD DUP1 SLOAD SWAP2 PUSH2 0xBED DUP4 PUSH2 0x2784 JUMP JUMPDEST SWAP2 SWAP1 POP SSTORE POP CALLVALUE DUP2 PUSH1 0x7 ADD PUSH1 0x0 DUP3 DUP3 SLOAD PUSH2 0xC06 SWAP2 SWAP1 PUSH2 0x279D JUMP JUMPDEST SWAP1 SWAP2 SSTORE POP POP PUSH1 0x8 DUP2 ADD SLOAD PUSH1 0x3 GT PUSH2 0xC27 JUMPI PUSH1 0x6 DUP2 ADD DUP1 SLOAD PUSH1 0xFF NOT AND PUSH1 0x1 OR SWAP1 SSTORE JUMPDEST PUSH1 0x40 MLOAD CALLVALUE DUP2 MSTORE CALLER SWAP1 DUP4 SWAP1 PUSH32 0x338E0CD33C4E120AFCD73F43F082FD8940ED67AC35180D278D2EB4F3ED51D92E SWAP1 PUSH1 0x20 ADD PUSH1 0x40 MLOAD DUP1 SWAP2 SUB SWAP1 LOG3 POP PUSH2 0xC69 PUSH1 0x1 PUSH1 0x0 SSTORE JUMP JUMPDEST POP JUMP JUMPDEST PUSH1 0x0 PUSH2 0xC76 PUSH2 0x1FAB JUMP JUMPDEST PUSH1 0x0 DUP6 GT PUSH2 0xCBF JUMPI PUSH1 0x40 MLOAD PUSH3 0x461BCD PUSH1 0xE5 SHL DUP2 MSTORE PUSH1 0x20 PUSH1 0x4 DUP3 ADD MSTORE PUSH1 0x16 PUSH1 0x24 DUP3 ADD MSTORE PUSH22 0x5374616B65206D75737420626520706F736974697665 PUSH1 0x50 SHL PUSH1 0x44 DUP3 ADD MSTORE PUSH1 0x64 ADD PUSH2 0x9A5 JUMP JUMPDEST PUSH1 0x3 DUP5 LT ISZERO DUP1 ISZERO PUSH2 0xCD1 JUMPI POP PUSH1 0x8 DUP5 GT ISZERO JUMPDEST PUSH2 0xD1D JUMPI PUSH1 0x40 MLOAD PUSH3 0x461BCD PUSH1 0xE5 SHL DUP2 MSTORE PUSH1 0x20 PUSH1 0x4 DUP3 ADD MSTORE PUSH1 0x19 PUSH1 0x24 DUP3 ADD MSTORE PUSH32 0x496E76616C6964207061727469636970616E7420636F756E7400000000000000 PUSH1 0x44 DUP3 ADD MSTORE PUSH1 0x64 ADD PUSH2 0x9A5 JUMP JUMPDEST TIMESTAMP DUP4 GT PUSH2 0xD6C JUMPI PUSH1 0x40 MLOAD PUSH3 0x461BCD PUSH1 0xE5 SHL DUP2 MSTORE PUSH1 0x20 PUSH1 0x4 DUP3 ADD MSTORE PUSH1 0x19 PUSH1 0x24 DUP3 ADD MSTORE PUSH32 0x53746172742074696D65206D7573742062652066757475726500000000000000 PUSH1 0x44 DUP3 ADD MSTORE PUSH1 0x64 ADD PUSH2 0x9A5 JUMP JUMPDEST DUP3 DUP3 GT PUSH2 0xDBB JUMPI PUSH1 0x40 MLOAD PUSH3 0x461BCD PUSH1 0xE5 SHL DUP2 MSTORE PUSH1 0x20 PUSH1 0x4 DUP3 ADD MSTORE PUSH1 0x1C PUSH1 0x24 DUP3 ADD MSTORE PUSH32 0x456E642074696D65206D75737420626520616674657220737461727400000000 PUSH1 0x44 DUP3 ADD MSTORE PUSH1 0x64 ADD PUSH2 0x9A5 JUMP JUMPDEST PUSH1 0x4 DUP1 SLOAD SWAP1 PUSH1 0x0 PUSH2 0xDCB DUP4 PUSH2 0x2784 JUMP JUMPDEST SWAP1 SWAP2 SSTORE POP POP PUSH1 0x4 DUP1 SLOAD PUSH1 0x40 DUP1 MLOAD PUSH2 0x140 DUP2 ADD DUP3 MSTORE DUP3 DUP2 MSTORE CALLER PUSH1 0x20 DUP1 DUP4 ADD SWAP2 DUP3 MSTORE DUP3 DUP5 ADD DUP12 DUP2 MSTORE PUSH1 0x60 DUP5 ADD DUP12 DUP2 MSTORE PUSH1 0x80 DUP6 ADD DUP12 DUP2 MSTORE PUSH1 0xA0 DUP7 ADD DUP12 DUP2 MSTORE PUSH1 0x0 PUSH1 0xC0 DUP9 ADD DUP2 DUP2 MSTORE PUSH1 0xE0 DUP10 ADD DUP3 SWAP1 MSTORE PUSH2 0x100 DUP10 ADD DUP3 SWAP1 MSTORE PUSH2 0x120 DUP10 ADD DUP3 SWAP1 MSTORE DUP11 DUP3 MSTORE PUSH1 0x5 SWAP7 DUP8 SWAP1 MSTORE SWAP9 SWAP1 KECCAK256 DUP8 MLOAD DUP2 SSTORE SWAP6 MLOAD PUSH1 0x1 DUP1 DUP9 ADD DUP1 SLOAD PUSH1 0x1 PUSH1 0x1 PUSH1 0xA0 SHL SUB NOT AND PUSH1 0x1 PUSH1 0x1 PUSH1 0xA0 SHL SUB SWAP1 SWAP4 AND SWAP3 SWAP1 SWAP3 OR SWAP1 SWAP2 SSTORE SWAP4 MLOAD PUSH1 0x2 DUP8 ADD SSTORE SWAP2 MLOAD PUSH1 0x3 DUP7 ADD SSTORE MLOAD DUP5 DUP10 ADD SSTORE MLOAD SWAP2 DUP4 ADD SWAP2 SWAP1 SWAP2 SSTORE SWAP3 MLOAD PUSH1 0x6 DUP3 ADD DUP1 SLOAD SWAP6 SWAP7 SWAP4 SWAP6 SWAP3 SWAP5 SWAP2 SWAP4 SWAP1 SWAP3 PUSH1 0xFF NOT AND SWAP2 SWAP1 DUP5 SWAP1 DUP2 GT ISZERO PUSH2 0xE9F JUMPI PUSH2 0xE9F PUSH2 0x24A6 JUMP JUMPDEST MUL OR SWAP1 SSTORE POP PUSH1 0xE0 DUP3 ADD MLOAD PUSH1 0x7 DUP3 ADD SSTORE PUSH2 0x100 DUP3 ADD MLOAD PUSH1 0x8 DUP3 ADD SSTORE PUSH2 0x120 SWAP1 SWAP2 ADD MLOAD PUSH1 0x9 SWAP1 SWAP2 ADD DUP1 SLOAD PUSH1 0xFF NOT AND SWAP2 ISZERO ISZERO SWAP2 SWAP1 SWAP2 OR SWAP1 SSTORE PUSH2 0xEFE PUSH32 0x4D2E7A1E3F5DD6E203F087B15756CCF0E4CCD947FE1B639A38540089A1E47F63 CALLER PUSH2 0x1FD1 JUMP JUMPDEST POP PUSH1 0x40 MLOAD DUP7 DUP2 MSTORE CALLER SWAP1 DUP3 SWAP1 PUSH32 0x2AA6689A7861338405BC8AA2568B15D017A367C50C8BF69755E52FF789C72546 SWAP1 PUSH1 0x20 ADD PUSH1 0x40 MLOAD DUP1 SWAP2 SUB SWAP1 LOG3 SWAP6 SWAP5 POP POP POP POP POP JUMP JUMPDEST PUSH1 0x0 DUP3 DUP2 MSTORE PUSH1 0x5 PUSH1 0x20 MSTORE PUSH1 0x40 SWAP1 KECCAK256 PUSH1 0x1 PUSH1 0x6 DUP3 ADD SLOAD PUSH1 0xFF AND PUSH1 0x4 DUP2 GT ISZERO PUSH2 0xF68 JUMPI PUSH2 0xF68 PUSH2 0x24A6 JUMP JUMPDEST EQ PUSH2 0xF85 JUMPI PUSH1 0x40 MLOAD PUSH3 0x461BCD PUSH1 0xE5 SHL DUP2 MSTORE PUSH1 0x4 ADD PUSH2 0x9A5 SWAP1 PUSH2 0x27B0 JUMP JUMPDEST DUP1 PUSH1 0x4 ADD SLOAD TIMESTAMP LT ISZERO PUSH2 0xFCC JUMPI PUSH1 0x40 MLOAD PUSH3 0x461BCD PUSH1 0xE5 SHL DUP2 MSTORE PUSH1 0x20 PUSH1 0x4 DUP3 ADD MSTORE PUSH1 0x10 PUSH1 0x24 DUP3 ADD MSTORE PUSH16 0x151C9A5C081B9BDD081CDD185C9D1959 PUSH1 0x82 SHL PUSH1 0x44 DUP3 ADD MSTORE PUSH1 0x64 ADD PUSH2 0x9A5 JUMP JUMPDEST PUSH1 0x5 DUP2 ADD SLOAD PUSH2 0xFDE SWAP1 PUSH3 0x15180 PUSH2 0x279D JUMP JUMPDEST TIMESTAMP GT ISZERO PUSH2 0x1026 JUMPI PUSH1 0x40 MLOAD PUSH3 0x461BCD PUSH1 0xE5 SHL DUP2 MSTORE PUSH1 0x20 PUSH1 0x4 DUP3 ADD MSTORE PUSH1 0x16 PUSH1 0x24 DUP3 ADD MSTORE PUSH22 0x10DA1958DACB5A5B881DDA5B991BDDC818DB1BDCD959 PUSH1 0x52 SHL PUSH1 0x44 DUP3 ADD MSTORE PUSH1 0x64 ADD PUSH2 0x9A5 JUMP JUMPDEST PUSH1 0x0 DUP4 DUP2 MSTORE PUSH1 0x6 PUSH1 0x20 SWAP1 DUP2 MSTORE PUSH1 0x40 DUP1 DUP4 KECCAK256 CALLER DUP5 MSTORE SWAP1 SWAP2 MSTORE SWAP1 KECCAK256 PUSH1 0x2 DUP2 ADD SLOAD PUSH1 0xFF AND PUSH2 0x1063 JUMPI PUSH1 0x40 MLOAD PUSH3 0x461BCD PUSH1 0xE5 SHL DUP2 MSTORE PUSH1 0x4 ADD PUSH2 0x9A5 SWAP1 PUSH2 0x27D9 JUMP JUMPDEST PUSH1 0x2 DUP2 ADD SLOAD PUSH2 0x100 SWAP1 DIV PUSH1 0xFF AND ISZERO PUSH2 0x10B1 JUMPI PUSH1 0x40 MLOAD PUSH3 0x461BCD PUSH1 0xE5 SHL DUP2 MSTORE PUSH1 0x20 PUSH1 0x4 DUP3 ADD MSTORE PUSH1 0x11 PUSH1 0x24 DUP3 ADD MSTORE PUSH17 0x105B1C9958591E4818DBDB999A5C9B5959 PUSH1 0x7A SHL PUSH1 0x44 DUP3 ADD MSTORE PUSH1 0x64 ADD PUSH2 0x9A5 JUMP JUMPDEST PUSH1 0x2 DUP2 ADD DUP1 SLOAD PUSH2 0xFF00 NOT AND PUSH2 0x100 OR SWAP1 SSTORE PUSH1 0x3 DUP2 ADD DUP4 SWAP1 SSTORE TIMESTAMP PUSH1 0x4 DUP3 ADD SSTORE PUSH1 0x40 MLOAD CALLER SWAP1 DUP6 SWAP1 PUSH32 0x430E77D45AE48215E70EE9BCDBB9C7CCD0D396FB46535FAD0FCE952272C4BB09 SWAP1 PUSH2 0x1105 SWAP1 DUP8 DUP2 MSTORE PUSH1 0x20 ADD SWAP1 JUMP JUMPDEST PUSH1 0x40 MLOAD DUP1 SWAP2 SUB SWAP1 LOG3 POP POP POP POP JUMP JUMPDEST PUSH1 0x0 DUP3 DUP2 MSTORE PUSH1 0x1 PUSH1 0x20 DUP2 SWAP1 MSTORE PUSH1 0x40 SWAP1 SWAP2 KECCAK256 ADD SLOAD PUSH2 0x112F DUP2 PUSH2 0x2006 JUMP JUMPDEST PUSH2 0x1139 DUP4 DUP4 PUSH2 0x1FD1 JUMP JUMPDEST POP POP POP POP JUMP JUMPDEST PUSH1 0x1 PUSH1 0x1 PUSH1 0xA0 SHL SUB DUP2 AND CALLER EQ PUSH2 0x1168 JUMPI PUSH1 0x40 MLOAD PUSH4 0x334BD919 PUSH1 0xE1 SHL DUP2 MSTORE PUSH1 0x4 ADD PUSH1 0x40 MLOAD DUP1 SWAP2 SUB SWAP1 REVERT JUMPDEST PUSH2 0x1172 DUP3 DUP3 PUSH2 0x2010 JUMP JUMPDEST POP POP POP JUMP JUMPDEST PUSH1 0x0 DUP1 MLOAD PUSH1 0x20 PUSH2 0x2899 DUP4 CODECOPY DUP2 MLOAD SWAP2 MSTORE PUSH2 0x118F DUP2 PUSH2 0x2006 JUMP JUMPDEST PUSH2 0xC69 PUSH2 0x203D JUMP JUMPDEST PUSH1 0x0 DUP4 DUP2 MSTORE PUSH1 0x5 PUSH1 0x20 MSTORE PUSH1 0x40 SWAP1 KECCAK256 PUSH1 0x1 DUP2 ADD SLOAD PUSH1 0x1 PUSH1 0x1 PUSH1 0xA0 SHL SUB AND CALLER EQ DUP1 PUSH2 0x11D3 JUMPI POP PUSH2 0x11D3 PUSH1 0x0 DUP1 MLOAD PUSH1 0x20 PUSH2 0x2899 DUP4 CODECOPY DUP2 MLOAD SWAP2 MSTORE CALLER PUSH2 0x1974 JUMP JUMPDEST PUSH2 0x1210 JUMPI PUSH1 0x40 MLOAD PUSH3 0x461BCD PUSH1 0xE5 SHL DUP2 MSTORE PUSH1 0x20 PUSH1 0x4 DUP3 ADD MSTORE PUSH1 0xE PUSH1 0x24 DUP3 ADD MSTORE PUSH14 0x139BDD08185D5D1A1BDC9A5E9959 PUSH1 0x92 SHL PUSH1 0x44 DUP3 ADD MSTORE PUSH1 0x64 ADD PUSH2 0x9A5 JUMP JUMPDEST PUSH1 0x0 PUSH1 0x6 DUP3 ADD SLOAD PUSH1 0xFF AND PUSH1 0x4 DUP2 GT ISZERO PUSH2 0x122B JUMPI PUSH2 0x122B PUSH2 0x24A6 JUMP JUMPDEST EQ DUP1 PUSH2 0x124F JUMPI POP PUSH1 0x1 PUSH1 0x6 DUP3 ADD SLOAD PUSH1 0xFF AND PUSH1 0x4 DUP2 GT ISZERO PUSH2 0x124D JUMPI PUSH2 0x124D PUSH2 0x24A6 JUMP JUMPDEST EQ JUMPDEST PUSH2 0x128B JUMPI PUSH1 0x40 MLOAD PUSH3 0x461BCD PUSH1 0xE5 SHL DUP2 MSTORE PUSH1 0x20 PUSH1 0x4 DUP3 ADD MSTORE PUSH1 0xD PUSH1 0x24 DUP3 ADD MSTORE PUSH13 0x10D85B9B9BDD0818D85B98D95B PUSH1 0x9A SHL PUSH1 0x44 DUP3 ADD MSTORE PUSH1 0x64 ADD PUSH2 0x9A5 JUMP JUMPDEST DUP1 PUSH1 0x4 ADD SLOAD TIMESTAMP LT PUSH2 0x12D5 JUMPI PUSH1 0x40 MLOAD PUSH3 0x461BCD PUSH1 0xE5 SHL DUP2 MSTORE PUSH1 0x20 PUSH1 0x4 DUP3 ADD MSTORE PUSH1 0x14 PUSH1 0x24 DUP3 ADD MSTORE PUSH20 0x151C9A5C08185B1C9958591E481CDD185C9D1959 PUSH1 0x62 SHL PUSH1 0x44 DUP3 ADD MSTORE PUSH1 0x64 ADD PUSH2 0x9A5 JUMP JUMPDEST PUSH1 0x6 DUP2 ADD DUP1 SLOAD PUSH1 0xFF NOT AND PUSH1 0x3 OR SWAP1 SSTORE PUSH1 0x0 DUP5 DUP2 MSTORE PUSH1 0x7 PUSH1 0x20 SWAP1 DUP2 MSTORE PUSH1 0x40 DUP1 DUP4 KECCAK256 DUP1 SLOAD DUP3 MLOAD DUP2 DUP6 MUL DUP2 ADD DUP6 ADD SWAP1 SWAP4 MSTORE DUP1 DUP4 MSTORE SWAP2 SWAP3 SWAP1 SWAP2 SWAP1 DUP4 ADD DUP3 DUP3 DUP1 ISZERO PUSH2 0x1344 JUMPI PUSH1 0x20 MUL DUP3 ADD SWAP2 SWAP1 PUSH1 0x0 MSTORE PUSH1 0x20 PUSH1 0x0 KECCAK256 SWAP1 JUMPDEST DUP2 SLOAD PUSH1 0x1 PUSH1 0x1 PUSH1 0xA0 SHL SUB AND DUP2 MSTORE PUSH1 0x1 SWAP1 SWAP2 ADD SWAP1 PUSH1 0x20 ADD DUP1 DUP4 GT PUSH2 0x1326 JUMPI JUMPDEST POP POP POP POP POP SWAP1 POP PUSH1 0x0 JUMPDEST DUP2 MLOAD DUP2 LT ISZERO PUSH2 0x1458 JUMPI PUSH1 0x0 DUP3 DUP3 DUP2 MLOAD DUP2 LT PUSH2 0x136B JUMPI PUSH2 0x136B PUSH2 0x2804 JUMP JUMPDEST PUSH1 0x20 SWAP1 DUP2 MUL SWAP2 SWAP1 SWAP2 ADD DUP2 ADD MLOAD PUSH1 0x0 DUP10 DUP2 MSTORE PUSH1 0x6 DUP4 MSTORE PUSH1 0x40 DUP1 DUP3 KECCAK256 PUSH1 0x1 PUSH1 0x1 PUSH1 0xA0 SHL SUB DUP5 AND DUP4 MSTORE SWAP1 SWAP4 MSTORE SWAP2 SWAP1 SWAP2 KECCAK256 PUSH1 0x1 DUP2 ADD SLOAD SWAP2 SWAP3 POP SWAP1 ISZERO PUSH2 0x1443 JUMPI PUSH1 0x1 DUP2 ADD SLOAD PUSH1 0x40 MLOAD PUSH1 0x0 SWAP2 PUSH1 0x1 PUSH1 0x1 PUSH1 0xA0 SHL SUB DUP6 AND SWAP2 DUP4 DUP2 DUP2 DUP2 DUP6 DUP8 GAS CALL SWAP3 POP POP POP RETURNDATASIZE DUP1 PUSH1 0x0 DUP2 EQ PUSH2 0x13F4 JUMPI PUSH1 0x40 MLOAD SWAP2 POP PUSH1 0x1F NOT PUSH1 0x3F RETURNDATASIZE ADD AND DUP3 ADD PUSH1 0x40 MSTORE RETURNDATASIZE DUP3 MSTORE RETURNDATASIZE PUSH1 0x0 PUSH1 0x20 DUP5 ADD RETURNDATACOPY PUSH2 0x13F9 JUMP JUMPDEST PUSH1 0x60 SWAP2 POP JUMPDEST POP POP SWAP1 POP DUP1 PUSH2 0x143A JUMPI PUSH1 0x40 MLOAD PUSH3 0x461BCD PUSH1 0xE5 SHL DUP2 MSTORE PUSH1 0x20 PUSH1 0x4 DUP3 ADD MSTORE PUSH1 0xD PUSH1 0x24 DUP3 ADD MSTORE PUSH13 0x1499599D5B990819985A5B1959 PUSH1 0x9A SHL PUSH1 0x44 DUP3 ADD MSTORE PUSH1 0x64 ADD PUSH2 0x9A5 JUMP JUMPDEST POP PUSH1 0x0 PUSH1 0x1 DUP3 ADD SSTORE JUMPDEST POP POP DUP1 DUP1 PUSH2 0x1450 SWAP1 PUSH2 0x2784 JUMP JUMPDEST SWAP2 POP POP PUSH2 0x134E JUMP JUMPDEST POP DUP5 PUSH32 0xCC974A8ED71442B832B78DECD00A1FA53EBB6889C70A2EFFB3275CE8E6E94F6 DUP6 DUP6 PUSH1 0x40 MLOAD PUSH2 0x148B SWAP3 SWAP2 SWAP1 PUSH2 0x281A JUMP JUMPDEST PUSH1 0x40 MLOAD DUP1 SWAP2 SUB SWAP1 LOG2 POP POP POP POP POP JUMP JUMPDEST PUSH1 0x0 DUP2 DUP2 MSTORE PUSH1 0x5 PUSH1 0x20 SWAP1 DUP2 MSTORE PUSH1 0x40 DUP1 DUP4 KECCAK256 PUSH1 0x6 DUP4 MSTORE DUP2 DUP5 KECCAK256 CALLER DUP6 MSTORE SWAP1 SWAP3 MSTORE SWAP1 SWAP2 KECCAK256 PUSH1 0x2 DUP2 ADD SLOAD PUSH1 0xFF AND PUSH2 0x14DF JUMPI PUSH1 0x40 MLOAD PUSH3 0x461BCD PUSH1 0xE5 SHL DUP2 MSTORE PUSH1 0x4 ADD PUSH2 0x9A5 SWAP1 PUSH2 0x27D9 JUMP JUMPDEST PUSH1 0x1 PUSH1 0x6 DUP4 ADD SLOAD PUSH1 0xFF AND PUSH1 0x4 DUP2 GT ISZERO PUSH2 0x14FA JUMPI PUSH2 0x14FA PUSH2 0x24A6 JUMP JUMPDEST EQ PUSH2 0x1517 JUMPI PUSH1 0x40 MLOAD PUSH3 0x461BCD PUSH1 0xE5 SHL DUP2 MSTORE PUSH1 0x4 ADD PUSH2 0x9A5 SWAP1 PUSH2 0x27B0 JUMP JUMPDEST PUSH1 0x9 DUP3 ADD SLOAD PUSH1 0xFF AND ISZERO PUSH2 0x155D JUMPI PUSH1 0x40 MLOAD PUSH3 0x461BCD PUSH1 0xE5 SHL DUP2 MSTORE PUSH1 0x20 PUSH1 0x4 DUP3 ADD MSTORE PUSH1 0xE PUSH1 0x24 DUP3 ADD MSTORE PUSH14 0x20B63932B0B23C90333937BD32B7 PUSH1 0x91 SHL PUSH1 0x44 DUP3 ADD MSTORE PUSH1 0x64 ADD PUSH2 0x9A5 JUMP JUMPDEST PUSH1 0x9 DUP3 ADD DUP1 SLOAD PUSH1 0xFF NOT SWAP1 DUP2 AND PUSH1 0x1 OR SWAP1 SWAP2 SSTORE PUSH1 0x6 DUP4 ADD DUP1 SLOAD SWAP1 SWAP2 AND PUSH1 0x4 OR SWAP1 SSTORE PUSH1 0x40 MLOAD CALLER SWAP1 DUP5 SWAP1 PUSH32 0x11215F0D387BDE1F67E012B0EBEF8CAFC0686C6533B6AFBF73FDDC814ECACBFF SWAP1 PUSH1 0x0 SWAP1 LOG3 POP POP POP JUMP JUMPDEST PUSH1 0x0 DUP2 DUP2 MSTORE PUSH1 0x7 PUSH1 0x20 SWAP1 DUP2 MSTORE PUSH1 0x40 SWAP2 DUP3 SWAP1 KECCAK256 DUP1 SLOAD DUP4 MLOAD DUP2 DUP5 MUL DUP2 ADD DUP5 ADD SWAP1 SWAP5 MSTORE DUP1 DUP5 MSTORE PUSH1 0x60 SWAP4 SWAP3 DUP4 ADD DUP3 DUP3 DUP1 ISZERO PUSH2 0x160F JUMPI PUSH1 0x20 MUL DUP3 ADD SWAP2 SWAP1 PUSH1 0x0 MSTORE PUSH1 0x20 PUSH1 0x0 KECCAK256 SWAP1 JUMPDEST DUP2 SLOAD PUSH1 0x1 PUSH1 0x1 PUSH1 0xA0 SHL SUB AND DUP2 MSTORE PUSH1 0x1 SWAP1 SWAP2 ADD SWAP1 PUSH1 0x20 ADD DUP1 DUP4 GT PUSH2 0x15F1 JUMPI JUMPDEST POP POP POP POP POP SWAP1 POP SWAP2 SWAP1 POP JUMP JUMPDEST PUSH1 0x0 DUP1 MLOAD PUSH1 0x20 PUSH2 0x2899 DUP4 CODECOPY DUP2 MLOAD SWAP2 MSTORE PUSH2 0x1633 DUP2 PUSH2 0x2006 JUMP JUMPDEST PUSH2 0xC69 PUSH2 0x208F JUMP JUMPDEST PUSH1 0x0 DUP1 MLOAD PUSH1 0x20 PUSH2 0x2899 DUP4 CODECOPY DUP2 MLOAD SWAP2 MSTORE PUSH2 0x1653 DUP2 PUSH2 0x2006 JUMP JUMPDEST PUSH1 0x0 DUP4 DUP2 MSTORE PUSH1 0x5 PUSH1 0x20 MSTORE PUSH1 0x40 SWAP1 KECCAK256 PUSH1 0x4 PUSH1 0x6 DUP3 ADD SLOAD PUSH1 0xFF AND PUSH1 0x4 DUP2 GT ISZERO PUSH2 0x167C JUMPI PUSH2 0x167C PUSH2 0x24A6 JUMP JUMPDEST EQ PUSH2 0x16BF JUMPI PUSH1 0x40 MLOAD PUSH3 0x461BCD PUSH1 0xE5 SHL DUP2 MSTORE PUSH1 0x20 PUSH1 0x4 DUP3 ADD MSTORE PUSH1 0x13 PUSH1 0x24 DUP3 ADD MSTORE PUSH19 0x54726970206E6F7420696E2064697370757465 PUSH1 0x68 SHL PUSH1 0x44 DUP3 ADD MSTORE PUSH1 0x64 ADD PUSH2 0x9A5 JUMP JUMPDEST PUSH1 0x0 DUP5 DUP2 MSTORE PUSH1 0x6 PUSH1 0x20 SWAP1 DUP2 MSTORE PUSH1 0x40 DUP1 DUP4 KECCAK256 PUSH1 0x1 PUSH1 0x1 PUSH1 0xA0 SHL SUB DUP8 AND DUP5 MSTORE SWAP1 SWAP2 MSTORE SWAP1 KECCAK256 PUSH1 0x2 DUP2 ADD SLOAD PUSH1 0xFF AND PUSH2 0x1705 JUMPI PUSH1 0x40 MLOAD PUSH3 0x461BCD PUSH1 0xE5 SHL DUP2 MSTORE PUSH1 0x4 ADD PUSH2 0x9A5 SWAP1 PUSH2 0x27D9 JUMP JUMPDEST PUSH1 0x2 DUP2 ADD SLOAD PUSH3 0x10000 SWAP1 DIV PUSH1 0xFF AND ISZERO PUSH2 0x1752 JUMPI PUSH1 0x40 MLOAD PUSH3 0x461BCD PUSH1 0xE5 SHL DUP2 MSTORE PUSH1 0x20 PUSH1 0x4 DUP3 ADD MSTORE PUSH1 0xF PUSH1 0x24 DUP3 ADD MSTORE PUSH15 0x105B1C9958591E481CDB185CDA1959 PUSH1 0x8A SHL PUSH1 0x44 DUP3 ADD MSTORE PUSH1 0x64 ADD PUSH2 0x9A5 JUMP JUMPDEST PUSH1 0x2 DUP2 ADD DUP1 SLOAD PUSH3 0xFF0000 NOT AND PUSH3 0x10000 OR SWAP1 SSTORE PUSH1 0x1 DUP2 DUP2 ADD SLOAD PUSH1 0x8 DUP5 ADD SLOAD SWAP1 SWAP2 PUSH1 0x0 SWAP2 PUSH2 0x177F SWAP2 SWAP1 PUSH2 0x2771 JUMP JUMPDEST SWAP1 POP DUP1 ISZERO PUSH2 0x1908 JUMPI PUSH1 0x0 PUSH2 0x1793 DUP3 DUP5 PUSH2 0x2849 JUMP JUMPDEST PUSH1 0x0 DUP10 DUP2 MSTORE PUSH1 0x7 PUSH1 0x20 SWAP1 DUP2 MSTORE PUSH1 0x40 DUP1 DUP4 KECCAK256 DUP1 SLOAD DUP3 MLOAD DUP2 DUP6 MUL DUP2 ADD DUP6 ADD SWAP1 SWAP4 MSTORE DUP1 DUP4 MSTORE SWAP5 SWAP6 POP SWAP3 SWAP4 SWAP1 SWAP3 SWAP2 DUP4 ADD DUP3 DUP3 DUP1 ISZERO PUSH2 0x17F6 JUMPI PUSH1 0x20 MUL DUP3 ADD SWAP2 SWAP1 PUSH1 0x0 MSTORE PUSH1 0x20 PUSH1 0x0 KECCAK256 SWAP1 JUMPDEST DUP2 SLOAD PUSH1 0x1 PUSH1 0x1 PUSH1 0xA0 SHL SUB AND DUP2 MSTORE PUSH1 0x1 SWAP1 SWAP2 ADD SWAP1 PUSH1 0x20 ADD DUP1 DUP4 GT PUSH2 0x17D8 JUMPI JUMPDEST POP POP POP POP POP SWAP1 POP PUSH1 0x0 JUMPDEST DUP2 MLOAD DUP2 LT ISZERO PUSH2 0x1904 JUMPI DUP9 PUSH1 0x1 PUSH1 0x1 PUSH1 0xA0 SHL SUB AND DUP3 DUP3 DUP2 MLOAD DUP2 LT PUSH2 0x1825 JUMPI PUSH2 0x1825 PUSH2 0x2804 JUMP JUMPDEST PUSH1 0x20 MUL PUSH1 0x20 ADD ADD MLOAD PUSH1 0x1 PUSH1 0x1 PUSH1 0xA0 SHL SUB AND EQ PUSH2 0x18F2 JUMPI PUSH1 0x0 DUP3 DUP3 DUP2 MLOAD DUP2 LT PUSH2 0x184F JUMPI PUSH2 0x184F PUSH2 0x2804 JUMP JUMPDEST PUSH1 0x20 MUL PUSH1 0x20 ADD ADD MLOAD PUSH1 0x1 PUSH1 0x1 PUSH1 0xA0 SHL SUB AND DUP5 PUSH1 0x40 MLOAD PUSH1 0x0 PUSH1 0x40 MLOAD DUP1 DUP4 SUB DUP2 DUP6 DUP8 GAS CALL SWAP3 POP POP POP RETURNDATASIZE DUP1 PUSH1 0x0 DUP2 EQ PUSH2 0x18A1 JUMPI PUSH1 0x40 MLOAD SWAP2 POP PUSH1 0x1F NOT PUSH1 0x3F RETURNDATASIZE ADD AND DUP3 ADD PUSH1 0x40 MSTORE RETURNDATASIZE DUP3 MSTORE RETURNDATASIZE PUSH1 0x0 PUSH1 0x20 DUP5 ADD RETURNDATACOPY PUSH2 0x18A6 JUMP JUMPDEST PUSH1 0x60 SWAP2 POP JUMPDEST POP POP SWAP1 POP DUP1 PUSH2 0x18F0 JUMPI PUSH1 0x40 MLOAD PUSH3 0x461BCD PUSH1 0xE5 SHL DUP2 MSTORE PUSH1 0x20 PUSH1 0x4 DUP3 ADD MSTORE PUSH1 0x16 PUSH1 0x24 DUP3 ADD MSTORE PUSH22 0x14995DD85C99081D1C985B9CD9995C8819985A5B1959 PUSH1 0x52 SHL PUSH1 0x44 DUP3 ADD MSTORE PUSH1 0x64 ADD PUSH2 0x9A5 JUMP JUMPDEST POP JUMPDEST DUP1 PUSH2 0x18FC DUP2 PUSH2 0x2784 JUMP JUMPDEST SWAP2 POP POP PUSH2 0x1800 JUMP JUMPDEST POP POP POP JUMPDEST DUP6 PUSH1 0x1 PUSH1 0x1 PUSH1 0xA0 SHL SUB AND DUP8 PUSH32 0x22D98087E73327C576741A1D13B818FA68A68AFA414E1C94D63AE6659D748C36 DUP5 PUSH1 0x40 MLOAD PUSH2 0x1944 SWAP2 DUP2 MSTORE PUSH1 0x20 ADD SWAP1 JUMP JUMPDEST PUSH1 0x40 MLOAD DUP1 SWAP2 SUB SWAP1 LOG3 POP POP POP POP POP POP POP JUMP JUMPDEST PUSH1 0x0 DUP3 DUP2 MSTORE PUSH1 0x2 PUSH1 0x20 MSTORE PUSH1 0x40 DUP2 KECCAK256 PUSH2 0x196D SWAP1 DUP4 PUSH2 0x20CC JUMP JUMPDEST SWAP4 SWAP3 POP POP POP JUMP JUMPDEST PUSH1 0x0 SWAP2 DUP3 MSTORE PUSH1 0x1 PUSH1 0x20 SWAP1 DUP2 MSTORE PUSH1 0x40 DUP1 DUP5 KECCAK256 PUSH1 0x1 PUSH1 0x1 PUSH1 0xA0 SHL SUB SWAP4 SWAP1 SWAP4 AND DUP5 MSTORE SWAP2 SWAP1 MSTORE SWAP1 KECCAK256 SLOAD PUSH1 0xFF AND SWAP1 JUMP JUMPDEST PUSH1 0x7 PUSH1 0x20 MSTORE DUP2 PUSH1 0x0 MSTORE PUSH1 0x40 PUSH1 0x0 KECCAK256 DUP2 DUP2 SLOAD DUP2 LT PUSH2 0x19BB JUMPI PUSH1 0x0 DUP1 REVERT JUMPDEST PUSH1 0x0 SWAP2 DUP3 MSTORE PUSH1 0x20 SWAP1 SWAP2 KECCAK256 ADD SLOAD PUSH1 0x1 PUSH1 0x1 PUSH1 0xA0 SHL SUB AND SWAP2 POP DUP3 SWAP1 POP JUMP JUMPDEST PUSH1 0x0 DUP2 DUP2 MSTORE PUSH1 0x2 PUSH1 0x20 MSTORE PUSH1 0x40 SWAP1 KECCAK256 PUSH1 0x60 SWAP1 PUSH2 0x91E SWAP1 PUSH2 0x20D8 JUMP JUMPDEST PUSH2 0x19F9 PUSH2 0x1F81 JUMP JUMPDEST PUSH1 0x0 DUP2 DUP2 MSTORE PUSH1 0x5 PUSH1 0x20 MSTORE PUSH1 0x40 SWAP1 KECCAK256 PUSH1 0x1 PUSH1 0x6 DUP3 ADD SLOAD PUSH1 0xFF AND PUSH1 0x4 DUP2 GT ISZERO PUSH2 0x1A22 JUMPI PUSH2 0x1A22 PUSH2 0x24A6 JUMP JUMPDEST EQ PUSH2 0x1A3F JUMPI PUSH1 0x40 MLOAD PUSH3 0x461BCD PUSH1 0xE5 SHL DUP2 MSTORE PUSH1 0x4 ADD PUSH2 0x9A5 SWAP1 PUSH2 0x27B0 JUMP JUMPDEST PUSH1 0x5 DUP2 ADD SLOAD PUSH2 0x1A51 SWAP1 PUSH3 0x2A300 PUSH2 0x279D JUMP JUMPDEST TIMESTAMP GT PUSH2 0x1A9F JUMPI PUSH1 0x40 MLOAD PUSH3 0x461BCD PUSH1 0xE5 SHL DUP2 MSTORE PUSH1 0x20 PUSH1 0x4 DUP3 ADD MSTORE PUSH1 0x1C PUSH1 0x24 DUP3 ADD MSTORE PUSH32 0x566572696669636174696F6E20706572696F64206E6F74206F76657200000000 PUSH1 0x44 DUP3 ADD MSTORE PUSH1 0x64 ADD PUSH2 0x9A5 JUMP JUMPDEST PUSH1 0x9 DUP2 ADD SLOAD PUSH1 0xFF AND ISZERO PUSH2 0x1AE5 JUMPI PUSH1 0x40 MLOAD PUSH3 0x461BCD PUSH1 0xE5 SHL DUP2 MSTORE PUSH1 0x20 PUSH1 0x4 DUP3 ADD MSTORE PUSH1 0xE PUSH1 0x24 DUP3 ADD MSTORE PUSH14 0x2A3934B81034B990333937BD32B7 PUSH1 0x91 SHL PUSH1 0x44 DUP3 ADD MSTORE PUSH1 0x64 ADD PUSH2 0x9A5 JUMP JUMPDEST PUSH1 0x6 DUP2 ADD DUP1 SLOAD PUSH1 0xFF NOT AND PUSH1 0x2 OR SWAP1 SSTORE PUSH1 0x7 DUP2 ADD SLOAD PUSH1 0x0 PUSH1 0x64 PUSH2 0x1B08 PUSH1 0x5 DUP5 PUSH2 0x286B JUMP JUMPDEST PUSH2 0x1B12 SWAP2 SWAP1 PUSH2 0x2849 JUMP JUMPDEST SWAP1 POP PUSH1 0x0 PUSH2 0x1B20 DUP3 DUP5 PUSH2 0x2771 JUMP JUMPDEST PUSH1 0x0 DUP7 DUP2 MSTORE PUSH1 0x7 PUSH1 0x20 SWAP1 DUP2 MSTORE PUSH1 0x40 DUP1 DUP4 KECCAK256 DUP1 SLOAD DUP3 MLOAD DUP2 DUP6 MUL DUP2 ADD DUP6 ADD SWAP1 SWAP4 MSTORE DUP1 DUP4 MSTORE SWAP5 SWAP6 POP SWAP3 SWAP4 DUP5 SWAP4 SWAP2 SWAP3 DUP4 ADD DUP3 DUP3 DUP1 ISZERO PUSH2 0x1B84 JUMPI PUSH1 0x20 MUL DUP3 ADD SWAP2 SWAP1 PUSH1 0x0 MSTORE PUSH1 0x20 PUSH1 0x0 KECCAK256 SWAP1 JUMPDEST DUP2 SLOAD PUSH1 0x1 PUSH1 0x1 PUSH1 0xA0 SHL SUB AND DUP2 MSTORE PUSH1 0x1 SWAP1 SWAP2 ADD SWAP1 PUSH1 0x20 ADD DUP1 DUP4 GT PUSH2 0x1B66 JUMPI JUMPDEST POP POP POP POP POP SWAP1 POP PUSH1 0x0 JUMPDEST DUP2 MLOAD DUP2 LT ISZERO PUSH2 0x1CA3 JUMPI PUSH1 0x0 DUP3 DUP3 DUP2 MLOAD DUP2 LT PUSH2 0x1BAB JUMPI PUSH2 0x1BAB PUSH2 0x2804 JUMP JUMPDEST PUSH1 0x20 SWAP1 DUP2 MUL SWAP2 SWAP1 SWAP2 ADD DUP2 ADD MLOAD PUSH1 0x0 DUP12 DUP2 MSTORE PUSH1 0x6 DUP4 MSTORE PUSH1 0x40 DUP1 DUP3 KECCAK256 PUSH1 0x1 PUSH1 0x1 PUSH1 0xA0 SHL SUB DUP5 AND DUP4 MSTORE SWAP1 SWAP4 MSTORE SWAP2 SWAP1 SWAP2 KECCAK256 PUSH1 0x2 DUP2 ADD SLOAD SWAP2 SWAP3 POP SWAP1 PUSH2 0x100 SWAP1 DIV PUSH1 0xFF AND ISZERO PUSH2 0x1C00 JUMPI DUP5 PUSH2 0x1BF8 DUP2 PUSH2 0x2784 JUMP JUMPDEST SWAP6 POP POP PUSH2 0x1C8E JUMP JUMPDEST PUSH1 0x2 DUP2 ADD SLOAD PUSH3 0x10000 SWAP1 DIV PUSH1 0xFF AND PUSH2 0x1C8E JUMPI PUSH1 0x2 DUP2 ADD DUP1 SLOAD PUSH3 0xFF0000 NOT AND PUSH3 0x10000 OR SWAP1 SSTORE PUSH1 0x1 DUP2 ADD SLOAD PUSH1 0x0 SWAP1 PUSH1 0x64 SWAP1 PUSH2 0x1C3C SWAP1 PUSH1 0x1E SWAP1 PUSH2 0x286B JUMP JUMPDEST PUSH2 0x1C46 SWAP2 SWAP1 PUSH2 0x2849 JUMP JUMPDEST SWAP1 POP DUP3 PUSH1 0x1 PUSH1 0x1 PUSH1 0xA0 SHL SUB AND DUP12 PUSH32 0x22D98087E73327C576741A1D13B818FA68A68AFA414E1C94D63AE6659D748C36 DUP4 PUSH1 0x40 MLOAD PUSH2 0x1C84 SWAP2 DUP2 MSTORE PUSH1 0x20 ADD SWAP1 JUMP JUMPDEST PUSH1 0x40 MLOAD DUP1 SWAP2 SUB SWAP1 LOG3 POP JUMPDEST POP POP DUP1 DUP1 PUSH2 0x1C9B SWAP1 PUSH2 0x2784 JUMP JUMPDEST SWAP2 POP POP PUSH2 0x1B8E JUMP JUMPDEST POP PUSH1 0x0 DUP3 GT PUSH2 0x1CF4 JUMPI PUSH1 0x40 MLOAD PUSH3 0x461BCD PUSH1 0xE5 SHL DUP2 MSTORE PUSH1 0x20 PUSH1 0x4 DUP3 ADD MSTORE PUSH1 0x19 PUSH1 0x24 DUP3 ADD MSTORE PUSH32 0x4E6F20636F6E6669726D6564207061727469636970616E747300000000000000 PUSH1 0x44 DUP3 ADD MSTORE PUSH1 0x64 ADD PUSH2 0x9A5 JUMP JUMPDEST PUSH1 0x0 PUSH2 0x1D00 DUP4 DUP6 PUSH2 0x2849 JUMP JUMPDEST SWAP1 POP PUSH1 0x0 JUMPDEST DUP3 MLOAD DUP2 LT ISZERO PUSH2 0x1E11 JUMPI PUSH1 0x0 DUP4 DUP3 DUP2 MLOAD DUP2 LT PUSH2 0x1D22 JUMPI PUSH2 0x1D22 PUSH2 0x2804 JUMP JUMPDEST PUSH1 0x20 SWAP1 DUP2 MUL SWAP2 SWAP1 SWAP2 ADD DUP2 ADD MLOAD PUSH1 0x0 DUP13 DUP2 MSTORE PUSH1 0x6 DUP4 MSTORE PUSH1 0x40 DUP1 DUP3 KECCAK256 PUSH1 0x1 PUSH1 0x1 PUSH1 0xA0 SHL SUB DUP5 AND DUP4 MSTORE SWAP1 SWAP4 MSTORE SWAP2 SWAP1 SWAP2 KECCAK256 PUSH1 0x2 DUP2 ADD SLOAD SWAP2 SWAP3 POP SWAP1 PUSH2 0x100 SWAP1 DIV PUSH1 0xFF AND ISZERO PUSH2 0x1DFC JUMPI PUSH1 0x0 DUP3 PUSH1 0x1 PUSH1 0x1 PUSH1 0xA0 SHL SUB AND DUP6 PUSH1 0x40 MLOAD PUSH1 0x0 PUSH1 0x40 MLOAD DUP1 DUP4 SUB DUP2 DUP6 DUP8 GAS CALL SWAP3 POP POP POP RETURNDATASIZE DUP1 PUSH1 0x0 DUP2 EQ PUSH2 0x1DB2 JUMPI PUSH1 0x40 MLOAD SWAP2 POP PUSH1 0x1F NOT PUSH1 0x3F RETURNDATASIZE ADD AND DUP3 ADD PUSH1 0x40 MSTORE RETURNDATASIZE DUP3 MSTORE RETURNDATASIZE PUSH1 0x0 PUSH1 0x20 DUP5 ADD RETURNDATACOPY PUSH2 0x1DB7 JUMP JUMPDEST PUSH1 0x60 SWAP2 POP JUMPDEST POP POP SWAP1 POP DUP1 PUSH2 0x1DFA JUMPI PUSH1 0x40 MLOAD PUSH3 0x461BCD PUSH1 0xE5 SHL DUP2 MSTORE PUSH1 0x20 PUSH1 0x4 DUP3 ADD MSTORE PUSH1 0xF PUSH1 0x24 DUP3 ADD MSTORE PUSH15 0x151C985B9CD9995C8819985A5B1959 PUSH1 0x8A SHL PUSH1 0x44 DUP3 ADD MSTORE PUSH1 0x64 ADD PUSH2 0x9A5 JUMP JUMPDEST POP JUMPDEST POP POP DUP1 DUP1 PUSH2 0x1E09 SWAP1 PUSH2 0x2784 JUMP JUMPDEST SWAP2 POP POP PUSH2 0x1D05 JUMP JUMPDEST POP PUSH1 0x0 PUSH2 0x1E2D PUSH1 0x0 DUP1 MLOAD PUSH1 0x20 PUSH2 0x2899 DUP4 CODECOPY DUP2 MLOAD SWAP2 MSTORE PUSH1 0x0 PUSH2 0x1955 JUMP JUMPDEST PUSH1 0x1 PUSH1 0x1 PUSH1 0xA0 SHL SUB AND DUP7 PUSH1 0x40 MLOAD PUSH1 0x0 PUSH1 0x40 MLOAD DUP1 DUP4 SUB DUP2 DUP6 DUP8 GAS CALL SWAP3 POP POP POP RETURNDATASIZE DUP1 PUSH1 0x0 DUP2 EQ PUSH2 0x1E77 JUMPI PUSH1 0x40 MLOAD SWAP2 POP PUSH1 0x1F NOT PUSH1 0x3F RETURNDATASIZE ADD AND DUP3 ADD PUSH1 0x40 MSTORE RETURNDATASIZE DUP3 MSTORE RETURNDATASIZE PUSH1 0x0 PUSH1 0x20 DUP5 ADD RETURNDATACOPY PUSH2 0x1E7C JUMP JUMPDEST PUSH1 0x60 SWAP2 POP JUMPDEST POP POP SWAP1 POP DUP1 PUSH2 0x1EC3 JUMPI PUSH1 0x40 MLOAD PUSH3 0x461BCD PUSH1 0xE5 SHL DUP2 MSTORE PUSH1 0x20 PUSH1 0x4 DUP3 ADD MSTORE PUSH1 0x13 PUSH1 0x24 DUP3 ADD MSTORE PUSH19 0x119959481D1C985B9CD9995C8819985A5B1959 PUSH1 0x6A SHL PUSH1 0x44 DUP3 ADD MSTORE PUSH1 0x64 ADD PUSH2 0x9A5 JUMP JUMPDEST DUP9 PUSH32 0xBE91C0E11AD7E25EE0E09AFB2468FA4A6003FF00EA555C21102764FA13A58B20 DUP9 PUSH1 0x40 MLOAD PUSH2 0x1EF5 SWAP2 DUP2 MSTORE PUSH1 0x20 ADD SWAP1 JUMP JUMPDEST PUSH1 0x40 MLOAD DUP1 SWAP2 SUB SWAP1 LOG2 POP POP POP POP POP POP POP POP PUSH2 0xC69 PUSH1 0x1 PUSH1 0x0 SSTORE JUMP JUMPDEST PUSH1 0x0 DUP2 DUP2 MSTORE PUSH1 0x2 PUSH1 0x20 MSTORE PUSH1 0x40 DUP2 KECCAK256 PUSH2 0x91E SWAP1 PUSH2 0x20E5 JUMP JUMPDEST PUSH1 0x0 DUP3 DUP2 MSTORE PUSH1 0x1 PUSH1 0x20 DUP2 SWAP1 MSTORE PUSH1 0x40 SWAP1 SWAP2 KECCAK256 ADD SLOAD PUSH2 0x1F42 DUP2 PUSH2 0x2006 JUMP JUMPDEST PUSH2 0x1139 DUP4 DUP4 PUSH2 0x2010 JUMP JUMPDEST PUSH1 0x0 PUSH1 0x1 PUSH1 0x1 PUSH1 0xE0 SHL SUB NOT DUP3 AND PUSH4 0x7965DB0B PUSH1 0xE0 SHL EQ DUP1 PUSH2 0x91E JUMPI POP PUSH4 0x1FFC9A7 PUSH1 0xE0 SHL PUSH1 0x1 PUSH1 0x1 PUSH1 0xE0 SHL SUB NOT DUP4 AND EQ PUSH2 0x91E JUMP JUMPDEST PUSH1 0x2 PUSH1 0x0 SLOAD SUB PUSH2 0x1FA4 JUMPI PUSH1 0x40 MLOAD PUSH4 0x3EE5AEB5 PUSH1 0xE0 SHL DUP2 MSTORE PUSH1 0x4 ADD PUSH1 0x40 MLOAD DUP1 SWAP2 SUB SWAP1 REVERT JUMPDEST PUSH1 0x2 PUSH1 0x0 SSTORE JUMP JUMPDEST PUSH1 0x3 SLOAD PUSH1 0xFF AND ISZERO PUSH2 0x1FCF JUMPI PUSH1 0x40 MLOAD PUSH4 0xD93C0665 PUSH1 0xE0 SHL DUP2 MSTORE PUSH1 0x4 ADD PUSH1 0x40 MLOAD DUP1 SWAP2 SUB SWAP1 REVERT JUMPDEST JUMP JUMPDEST PUSH1 0x0 DUP1 PUSH2 0x1FDE DUP5 DUP5 PUSH2 0x20EF JUMP JUMPDEST SWAP1 POP DUP1 ISZERO PUSH2 0x196D JUMPI PUSH1 0x0 DUP5 DUP2 MSTORE PUSH1 0x2 PUSH1 0x20 MSTORE PUSH1 0x40 SWAP1 KECCAK256 PUSH2 0x1FFE SWAP1 DUP5 PUSH2 0x2168 JUMP JUMPDEST POP SWAP4 SWAP3 POP POP POP JUMP JUMPDEST PUSH2 0xC69 DUP2 CALLER PUSH2 0x217D JUMP JUMPDEST PUSH1 0x0 DUP1 PUSH2 0x201D DUP5 DUP5 PUSH2 0x21BA JUMP JUMPDEST SWAP1 POP DUP1 ISZERO PUSH2 0x196D JUMPI PUSH1 0x0 DUP5 DUP2 MSTORE PUSH1 0x2 PUSH1 0x20 MSTORE PUSH1 0x40 SWAP1 KECCAK256 PUSH2 0x1FFE SWAP1 DUP5 PUSH2 0x2227 JUMP JUMPDEST PUSH2 0x2045 PUSH2 0x223C JUMP JUMPDEST PUSH1 0x3 DUP1 SLOAD PUSH1 0xFF NOT AND SWAP1 SSTORE PUSH32 0x5DB9EE0A495BF2E6FF9C91A7834C1BA4FDD244A5E8AA4E537BD38AEAE4B073AA CALLER JUMPDEST PUSH1 0x40 MLOAD PUSH1 0x1 PUSH1 0x1 PUSH1 0xA0 SHL SUB SWAP1 SWAP2 AND DUP2 MSTORE PUSH1 0x20 ADD PUSH1 0x40 MLOAD DUP1 SWAP2 SUB SWAP1 LOG1 JUMP JUMPDEST PUSH2 0x2097 PUSH2 0x1FAB JUMP JUMPDEST PUSH1 0x3 DUP1 SLOAD PUSH1 0xFF NOT AND PUSH1 0x1 OR SWAP1 SSTORE PUSH32 0x62E78CEA01BEE320CD4E420270B5EA74000D11B0C9F74754EBDBFC544B05A258 PUSH2 0x2072 CALLER SWAP1 JUMP JUMPDEST PUSH1 0x0 PUSH2 0x196D DUP4 DUP4 PUSH2 0x225F JUMP JUMPDEST PUSH1 0x60 PUSH1 0x0 PUSH2 0x196D DUP4 PUSH2 0x2289 JUMP JUMPDEST PUSH1 0x0 PUSH2 0x91E DUP3 SLOAD SWAP1 JUMP JUMPDEST PUSH1 0x0 PUSH2 0x20FB DUP4 DUP4 PUSH2 0x1974 JUMP JUMPDEST PUSH2 0x2160 JUMPI PUSH1 0x0 DUP4 DUP2 MSTORE PUSH1 0x1 PUSH1 0x20 DUP2 DUP2 MSTORE PUSH1 0x40 DUP1 DUP5 KECCAK256 PUSH1 0x1 PUSH1 0x1 PUSH1 0xA0 SHL SUB DUP8 AND DUP1 DUP7 MSTORE SWAP3 MSTORE DUP1 DUP5 KECCAK256 DUP1 SLOAD PUSH1 0xFF NOT AND SWAP1 SWAP4 OR SWAP1 SWAP3 SSTORE SWAP1 MLOAD CALLER SWAP3 DUP7 SWAP2 PUSH32 0x2F8788117E7EFF1D82E926EC794901D17C78024A50270940304540A733656F0D SWAP2 SWAP1 LOG4 POP PUSH1 0x1 PUSH2 0x91E JUMP JUMPDEST POP PUSH1 0x0 PUSH2 0x91E JUMP JUMPDEST PUSH1 0x0 PUSH2 0x196D DUP4 PUSH1 0x1 PUSH1 0x1 PUSH1 0xA0 SHL SUB DUP5 AND PUSH2 0x22E4 JUMP JUMPDEST PUSH2 0x2187 DUP3 DUP3 PUSH2 0x1974 JUMP JUMPDEST PUSH2 0x21B6 JUMPI PUSH1 0x40 MLOAD PUSH4 0xE2517D3F PUSH1 0xE0 SHL DUP2 MSTORE PUSH1 0x1 PUSH1 0x1 PUSH1 0xA0 SHL SUB DUP3 AND PUSH1 0x4 DUP3 ADD MSTORE PUSH1 0x24 DUP2 ADD DUP4 SWAP1 MSTORE PUSH1 0x44 ADD PUSH2 0x9A5 JUMP JUMPDEST POP POP JUMP JUMPDEST PUSH1 0x0 PUSH2 0x21C6 DUP4 DUP4 PUSH2 0x1974 JUMP JUMPDEST ISZERO PUSH2 0x2160 JUMPI PUSH1 0x0 DUP4 DUP2 MSTORE PUSH1 0x1 PUSH1 0x20 SWAP1 DUP2 MSTORE PUSH1 0x40 DUP1 DUP4 KECCAK256 PUSH1 0x1 PUSH1 0x1 PUSH1 0xA0 SHL SUB DUP7 AND DUP1 DUP6 MSTORE SWAP3 MSTORE DUP1 DUP4 KECCAK256 DUP1 SLOAD PUSH1 0xFF NOT AND SWAP1 SSTORE MLOAD CALLER SWAP3 DUP7 SWAP2 PUSH32 0xF6391F5C32D9C69D2A47EA670B442974B53935D1EDC7FD64EB21E047A839171B SWAP2 SWAP1 LOG4 POP PUSH1 0x1 PUSH2 0x91E JUMP JUMPDEST PUSH1 0x0 PUSH2 0x196D DUP4 PUSH1 0x1 PUSH1 0x1 PUSH1 0xA0 SHL SUB DUP5 AND PUSH2 0x232B JUMP JUMPDEST PUSH1 0x3 SLOAD PUSH1 0xFF AND PUSH2 0x1FCF JUMPI PUSH1 0x40 MLOAD PUSH4 0x8DFC202B PUSH1 0xE0 SHL DUP2 MSTORE PUSH1 0x4 ADD PUSH1 0x40 MLOAD DUP1 SWAP2 SUB SWAP1 REVERT JUMPDEST PUSH1 0x0 DUP3 PUSH1 0x0 ADD DUP3 DUP2 SLOAD DUP2 LT PUSH2 0x2276 JUMPI PUSH2 0x2276 PUSH2 0x2804 JUMP JUMPDEST SWAP1 PUSH1 0x0 MSTORE PUSH1 0x20 PUSH1 0x0 KECCAK256 ADD SLOAD SWAP1 POP SWAP3 SWAP2 POP POP JUMP JUMPDEST PUSH1 0x60 DUP2 PUSH1 0x0 ADD DUP1 SLOAD DUP1 PUSH1 0x20 MUL PUSH1 0x20 ADD PUSH1 0x40 MLOAD SWAP1 DUP2 ADD PUSH1 0x40 MSTORE DUP1 SWAP3 SWAP2 SWAP1 DUP2 DUP2 MSTORE PUSH1 0x20 ADD DUP3 DUP1 SLOAD DUP1 ISZERO PUSH2 0x160F JUMPI PUSH1 0x20 MUL DUP3 ADD SWAP2 SWAP1 PUSH1 0x0 MSTORE PUSH1 0x20 PUSH1 0x0 KECCAK256 SWAP1 JUMPDEST DUP2 SLOAD DUP2 MSTORE PUSH1 0x20 ADD SWAP1 PUSH1 0x1 ADD SWAP1 DUP1 DUP4 GT PUSH2 0x22C5 JUMPI POP POP POP POP POP SWAP1 POP SWAP2 SWAP1 POP JUMP JUMPDEST PUSH1 0x0 DUP2 DUP2 MSTORE PUSH1 0x1 DUP4 ADD PUSH1 0x20 MSTORE PUSH1 0x40 DUP2 KECCAK256 SLOAD PUSH2 0x2160 JUMPI POP DUP2 SLOAD PUSH1 0x1 DUP2 DUP2 ADD DUP5 SSTORE PUSH1 0x0 DUP5 DUP2 MSTORE PUSH1 0x20 DUP1 DUP3 KECCAK256 SWAP1 SWAP4 ADD DUP5 SWAP1 SSTORE DUP5 SLOAD DUP5 DUP3 MSTORE DUP3 DUP7 ADD SWAP1 SWAP4 MSTORE PUSH1 0x40 SWAP1 KECCAK256 SWAP2 SWAP1 SWAP2 SSTORE PUSH2 0x91E JUMP JUMPDEST PUSH1 0x0 DUP2 DUP2 MSTORE PUSH1 0x1 DUP4 ADD PUSH1 0x20 MSTORE PUSH1 0x40 DUP2 KECCAK256 SLOAD DUP1 ISZERO PUSH2 0x2414 JUMPI PUSH1 0x0 PUSH2 0x234F PUSH1 0x1 DUP4 PUSH2 0x2771 JUMP JUMPDEST DUP6 SLOAD SWAP1 SWAP2 POP PUSH1 0x0 SWAP1 PUSH2 0x2363 SWAP1 PUSH1 0x1 SWAP1 PUSH2 0x2771 JUMP JUMPDEST SWAP1 POP DUP1 DUP3 EQ PUSH2 0x23C8 JUMPI PUSH1 0x0 DUP7 PUSH1 0x0 ADD DUP3 DUP2 SLOAD DUP2 LT PUSH2 0x2383 JUMPI PUSH2 0x2383 PUSH2 0x2804 JUMP JUMPDEST SWAP1 PUSH1 0x0 MSTORE PUSH1 0x20 PUSH1 0x0 KECCAK256 ADD SLOAD SWAP1 POP DUP1 DUP8 PUSH1 0x0 ADD DUP5 DUP2 SLOAD DUP2 LT PUSH2 0x23A6 JUMPI PUSH2 0x23A6 PUSH2 0x2804 JUMP JUMPDEST PUSH1 0x0 SWAP2 DUP3 MSTORE PUSH1 0x20 DUP1 DUP4 KECCAK256 SWAP1 SWAP2 ADD SWAP3 SWAP1 SWAP3 SSTORE SWAP2 DUP3 MSTORE PUSH1 0x1 DUP9 ADD SWAP1 MSTORE PUSH1 0x40 SWAP1 KECCAK256 DUP4 SWAP1 SSTORE JUMPDEST DUP6 SLOAD DUP7 SWAP1 DUP1 PUSH2 0x23D9 JUMPI PUSH2 0x23D9 PUSH2 0x2882 JUMP JUMPDEST PUSH1 0x1 SWAP1 SUB DUP2 DUP2 SWAP1 PUSH1 0x0 MSTORE PUSH1 0x20 PUSH1 0x0 KECCAK256 ADD PUSH1 0x0 SWAP1 SSTORE SWAP1 SSTORE DUP6 PUSH1 0x1 ADD PUSH1 0x0 DUP7 DUP2 MSTORE PUSH1 0x20 ADD SWAP1 DUP2 MSTORE PUSH1 0x20 ADD PUSH1 0x0 KECCAK256 PUSH1 0x0 SWAP1 SSTORE PUSH1 0x1 SWAP4 POP POP POP POP PUSH2 0x91E JUMP JUMPDEST PUSH1 0x0 SWAP2 POP POP PUSH2 0x91E JUMP JUMPDEST PUSH1 0x40 MLOAD DUP1 PUSH2 0x140 ADD PUSH1 0x40 MSTORE DUP1 PUSH1 0x0 DUP2 MSTORE PUSH1 0x20 ADD PUSH1 0x0 PUSH1 0x1 PUSH1 0x1 PUSH1 0xA0 SHL SUB AND DUP2 MSTORE PUSH1 0x20 ADD PUSH1 0x0 DUP2 MSTORE PUSH1 0x20 ADD PUSH1 0x0 DUP2 MSTORE PUSH1 0x20 ADD PUSH1 0x0 DUP2 MSTORE PUSH1 0x20 ADD PUSH1 0x0 DUP2 MSTORE PUSH1 0x20 ADD PUSH1 0x0 PUSH1 0x4 DUP2 GT ISZERO PUSH2 0x2470 JUMPI PUSH2 0x2470 PUSH2 0x24A6 JUMP JUMPDEST DUP2 MSTORE PUSH1 0x20 ADD PUSH1 0x0 DUP2 MSTORE PUSH1 0x20 ADD PUSH1 0x0 DUP2 MSTORE PUSH1 0x20 ADD PUSH1 0x0 ISZERO ISZERO DUP2 MSTORE POP SWAP1 JUMP JUMPDEST PUSH1 0x0 PUSH1 0x20 DUP3 DUP5 SUB SLT ISZERO PUSH2 0x249F JUMPI PUSH1 0x0 DUP1 REVERT JUMPDEST POP CALLDATALOAD SWAP2 SWAP1 POP JUMP JUMPDEST PUSH4 0x4E487B71 PUSH1 0xE0 SHL PUSH1 0x0 MSTORE PUSH1 0x21 PUSH1 0x4 MSTORE PUSH1 0x24 PUSH1 0x0 REVERT JUMPDEST PUSH1 0x5 DUP2 LT PUSH2 0x24DA JUMPI PUSH4 0x4E487B71 PUSH1 0xE0 SHL PUSH1 0x0 MSTORE PUSH1 0x21 PUSH1 0x4 MSTORE PUSH1 0x24 PUSH1 0x0 REVERT JUMPDEST SWAP1 MSTORE JUMP JUMPDEST DUP2 MLOAD DUP2 MSTORE PUSH1 0x20 DUP1 DUP4 ADD MLOAD PUSH2 0x140 DUP4 ADD SWAP2 PUSH2 0x2502 SWAP1 DUP5 ADD DUP3 PUSH1 0x1 PUSH1 0x1 PUSH1 0xA0 SHL SUB AND SWAP1 MSTORE JUMP JUMPDEST POP PUSH1 0x40 DUP4 ADD MLOAD PUSH1 0x40 DUP4 ADD MSTORE PUSH1 0x60 DUP4 ADD MLOAD PUSH1 0x60 DUP4 ADD MSTORE PUSH1 0x80 DUP4 ADD MLOAD PUSH1 0x80 DUP4 ADD MSTORE PUSH1 0xA0 DUP4 ADD MLOAD PUSH1 0xA0 DUP4 ADD MSTORE PUSH1 0xC0 DUP4 ADD MLOAD PUSH2 0x253D PUSH1 0xC0 DUP5 ADD DUP3 PUSH2 0x24BC JUMP JUMPDEST POP PUSH1 0xE0 DUP4 DUP2 ADD MLOAD SWAP1 DUP4 ADD MSTORE PUSH2 0x100 DUP1 DUP5 ADD MLOAD SWAP1 DUP4 ADD MSTORE PUSH2 0x120 SWAP3 DUP4 ADD MLOAD ISZERO ISZERO SWAP3 SWAP1 SWAP2 ADD SWAP2 SWAP1 SWAP2 MSTORE SWAP1 JUMP JUMPDEST PUSH1 0x0 PUSH1 0x20 DUP3 DUP5 SUB SLT ISZERO PUSH2 0x2579 JUMPI PUSH1 0x0 DUP1 REVERT JUMPDEST DUP2 CALLDATALOAD PUSH1 0x1 PUSH1 0x1 PUSH1 0xE0 SHL SUB NOT DUP2 AND DUP2 EQ PUSH2 0x196D JUMPI PUSH1 0x0 DUP1 REVERT JUMPDEST DUP1 CALLDATALOAD PUSH1 0x1 PUSH1 0x1 PUSH1 0xA0 SHL SUB DUP2 AND DUP2 EQ PUSH2 0x25A8 JUMPI PUSH1 0x0 DUP1 REVERT JUMPDEST SWAP2 SWAP1 POP JUMP JUMPDEST PUSH1 0x0 DUP1 PUSH1 0x40 DUP4 DUP6 SUB SLT ISZERO PUSH2 0x25C0 JUMPI PUSH1 0x0 DUP1 REVERT JUMPDEST DUP3 CALLDATALOAD SWAP2 POP PUSH2 0x25D0 PUSH1 0x20 DUP5 ADD PUSH2 0x2591 JUMP JUMPDEST SWAP1 POP SWAP3 POP SWAP3 SWAP1 POP JUMP JUMPDEST PUSH1 0x0 DUP1 PUSH1 0x0 DUP1 PUSH1 0x80 DUP6 DUP8 SUB SLT ISZERO PUSH2 0x25EF JUMPI PUSH1 0x0 DUP1 REVERT JUMPDEST POP POP DUP3 CALLDATALOAD SWAP5 PUSH1 0x20 DUP5 ADD CALLDATALOAD SWAP5 POP PUSH1 0x40 DUP5 ADD CALLDATALOAD SWAP4 PUSH1 0x60 ADD CALLDATALOAD SWAP3 POP SWAP1 POP JUMP JUMPDEST PUSH1 0x0 DUP1 PUSH1 0x40 DUP4 DUP6 SUB SLT ISZERO PUSH2 0x261E JUMPI PUSH1 0x0 DUP1 REVERT JUMPDEST POP POP DUP1 CALLDATALOAD SWAP3 PUSH1 0x20 SWAP1 SWAP2 ADD CALLDATALOAD SWAP2 POP JUMP JUMPDEST PUSH1 0x0 DUP1 PUSH1 0x0 PUSH1 0x40 DUP5 DUP7 SUB SLT ISZERO PUSH2 0x2642 JUMPI PUSH1 0x0 DUP1 REVERT JUMPDEST DUP4 CALLDATALOAD SWAP3 POP PUSH1 0x20 DUP5 ADD CALLDATALOAD PUSH8 0xFFFFFFFFFFFFFFFF DUP1 DUP3 GT ISZERO PUSH2 0x2661 JUMPI PUSH1 0x0 DUP1 REVERT JUMPDEST DUP2 DUP7 ADD SWAP2 POP DUP7 PUSH1 0x1F DUP4 ADD SLT PUSH2 0x2675 JUMPI PUSH1 0x0 DUP1 REVERT JUMPDEST DUP2 CALLDATALOAD DUP2 DUP2 GT ISZERO PUSH2 0x2684 JUMPI PUSH1 0x0 DUP1 REVERT JUMPDEST DUP8 PUSH1 0x20 DUP3 DUP6 ADD ADD GT ISZERO PUSH2 0x2696 JUMPI PUSH1 0x0 DUP1 REVERT JUMPDEST PUSH1 0x20 DUP4 ADD SWAP5 POP DUP1 SWAP4 POP POP POP POP SWAP3 POP SWAP3 POP SWAP3 JUMP JUMPDEST PUSH1 0x20 DUP1 DUP3 MSTORE DUP3 MLOAD DUP3 DUP3 ADD DUP2 SWAP1 MSTORE PUSH1 0x0 SWAP2 SWAP1 DUP5 DUP3 ADD SWAP1 PUSH1 0x40 DUP6 ADD SWAP1 DUP5 JUMPDEST DUP2 DUP2 LT ISZERO PUSH2 0x26EA JUMPI DUP4 MLOAD PUSH1 0x1 PUSH1 0x1 PUSH1 0xA0 SHL SUB AND DUP4 MSTORE SWAP3 DUP5 ADD SWAP3 SWAP2 DUP5 ADD SWAP2 PUSH1 0x1 ADD PUSH2 0x26C5 JUMP JUMPDEST POP SWAP1 SWAP7 SWAP6 POP POP POP POP POP POP JUMP JUMPDEST DUP11 DUP2 MSTORE PUSH1 0x1 PUSH1 0x1 PUSH1 0xA0 SHL SUB DUP11 AND PUSH1 0x20 DUP3 ADD MSTORE PUSH1 0x40 DUP2 ADD DUP10 SWAP1 MSTORE PUSH1 0x60 DUP2 ADD DUP9 SWAP1 MSTORE PUSH1 0x80 DUP2 ADD DUP8 SWAP1 MSTORE PUSH1 0xA0 DUP2 ADD DUP7 SWAP1 MSTORE PUSH2 0x140 DUP2 ADD PUSH2 0x2736 PUSH1 0xC0 DUP4 ADD DUP8 PUSH2 0x24BC JUMP JUMPDEST DUP5 PUSH1 0xE0 DUP4 ADD MSTORE DUP4 PUSH2 0x100 DUP4 ADD MSTORE DUP3 ISZERO ISZERO PUSH2 0x120 DUP4 ADD MSTORE SWAP12 SWAP11 POP POP POP POP POP POP POP POP POP POP POP JUMP JUMPDEST PUSH4 0x4E487B71 PUSH1 0xE0 SHL PUSH1 0x0 MSTORE PUSH1 0x11 PUSH1 0x4 MSTORE PUSH1 0x24 PUSH1 0x0 REVERT JUMPDEST DUP2 DUP2 SUB DUP2 DUP2 GT ISZERO PUSH2 0x91E JUMPI PUSH2 0x91E PUSH2 0x275B JUMP JUMPDEST PUSH1 0x0 PUSH1 0x1 DUP3 ADD PUSH2 0x2796 JUMPI PUSH2 0x2796 PUSH2 0x275B JUMP JUMPDEST POP PUSH1 0x1 ADD SWAP1 JUMP JUMPDEST DUP1 DUP3 ADD DUP1 DUP3 GT ISZERO PUSH2 0x91E JUMPI PUSH2 0x91E PUSH2 0x275B JUMP JUMPDEST PUSH1 0x20 DUP1 DUP3 MSTORE PUSH1 0xF SWAP1 DUP3 ADD MSTORE PUSH15 0x54726970206E6F7420616374697665 PUSH1 0x88 SHL PUSH1 0x40 DUP3 ADD MSTORE PUSH1 0x60 ADD SWAP1 JUMP JUMPDEST PUSH1 0x20 DUP1 DUP3 MSTORE PUSH1 0x11 SWAP1 DUP3 ADD MSTORE PUSH17 0x139BDD0818481C185C9D1A58DA5C185B9D PUSH1 0x7A SHL PUSH1 0x40 DUP3 ADD MSTORE PUSH1 0x60 ADD SWAP1 JUMP JUMPDEST PUSH4 0x4E487B71 PUSH1 0xE0 SHL PUSH1 0x0 MSTORE PUSH1 0x32 PUSH1 0x4 MSTORE PUSH1 0x24 PUSH1 0x0 REVERT JUMPDEST PUSH1 0x20 DUP2 MSTORE DUP2 PUSH1 0x20 DUP3 ADD MSTORE DUP2 DUP4 PUSH1 0x40 DUP4 ADD CALLDATACOPY PUSH1 0x0 DUP2 DUP4 ADD PUSH1 0x40 SWAP1 DUP2 ADD SWAP2 SWAP1 SWAP2 MSTORE PUSH1 0x1F SWAP1 SWAP3 ADD PUSH1 0x1F NOT AND ADD ADD SWAP2 SWAP1 POP JUMP JUMPDEST PUSH1 0x0 DUP3 PUSH2 0x2866 JUMPI PUSH4 0x4E487B71 PUSH1 0xE0 SHL PUSH1 0x0 MSTORE PUSH1 0x12 PUSH1 0x4 MSTORE PUSH1 0x24 PUSH1 0x0 REVERT JUMPDEST POP DIV SWAP1 JUMP JUMPDEST DUP1 DUP3 MUL DUP2 ISZERO DUP3 DUP3 DIV DUP5 EQ OR PUSH2 0x91E JUMPI PUSH2 0x91E PUSH2 0x275B JUMP JUMPDEST PUSH4 0x4E487B71 PUSH1 0xE0 SHL PUSH1 0x0 MSTORE PUSH1 0x31 PUSH1 0x4 MSTORE PUSH1 0x24 PUSH1 0x0 REVERT INVALID LOG4 SWAP9 SMOD KECCAK256 0x5C 0xE4 0xD3 SSTORE MULMOD 0x2E CREATE2 0xA8 LOG1 DUP16 JUMP 0xE8 SWAP2 EXTCODECOPY DELEGATECALL LOG2 ADD 0xFB 0xE2 DUP8 DUP3 JUMPDEST MULMOD JUMP SWAP4 0xC2 OR PUSH22 0xA26469706673582212208F04339A949CF9E838F000E8 0x5E 0xE7 EXTCODECOPY PUSH19 0xA45D0ED3BB5085380740FE82990F981A64736F PUSH13 0x63430008140033000000000000 "},"gasEstimates":{"creation":{"codeDepositCost":"2095600","executionCost":"infinite","totalCost":"infinite"},"external":{"ADMIN_ROLE()":"infinite","CANCELLATION_WINDOW()":"306","DEFAULT_ADMIN_ROLE()":"284","ORGANIZER_ROLE()":"241","PLATFORM_FEE()":"241","SLASH_PERCENTAGE()":"262","cancelTrip(uint256,string)":"infinite","completeTrip(uint256)":"infinite","confirmAttendance(uint256,bytes32)":"81613","createTrip(uint256,uint256,uint256,uint256)":"infinite","getParticipant(uint256,address)":"11771","getRoleAdmin(bytes32)":"2518","getRoleMember(bytes32,uint256)":"infinite","getRoleMemberCount(bytes32)":"infinite","getRoleMembers(bytes32)":"infinite","getTrip(uint256)":"22470","getTripParticipants(uint256)":"infinite","grantRole(bytes32,address)":"infinite","hasRole(bytes32,address)":"2754","joinTrip(uint256)":"infinite","participants(uint256,address)":"11406","pause()":"infinite","paused()":"2349","renounceRole(bytes32,address)":"infinite","reportIncident(uint256)":"56915","revokeRole(bytes32,address)":"infinite","slashUser(uint256,address)":"infinite","supportsInterface(bytes4)":"infinite","tripCounter()":"2362","tripParticipants(uint256,uint256)":"4750","trips(uint256)":"21946","unpause()":"infinite"}},"methodIdentifiers":{"ADMIN_ROLE()":"75b238fc","CANCELLATION_WINDOW()":"92a57fca","DEFAULT_ADMIN_ROLE()":"a217fddf","ORGANIZER_ROLE()":"7909cb59","PLATFORM_FEE()":"34fbc9a1","SLASH_PERCENTAGE()":"9f29f135","cancelTrip(uint256,string)":"7900943e","completeTrip(uint256)":"c1917e79","confirmAttendance(uint256,bytes32)":"2d8dfe1d","createTrip(uint256,uint256,uint256,uint256)":"19c9f3e3","getParticipant(uint256,address)":"35f3ad7a","getRoleAdmin(bytes32)":"248a9ca3","getRoleMember(bytes32,uint256)":"9010d07c","getRoleMemberCount(bytes32)":"ca15c873","getRoleMembers(bytes32)":"a3246ad3","getTrip(uint256)":"01011705","getTripParticipants(uint256)":"7fd20d43","grantRole(bytes32,address)":"2f2ff15d","hasRole(bytes32,address)":"91d14854","joinTrip(uint256)":"13c3ea33","participants(uint256,address)":"02e060c6","pause()":"8456cb59","paused()":"5c975abb","renounceRole(bytes32,address)":"36568abe","reportIncident(uint256)":"7d74ee84","revokeRole(bytes32,address)":"d547741f","slashUser(uint256,address)":"8eda7a36","supportsInterface(bytes4)":"01ffc9a7","tripCounter()":"6fa4ec27","tripParticipants(uint256,uint256)":"9df66a69","trips(uint256)":"f6824a7c","unpause()":"3f4ba83a"}},"storageLayout":{"storage":[{"astId":1776,"contract":"src/TripEscrow.sol:TripEscrow","label":"_status","offset":0,"slot":"0","type":"t_uint256"},{"astId":27,"contract":"src/TripEscrow.sol:TripEscrow","label":"_roles","offset":0,"slot":"1","type":"t_mapping(t_bytes32,t_struct(RoleData)22_storage)"},{"astId":403,"contract":"src/TripEscrow.sol:TripEscrow","label":"_roleMembers","offset":0,"slot":"2","type":"t_mapping(t_bytes32,t_struct(AddressSet)6011_storage)"},{"astId":1666,"contract":"src/TripEscrow.sol:TripEscrow","label":"_paused","offset":0,"slot":"3","type":"t_bool"},{"astId":7104,"contract":"src/TripEscrow.sol:TripEscrow","label":"tripCounter","offset":0,"slot":"4","type":"t_uint256"},{"astId":7109,"contract":"src/TripEscrow.sol:TripEscrow","label":"trips","offset":0,"slot":"5","type":"t_mapping(t_uint256,t_struct(Trip)7087_storage)"},{"astId":7116,"contract":"src/TripEscrow.sol:TripEscrow","label":"participants","offset":0,"slot":"6","type":"t_mapping(t_uint256,t_mapping(t_address,t_struct(Participant)7102_storage))"},{"astId":7121,"contract":"src/TripEscrow.sol:TripEscrow","label":"tripParticipants","offset":0,"slot":"7","type":"t_mapping(t_uint256,t_array(t_address)dyn_storage)"}],"types":{"t_address":{"encoding":"inplace","label":"address","numberOfBytes":"20"},"t_array(t_address)dyn_storage":{"base":"t_address","encoding":"dynamic_array","label":"address[]","numberOfBytes":"32"},"t_array(t_bytes32)dyn_storage":{"base":"t_bytes32","encoding":"dynamic_array","label":"bytes32[]","numberOfBytes":"32"},"t_bool":{"encoding":"inplace","label":"bool","numberOfBytes":"1"},"t_bytes32":{"encoding":"inplace","label":"bytes32","numberOfBytes":"32"},"t_enum(TripStatus)7065":{"encoding":"inplace","label":"enum TripEscrow.TripStatus","numberOfBytes":"1"},"t_mapping(t_address,t_bool)":{"encoding":"mapping","key":"t_address","label":"mapping(address => bool)","numberOfBytes":"32","value":"t_bool"},"t_mapping(t_address,t_struct(Participant)7102_storage)":{"encoding":"mapping","key":"t_address","label":"mapping(address => struct TripEscrow.Participant)","numberOfBytes":"32","value":"t_struct(Participant)7102_storage"},"t_mapping(t_bytes32,t_struct(AddressSet)6011_storage)":{"encoding":"mapping","key":"t_bytes32","label":"mapping(bytes32 => struct EnumerableSet.AddressSet)","numberOfBytes":"32","value":"t_struct(AddressSet)6011_storage"},"t_mapping(t_bytes32,t_struct(RoleData)22_storage)":{"encoding":"mapping","key":"t_bytes32","label":"mapping(bytes32 => struct AccessControl.RoleData)","numberOfBytes":"32","value":"t_struct(RoleData)22_storage"},"t_mapping(t_bytes32,t_uint256)":{"encoding":"mapping","key":"t_bytes32","label":"mapping(bytes32 => uint256)","numberOfBytes":"32","value":"t_uint256"},"t_mapping(t_uint256,t_array(t_address)dyn_storage)":{"encoding":"mapping","key":"t_uint256","label":"mapping(uint256 => address[])","numberOfBytes":"32","value":"t_array(t_address)dyn_storage"},"t_mapping(t_uint256,t_mapping(t_address,t_struct(Participant)7102_storage))":{"encoding":"mapping","key":"t_uint256","label":"mapping(uint256 => mapping(address => struct TripEscrow.Participant))","numberOfBytes":"32","value":"t_mapping(t_address,t_struct(Participant)7102_storage)"},"t_mapping(t_uint256,t_struct(Trip)7087_storage)":{"encoding":"mapping","key":"t_uint256","label":"mapping(uint256 => struct TripEscrow.Trip)","numberOfBytes":"32","value":"t_struct(Trip)7087_storage"},"t_struct(AddressSet)6011_storage":{"encoding":"inplace","label":"struct EnumerableSet.AddressSet","members":[{"astId":6010,"contract":"src/TripEscrow.sol:TripEscrow","label":"_inner","offset":0,"slot":"0","type":"t_struct(Set)5525_storage"}],"numberOfBytes":"64"},"t_struct(Participant)7102_storage":{"encoding":"inplace","label":"struct TripEscrow.Participant","members":[{"astId":7089,"contract":"src/TripEscrow.sol:TripEscrow","label":"wallet","offset":0,"slot":"0","type":"t_address"},{"astId":7091,"contract":"src/TripEscrow.sol:TripEscrow","label":"stakedAmount","offset":0,"slot":"1","type":"t_uint256"},{"astId":7093,"contract":"src/TripEscrow.sol:TripEscrow","label":"hasJoined","offset":0,"slot":"2","type":"t_bool"},{"astId":7095,"contract":"src/TripEscrow.sol:TripEscrow","label":"hasConfirmed","offset":1,"slot":"2","type":"t_bool"},{"astId":7097,"contract":"src/TripEscrow.sol:TripEscrow","label":"isSlashed","offset":2,"slot":"2","type":"t_bool"},{"astId":7099,"contract":"src/TripEscrow.sol:TripEscrow","label":"checkInProofHash","offset":0,"slot":"3","type":"t_bytes32"},{"astId":7101,"contract":"src/TripEscrow.sol:TripEscrow","label":"confirmationTime","offset":0,"slot":"4","type":"t_uint256"}],"numberOfBytes":"160"},"t_struct(RoleData)22_storage":{"encoding":"inplace","label":"struct AccessControl.RoleData","members":[{"astId":19,"contract":"src/TripEscrow.sol:TripEscrow","label":"hasRole","offset":0,"slot":"0","type":"t_mapping(t_address,t_bool)"},{"astId":21,"contract":"src/TripEscrow.sol:TripEscrow","label":"adminRole","offset":0,"slot":"1","type":"t_bytes32"}],"numberOfBytes":"64"},"t_struct(Set)5525_storage":{"encoding":"inplace","label":"struct EnumerableSet.Set","members":[{"astId":5520,"contract":"src/TripEscrow.sol:TripEscrow","label":"_values","offset":0,"slot":"0","type":"t_array(t_bytes32)dyn_storage"},{"astId":5524,"contract":"src/TripEscrow.sol:TripEscrow","label":"_positions","offset":0,"slot":"1","type":"t_mapping(t_bytes32,t_uint256)"}],"numberOfBytes":"64"},"t_struct(Trip)7087_storage":{"encoding":"inplace","label":"struct TripEscrow.Trip","members":[{"astId":7067,"contract":"src/TripEscrow.sol:TripEscrow","label":"tripId","offset":0,"slot":"0","type":"t_uint256"},{"astId":7069,"contract":"src/TripEscrow.sol:TripEscrow","label":"organizer","offset":0,"slot":"1","type":"t_address"},{"astId":7071,"contract":"src/TripEscrow.sol:TripEscrow","label":"stakeAmount","offset":0,"slot":"2","type":"t_uint256"},{"astId":7073,"contract":"src/TripEscrow.sol:TripEscrow","label":"maxParticipants","offset":0,"slot":"3","type":"t_uint256"},{"astId":7075,"contract":"src/TripEscrow.sol:TripEscrow","label":"startTime","offset":0,"slot":"4","type":"t_uint256"},{"astId":7077,"contract":"src/TripEscrow.sol:TripEscrow","label":"endTime","offset":0,"slot":"5","type":"t_uint256"},{"astId":7080,"contract":"src/TripEscrow.sol:TripEscrow","label":"status","offset":0,"slot":"6","type":"t_enum(TripStatus)7065"},{"astId":7082,"contract":"src/TripEscrow.sol:TripEscrow","label":"totalStaked","offset":0,"slot":"7","type":"t_uint256"},{"astId":7084,"contract":"src/TripEscrow.sol:TripEscrow","label":"participantCount","offset":0,"slot":"8","type":"t_uint256"},{"astId":7086,"contract":"src/TripEscrow.sol:TripEscrow","label":"emergencyFreeze","offset":0,"slot":"9","type":"t_bool"}],"numberOfBytes":"320"},"t_uint256":{"encoding":"inplace","label":"uint256","numberOfBytes":"32"}}},"userdoc":{"kind":"user","methods":{"cancelTrip(uint256,string)":{"notice":"Cancel trip and refund all participants (before trip starts)"},"completeTrip(uint256)":{"notice":"Complete trip and release funds after verification period"},"confirmAttendance(uint256,bytes32)":{"notice":"Submit signed check-in proof"},"createTrip(uint256,uint256,uint256,uint256)":{"notice":"Create a new trip escrow"},"getParticipant(uint256,address)":{"notice":"Get participant details"},"getTrip(uint256)":{"notice":"Get trip details"},"getTripParticipants(uint256)":{"notice":"Get trip participants list"},"joinTrip(uint256)":{"notice":"Join a trip by staking required amount"},"pause()":{"notice":"Emergency pause all operations"},"reportIncident(uint256)":{"notice":"Report incident and freeze escrow"},"slashUser(uint256,address)":{"notice":"Admin function to manually slash a participant after investigation"},"unpause()":{"notice":"Unpause operations"}},"notice":"Manages escrow for stranger trips with automated enforcement","version":1}}}}