{
  "_format": "hh-sol-artifact-1",
  "contractName": "TripEscrow",
  "sourceName": "src/TripEscrow.sol",
  "abi": [
    {
      "inputs": [],
      "stateMutability": "nonpayable",
      "type": "constructor"
    },
    {
      "inputs": [],
      "name": "AccessControlBadConfirmation",
      "type": "error"
    },
    {
      "inputs": [
        {
          "internalType": "address",
          "name": "account",
          "type": "address"
        },
        {
          "internalType": "bytes32",
          "name": "neededRole",
          "type": "bytes32"
        }
      ],
      "name": "AccessControlUnauthorizedAccount",
      "type": "error"
    },
    {
      "inputs": [],
      "name": "EnforcedPause",
      "type": "error"
    },
    {
      "inputs": [],
      "name": "ExpectedPause",
      "type": "error"
    },
    {
      "inputs": [],
      "name": "ReentrancyGuardReentrantCall",
      "type": "error"
    },
    {
      "anonymous": false,
      "inputs": [
        {
          "indexed": true,
          "internalType": "uint256",
          "name": "tripId",
          "type": "uint256"
        },
        {
          "indexed": true,
          "internalType": "address",
          "name": "participant",
          "type": "address"
        },
        {
          "indexed": false,
          "internalType": "bytes32",
          "name": "proofHash",
          "type": "bytes32"
        }
      ],
      "name": "CheckInSubmitted",
      "type": "event"
    },
    {
      "anonymous": false,
      "inputs": [
        {
          "indexed": true,
          "internalType": "uint256",
          "name": "tripId",
          "type": "uint256"
        },
        {
          "indexed": true,
          "internalType": "address",
          "name": "initiator",
          "type": "address"
        }
      ],
      "name": "EmergencyFreeze",
      "type": "event"
    },
    {
      "anonymous": false,
      "inputs": [
        {
          "indexed": true,
          "internalType": "uint256",
          "name": "tripId",
          "type": "uint256"
        },
        {
          "indexed": true,
          "internalType": "address",
          "name": "participant",
          "type": "address"
        },
        {
          "indexed": false,
          "internalType": "uint256",
          "name": "amount",
          "type": "uint256"
        }
      ],
      "name": "ParticipantJoined",
      "type": "event"
    },
    {
      "anonymous": false,
      "inputs": [
        {
          "indexed": true,
          "internalType": "uint256",
          "name": "tripId",
          "type": "uint256"
        },
        {
          "indexed": true,
          "internalType": "address",
          "name": "participant",
          "type": "address"
        },
        {
          "indexed": false,
          "internalType": "uint256",
          "name": "amount",
          "type": "uint256"
        }
      ],
      "name": "ParticipantSlashed",
      "type": "event"
    },
    {
      "anonymous": false,
      "inputs": [
        {
          "indexed": false,
          "internalType": "address",
          "name": "account",
          "type": "address"
        }
      ],
      "name": "Paused",
      "type": "event"
    },
    {
      "anonymous": false,
      "inputs": [
        {
          "indexed": true,
          "internalType": "bytes32",
          "name": "role",
          "type": "bytes32"
        },
        {
          "indexed": true,
          "internalType": "bytes32",
          "name": "previousAdminRole",
          "type": "bytes32"
        },
        {
          "indexed": true,
          "internalType": "bytes32",
          "name": "newAdminRole",
          "type": "bytes32"
        }
      ],
      "name": "RoleAdminChanged",
      "type": "event"
    },
    {
      "anonymous": false,
      "inputs": [
        {
          "indexed": true,
          "internalType": "bytes32",
          "name": "role",
          "type": "bytes32"
        },
        {
          "indexed": true,
          "internalType": "address",
          "name": "account",
          "type": "address"
        },
        {
          "indexed": true,
          "internalType": "address",
          "name": "sender",
          "type": "address"
        }
      ],
      "name": "RoleGranted",
      "type": "event"
    },
    {
      "anonymous": false,
      "inputs": [
        {
          "indexed": true,
          "internalType": "bytes32",
          "name": "role",
          "type": "bytes32"
        },
        {
          "indexed": true,
          "internalType": "address",
          "name": "account",
          "type": "address"
        },
        {
          "indexed": true,
          "internalType": "address",
          "name": "sender",
          "type": "address"
        }
      ],
      "name": "RoleRevoked",
      "type": "event"
    },
    {
      "anonymous": false,
      "inputs": [
        {
          "indexed": true,
          "internalType": "uint256",
          "name": "tripId",
          "type": "uint256"
        },
        {
          "indexed": false,
          "internalType": "string",
          "name": "reason",
          "type": "string"
        }
      ],
      "name": "TripCancelled",
      "type": "event"
    },
    {
      "anonymous": false,
      "inputs": [
        {
          "indexed": true,
          "internalType": "uint256",
          "name": "tripId",
          "type": "uint256"
        },
        {
          "indexed": false,
          "internalType": "uint256",
          "name": "totalReleased",
          "type": "uint256"
        }
      ],
      "name": "TripCompleted",
      "type": "event"
    },
    {
      "anonymous": false,
      "inputs": [
        {
          "indexed": true,
          "internalType": "uint256",
          "name": "tripId",
          "type": "uint256"
        },
        {
          "indexed": true,
          "internalType": "address",
          "name": "organizer",
          "type": "address"
        },
        {
          "indexed": false,
          "internalType": "uint256",
          "name": "stakeAmount",
          "type": "uint256"
        }
      ],
      "name": "TripCreated",
      "type": "event"
    },
    {
      "anonymous": false,
      "inputs": [
        {
          "indexed": false,
          "internalType": "address",
          "name": "account",
          "type": "address"
        }
      ],
      "name": "Unpaused",
      "type": "event"
    },
    {
      "inputs": [],
      "name": "ADMIN_ROLE",
      "outputs": [
        {
          "internalType": "bytes32",
          "name": "",
          "type": "bytes32"
        }
      ],
      "stateMutability": "view",
      "type": "function"
    },
    {
      "inputs": [],
      "name": "CANCELLATION_WINDOW",
      "outputs": [
        {
          "internalType": "uint256",
          "name": "",
          "type": "uint256"
        }
      ],
      "stateMutability": "view",
      "type": "function"
    },
    {
      "inputs": [],
      "name": "DEFAULT_ADMIN_ROLE",
      "outputs": [
        {
          "internalType": "bytes32",
          "name": "",
          "type": "bytes32"
        }
      ],
      "stateMutability": "view",
      "type": "function"
    },
    {
      "inputs": [],
      "name": "ORGANIZER_ROLE",
      "outputs": [
        {
          "internalType": "bytes32",
          "name": "",
          "type": "bytes32"
        }
      ],
      "stateMutability": "view",
      "type": "function"
    },
    {
      "inputs": [],
      "name": "PLATFORM_FEE",
      "outputs": [
        {
          "internalType": "uint256",
          "name": "",
          "type": "uint256"
        }
      ],
      "stateMutability": "view",
      "type": "function"
    },
    {
      "inputs": [],
      "name": "SLASH_PERCENTAGE",
      "outputs": [
        {
          "internalType": "uint256",
          "name": "",
          "type": "uint256"
        }
      ],
      "stateMutability": "view",
      "type": "function"
    },
    {
      "inputs": [
        {
          "internalType": "uint256",
          "name": "_tripId",
          "type": "uint256"
        },
        {
          "internalType": "string",
          "name": "_reason",
          "type": "string"
        }
      ],
      "name": "cancelTrip",
      "outputs": [],
      "stateMutability": "nonpayable",
      "type": "function"
    },
    {
      "inputs": [
        {
          "internalType": "uint256",
          "name": "_tripId",
          "type": "uint256"
        }
      ],
      "name": "completeTrip",
      "outputs": [],
      "stateMutability": "nonpayable",
      "type": "function"
    },
    {
      "inputs": [
        {
          "internalType": "uint256",
          "name": "_tripId",
          "type": "uint256"
        },
        {
          "internalType": "bytes32",
          "name": "_proofHash",
          "type": "bytes32"
        }
      ],
      "name": "confirmAttendance",
      "outputs": [],
      "stateMutability": "nonpayable",
      "type": "function"
    },
    {
      "inputs": [
        {
          "internalType": "uint256",
          "name": "_stakeAmount",
          "type": "uint256"
        },
        {
          "internalType": "uint256",
          "name": "_maxParticipants",
          "type": "uint256"
        },
        {
          "internalType": "uint256",
          "name": "_startTime",
          "type": "uint256"
        },
        {
          "internalType": "uint256",
          "name": "_endTime",
          "type": "uint256"
        }
      ],
      "name": "createTrip",
      "outputs": [
        {
          "internalType": "uint256",
          "name": "",
          "type": "uint256"
        }
      ],
      "stateMutability": "nonpayable",
      "type": "function"
    },
    {
      "inputs": [
        {
          "internalType": "uint256",
          "name": "_tripId",
          "type": "uint256"
        },
        {
          "internalType": "address",
          "name": "_participant",
          "type": "address"
        }
      ],
      "name": "getParticipant",
      "outputs": [
        {
          "components": [
            {
              "internalType": "address",
              "name": "wallet",
              "type": "address"
            },
            {
              "internalType": "uint256",
              "name": "stakedAmount",
              "type": "uint256"
            },
            {
              "internalType": "bool",
              "name": "hasJoined",
              "type": "bool"
            },
            {
              "internalType": "bool",
              "name": "hasConfirmed",
              "type": "bool"
            },
            {
              "internalType": "bool",
              "name": "isSlashed",
              "type": "bool"
            },
            {
              "internalType": "bytes32",
              "name": "checkInProofHash",
              "type": "bytes32"
            },
            {
              "internalType": "uint256",
              "name": "confirmationTime",
              "type": "uint256"
            }
          ],
          "internalType": "struct TripEscrow.Participant",
          "name": "",
          "type": "tuple"
        }
      ],
      "stateMutability": "view",
      "type": "function"
    },
    {
      "inputs": [
        {
          "internalType": "bytes32",
          "name": "role",
          "type": "bytes32"
        }
      ],
      "name": "getRoleAdmin",
      "outputs": [
        {
          "internalType": "bytes32",
          "name": "",
          "type": "bytes32"
        }
      ],
      "stateMutability": "view",
      "type": "function"
    },
    {
      "inputs": [
        {
          "internalType": "bytes32",
          "name": "role",
          "type": "bytes32"
        },
        {
          "internalType": "uint256",
          "name": "index",
          "type": "uint256"
        }
      ],
      "name": "getRoleMember",
      "outputs": [
        {
          "internalType": "address",
          "name": "",
          "type": "address"
        }
      ],
      "stateMutability": "view",
      "type": "function"
    },
    {
      "inputs": [
        {
          "internalType": "bytes32",
          "name": "role",
          "type": "bytes32"
        }
      ],
      "name": "getRoleMemberCount",
      "outputs": [
        {
          "internalType": "uint256",
          "name": "",
          "type": "uint256"
        }
      ],
      "stateMutability": "view",
      "type": "function"
    },
    {
      "inputs": [
        {
          "internalType": "bytes32",
          "name": "role",
          "type": "bytes32"
        }
      ],
      "name": "getRoleMembers",
      "outputs": [
        {
          "internalType": "address[]",
          "name": "",
          "type": "address[]"
        }
      ],
      "stateMutability": "view",
      "type": "function"
    },
    {
      "inputs": [
        {
          "internalType": "uint256",
          "name": "_tripId",
          "type": "uint256"
        }
      ],
      "name": "getTrip",
      "outputs": [
        {
          "components": [
            {
              "internalType": "uint256",
              "name": "tripId",
              "type": "uint256"
            },
            {
              "internalType": "address",
              "name": "organizer",
              "type": "address"
            },
            {
              "internalType": "uint256",
              "name": "stakeAmount",
              "type": "uint256"
            },
            {
              "internalType": "uint256",
              "name": "maxParticipants",
              "type": "uint256"
            },
            {
              "internalType": "uint256",
              "name": "startTime",
              "type": "uint256"
            },
            {
              "internalType": "uint256",
              "name": "endTime",
              "type": "uint256"
            },
            {
              "internalType": "enum TripEscrow.TripStatus",
              "name": "status",
              "type": "uint8"
            },
            {
              "internalType": "uint256",
              "name": "totalStaked",
              "type": "uint256"
            },
            {
              "internalType": "uint256",
              "name": "participantCount",
              "type": "uint256"
            },
            {
              "internalType": "bool",
              "name": "emergencyFreeze",
              "type": "bool"
            }
          ],
          "internalType": "struct TripEscrow.Trip",
          "name": "",
          "type": "tuple"
        }
      ],
      "stateMutability": "view",
      "type": "function"
    },
    {
      "inputs": [
        {
          "internalType": "uint256",
          "name": "_tripId",
          "type": "uint256"
        }
      ],
      "name": "getTripParticipants",
      "outputs": [
        {
          "internalType": "address[]",
          "name": "",
          "type": "address[]"
        }
      ],
      "stateMutability": "view",
      "type": "function"
    },
    {
      "inputs": [
        {
          "internalType": "bytes32",
          "name": "role",
          "type": "bytes32"
        },
        {
          "internalType": "address",
          "name": "account",
          "type": "address"
        }
      ],
      "name": "grantRole",
      "outputs": [],
      "stateMutability": "nonpayable",
      "type": "function"
    },
    {
      "inputs": [
        {
          "internalType": "bytes32",
          "name": "role",
          "type": "bytes32"
        },
        {
          "internalType": "address",
          "name": "account",
          "type": "address"
        }
      ],
      "name": "hasRole",
      "outputs": [
        {
          "internalType": "bool",
          "name": "",
          "type": "bool"
        }
      ],
      "stateMutability": "view",
      "type": "function"
    },
    {
      "inputs": [
        {
          "internalType": "uint256",
          "name": "_tripId",
          "type": "uint256"
        }
      ],
      "name": "joinTrip",
      "outputs": [],
      "stateMutability": "payable",
      "type": "function"
    },
    {
      "inputs": [
        {
          "internalType": "uint256",
          "name": "",
          "type": "uint256"
        },
        {
          "internalType": "address",
          "name": "",
          "type": "address"
        }
      ],
      "name": "participants",
      "outputs": [
        {
          "internalType": "address",
          "name": "wallet",
          "type": "address"
        },
        {
          "internalType": "uint256",
          "name": "stakedAmount",
          "type": "uint256"
        },
        {
          "internalType": "bool",
          "name": "hasJoined",
          "type": "bool"
        },
        {
          "internalType": "bool",
          "name": "hasConfirmed",
          "type": "bool"
        },
        {
          "internalType": "bool",
          "name": "isSlashed",
          "type": "bool"
        },
        {
          "internalType": "bytes32",
          "name": "checkInProofHash",
          "type": "bytes32"
        },
        {
          "internalType": "uint256",
          "name": "confirmationTime",
          "type": "uint256"
        }
      ],
      "stateMutability": "view",
      "type": "function"
    },
    {
      "inputs": [],
      "name": "pause",
      "outputs": [],
      "stateMutability": "nonpayable",
      "type": "function"
    },
    {
      "inputs": [],
      "name": "paused",
      "outputs": [
        {
          "internalType": "bool",
          "name": "",
          "type": "bool"
        }
      ],
      "stateMutability": "view",
      "type": "function"
    },
    {
      "inputs": [
        {
          "internalType": "bytes32",
          "name": "role",
          "type": "bytes32"
        },
        {
          "internalType": "address",
          "name": "callerConfirmation",
          "type": "address"
        }
      ],
      "name": "renounceRole",
      "outputs": [],
      "stateMutability": "nonpayable",
      "type": "function"
    },
    {
      "inputs": [
        {
          "internalType": "uint256",
          "name": "_tripId",
          "type": "uint256"
        }
      ],
      "name": "reportIncident",
      "outputs": [],
      "stateMutability": "nonpayable",
      "type": "function"
    },
    {
      "inputs": [
        {
          "internalType": "bytes32",
          "name": "role",
          "type": "bytes32"
        },
        {
          "internalType": "address",
          "name": "account",
          "type": "address"
        }
      ],
      "name": "revokeRole",
      "outputs": [],
      "stateMutability": "nonpayable",
      "type": "function"
    },
    {
      "inputs": [
        {
          "internalType": "uint256",
          "name": "_tripId",
          "type": "uint256"
        },
        {
          "internalType": "address",
          "name": "_participant",
          "type": "address"
        }
      ],
      "name": "slashUser",
      "outputs": [],
      "stateMutability": "nonpayable",
      "type": "function"
    },
    {
      "inputs": [
        {
          "internalType": "bytes4",
          "name": "interfaceId",
          "type": "bytes4"
        }
      ],
      "name": "supportsInterface",
      "outputs": [
        {
          "internalType": "bool",
          "name": "",
          "type": "bool"
        }
      ],
      "stateMutability": "view",
      "type": "function"
    },
    {
      "inputs": [],
      "name": "tripCounter",
      "outputs": [
        {
          "internalType": "uint256",
          "name": "",
          "type": "uint256"
        }
      ],
      "stateMutability": "view",
      "type": "function"
    },
    {
      "inputs": [
        {
          "internalType": "uint256",
          "name": "",
          "type": "uint256"
        },
        {
          "internalType": "uint256",
          "name": "",
          "type": "uint256"
        }
      ],
      "name": "tripParticipants",
      "outputs": [
        {
          "internalType": "address",
          "name": "",
          "type": "address"
        }
      ],
      "stateMutability": "view",
      "type": "function"
    },
    {
      "inputs": [
        {
          "internalType": "uint256",
          "name": "",
          "type": "uint256"
        }
      ],
      "name": "trips",
      "outputs": [
        {
          "internalType": "uint256",
          "name": "tripId",
          "type": "uint256"
        },
        {
          "internalType": "address",
          "name": "organizer",
          "type": "address"
        },
        {
          "internalType": "uint256",
          "name": "stakeAmount",
          "type": "uint256"
        },
        {
          "internalType": "uint256",
          "name": "maxParticipants",
          "type": "uint256"
        },
        {
          "internalType": "uint256",
          "name": "startTime",
          "type": "uint256"
        },
        {
          "internalType": "uint256",
          "name": "endTime",
          "type": "uint256"
        },
        {
          "internalType": "enum TripEscrow.TripStatus",
          "name": "status",
          "type": "uint8"
        },
        {
          "internalType": "uint256",
          "name": "totalStaked",
          "type": "uint256"
        },
        {
          "internalType": "uint256",
          "name": "participantCount",
          "type": "uint256"
        },
        {
          "internalType": "bool",
          "name": "emergencyFreeze",
          "type": "bool"
        }
      ],
      "stateMutability": "view",
      "type": "function"
    },
    {
      "inputs": [],
      "name": "unpause",
      "outputs": [],
      "stateMutability": "nonpayable",
      "type": "function"
    }
  ],
  "bytecode": "0x60806040523480156200001157600080fd5b506001600090815562000025903362000059565b50620000527fa49807205ce4d355092ef5a8a18f56e8913cf4a201fbe287825b095693c217753362000059565b5062000186565b60008062000068848462000096565b905080156200008d5760008481526002602052604090206200008b90846200012c565b505b90505b92915050565b60008281526001602090815260408083206001600160a01b038516845290915281205460ff16620001235760008381526001602081815260408084206001600160a01b0387168086529252808420805460ff19169093179092559051339286917f2f8788117e7eff1d82e926ec794901d17c78024a50270940304540a733656f0d9190a450600162000090565b50600062000090565b60006200008d836001600160a01b0384166000818152600183016020526040812054620001235750815460018181018455600084815260208082209093018490558454848252828601909352604090209190915562000090565b6128ee80620001966000396000f3fe6080604052600436106101e35760003560e01c80637909cb59116101025780639df66a6911610095578063c1917e7911610064578063c1917e7914610743578063ca15c87314610763578063d547741f14610783578063f6824a7c146107a357600080fd5b80639df66a69146106d95780639f29f135146106f9578063a217fddf1461070e578063a3246ad31461072357600080fd5b80638eda7a36116100d15780638eda7a361461064a5780639010d07c1461066a57806391d14854146106a257806392a57fca146106c257600080fd5b80637909cb59146105b45780637d74ee84146105e85780637fd20d43146106085780638456cb591461063557600080fd5b806334fbc9a11161017a5780635c975abb116101495780635c975abb146105445780636fa4ec271461055c57806375b238fc146105725780637900943e1461059457600080fd5b806334fbc9a1146103bd57806335f3ad7a146103d257806336568abe1461050f5780633f4ba83a1461052f57600080fd5b806319c9f3e3116101b657806319c9f3e31461031e578063248a9ca31461034c5780632d8dfe1d1461037d5780632f2ff15d1461039d57600080fd5b806301011705146101e857806301ffc9a71461021e57806302e060c61461024e57806313c3ea3314610309575b600080fd5b3480156101f457600080fd5b5061020861020336600461248d565b610835565b60405161021591906124de565b60405180910390f35b34801561022a57600080fd5b5061023e610239366004612567565b6108f9565b6040519015158152602001610215565b34801561025a57600080fd5b506102c26102693660046125ad565b6006602090815260009283526040808420909152908252902080546001820154600283015460038401546004909401546001600160a01b0390931693919260ff8083169361010084048216936201000090049091169187565b604080516001600160a01b03909816885260208801969096529315159486019490945290151560608501521515608084015260a083019190915260c082015260e001610215565b61031c61031736600461248d565b610924565b005b34801561032a57600080fd5b5061033e6103393660046125d9565b610c6c565b604051908152602001610215565b34801561035857600080fd5b5061033e61036736600461248d565b6000908152600160208190526040909120015490565b34801561038957600080fd5b5061031c61039836600461260b565b610f3f565b3480156103a957600080fd5b5061031c6103b83660046125ad565b611113565b3480156103c957600080fd5b5061033e600581565b3480156103de57600080fd5b506104af6103ed3660046125ad565b6040805160e081018252600080825260208201819052918101829052606081018290526080810182905260a0810182905260c08101919091525060008281526006602090815260408083206001600160a01b03808616855290835292819020815160e08101835281549094168452600181015492840192909252600282015460ff80821615159285019290925261010081048216151560608501526201000090041615156080830152600381015460a08301526004015460c082015292915050565b604051610215919081516001600160a01b031681526020808301519082015260408083015115159082015260608083015115159082015260808083015115159082015260a0828101519082015260c0918201519181019190915260e00190565b34801561051b57600080fd5b5061031c61052a3660046125ad565b61113f565b34801561053b57600080fd5b5061031c611177565b34801561055057600080fd5b5060035460ff1661023e565b34801561056857600080fd5b5061033e60045481565b34801561057e57600080fd5b5061033e60008051602061289983398151915281565b3480156105a057600080fd5b5061031c6105af36600461262d565b611197565b3480156105c057600080fd5b5061033e7f4d2e7a1e3f5dd6e203f087b15756ccf0e4ccd947fe1b639a38540089a1e47f6381565b3480156105f457600080fd5b5061031c61060336600461248d565b61149a565b34801561061457600080fd5b5061062861062336600461248d565b6115af565b60405161021591906126a9565b34801561064157600080fd5b5061031c61161b565b34801561065657600080fd5b5061031c6106653660046125ad565b61163b565b34801561067657600080fd5b5061068a61068536600461260b565b611955565b6040516001600160a01b039091168152602001610215565b3480156106ae57600080fd5b5061023e6106bd3660046125ad565b611974565b3480156106ce57600080fd5b5061033e62093a8081565b3480156106e557600080fd5b5061068a6106f436600461260b565b61199f565b34801561070557600080fd5b5061033e601e81565b34801561071a57600080fd5b5061033e600081565b34801561072f57600080fd5b5061062861073e36600461248d565b6119d7565b34801561074f57600080fd5b5061031c61075e36600461248d565b6119f1565b34801561076f57600080fd5b5061033e61077e36600461248d565b611f0f565b34801561078f57600080fd5b5061031c61079e3660046125ad565b611f26565b3480156107af57600080fd5b5061081f6107be36600461248d565b6005602081905260009182526040909120805460018201546002830154600384015460048501549585015460068601546007870154600888015460099098015496986001600160a01b03909616979496939594929360ff928316939192168a565b6040516102159a999897969594939291906126f6565b61083d61241e565b6000828152600560208181526040928390208351610140810185528154815260018201546001600160a01b0316928101929092526002810154938201939093526003830154606082015260048084015460808301529183015460a0820152600683015490929160c084019160ff16908111156108bb576108bb6124a6565b60048111156108cc576108cc6124a6565b8152600782015460208201526008820154604082015260099091015460ff16151560609091015292915050565b60006001600160e01b03198216635a05180f60e01b148061091e575061091e82611f4c565b92915050565b61092c611f81565b610934611fab565b600081815260056020526040812090600682015460ff16600481111561095c5761095c6124a6565b146109ae5760405162461bcd60e51b815260206004820152601960248201527f54726970206e6f74206f70656e20666f72206a6f696e696e670000000000000060448201526064015b60405180910390fd5b806002015434146109fa5760405162461bcd60e51b8152602060048201526016602482015275125b98dbdc9c9958dd081cdd185ad948185b5bdd5b9d60521b60448201526064016109a5565b8060030154816008015410610a405760405162461bcd60e51b815260206004820152600c60248201526b151c9a5c081a5cc8199d5b1b60a21b60448201526064016109a5565b600082815260066020908152604080832033845290915290206002015460ff1615610a9e5760405162461bcd60e51b815260206004820152600e60248201526d105b1c9958591e481a9bda5b995960921b60448201526064016109a5565b62093a808160040154610ab19190612771565b4210610af45760405162461bcd60e51b8152602060048201526012602482015271151bdbc818db1bdcd9481d1bc81cdd185c9d60721b60448201526064016109a5565b6040805160e0810182523380825234602080840191825260018486018181526000606087018181526080880182815260a0890183815260c08a018481528d8552600688528b85208a865288528b85209a518b546001600160a01b03919091166001600160a01b0319918216178c5598518b880155945160028b018054945193511515620100000262ff0000199415156101000261ff00199315159390931661ffff19909616959095179190911792909216929092179055516003880155905160049096019590955587855260078252948420805495860181558452832090930180549093161790915560088201805491610bed83612784565b919050555034816007016000828254610c06919061279d565b90915550506008810154600311610c275760068101805460ff191660011790555b604051348152339083907f338e0cd33c4e120afcd73f43f082fd8940ed67ac35180d278d2eb4f3ed51d92e9060200160405180910390a350610c696001600055565b50565b6000610c76611fab565b60008511610cbf5760405162461bcd60e51b81526020600482015260166024820152755374616b65206d75737420626520706f73697469766560501b60448201526064016109a5565b60038410158015610cd1575060088411155b610d1d5760405162461bcd60e51b815260206004820152601960248201527f496e76616c6964207061727469636970616e7420636f756e740000000000000060448201526064016109a5565b428311610d6c5760405162461bcd60e51b815260206004820152601960248201527f53746172742074696d65206d757374206265206675747572650000000000000060448201526064016109a5565b828211610dbb5760405162461bcd60e51b815260206004820152601c60248201527f456e642074696d65206d7573742062652061667465722073746172740000000060448201526064016109a5565b60048054906000610dcb83612784565b90915550506004805460408051610140810182528281523360208083019182528284018b8152606084018b8152608085018b815260a086018b8152600060c0880181815260e08901829052610100890182905261012089018290528a8252600596879052989020875181559551600180880180546001600160a01b0319166001600160a01b039093169290921790915593516002870155915160038601555184890155519183019190915592516006820180549596939592949193909260ff191691908490811115610e9f57610e9f6124a6565b021790555060e082015160078201556101008201516008820155610120909101516009909101805460ff1916911515919091179055610efe7f4d2e7a1e3f5dd6e203f087b15756ccf0e4ccd947fe1b639a38540089a1e47f6333611fd1565b50604051868152339082907f2aa6689a7861338405bc8aa2568b15d017a367c50c8bf69755e52ff789c725469060200160405180910390a395945050505050565b60008281526005602052604090206001600682015460ff166004811115610f6857610f686124a6565b14610f855760405162461bcd60e51b81526004016109a5906127b0565b8060040154421015610fcc5760405162461bcd60e51b815260206004820152601060248201526f151c9a5c081b9bdd081cdd185c9d195960821b60448201526064016109a5565b6005810154610fde906201518061279d565b4211156110265760405162461bcd60e51b815260206004820152601660248201527510da1958dacb5a5b881dda5b991bddc818db1bdcd95960521b60448201526064016109a5565b60008381526006602090815260408083203384529091529020600281015460ff166110635760405162461bcd60e51b81526004016109a5906127d9565b6002810154610100900460ff16156110b15760405162461bcd60e51b8152602060048201526011602482015270105b1c9958591e4818dbdb999a5c9b5959607a1b60448201526064016109a5565b60028101805461ff00191661010017905560038101839055426004820155604051339085907f430e77d45ae48215e70ee9bcdbb9c7ccd0d396fb46535fad0fce952272c4bb09906111059087815260200190565b60405180910390a350505050565b6000828152600160208190526040909120015461112f81612006565b6111398383611fd1565b50505050565b6001600160a01b03811633146111685760405163334bd91960e11b815260040160405180910390fd5b6111728282612010565b505050565b60008051602061289983398151915261118f81612006565b610c6961203d565b600083815260056020526040902060018101546001600160a01b03163314806111d357506111d360008051602061289983398151915233611974565b6112105760405162461bcd60e51b815260206004820152600e60248201526d139bdd08185d5d1a1bdc9a5e995960921b60448201526064016109a5565b6000600682015460ff16600481111561122b5761122b6124a6565b148061124f57506001600682015460ff16600481111561124d5761124d6124a6565b145b61128b5760405162461bcd60e51b815260206004820152600d60248201526c10d85b9b9bdd0818d85b98d95b609a1b60448201526064016109a5565b806004015442106112d55760405162461bcd60e51b8152602060048201526014602482015273151c9a5c08185b1c9958591e481cdd185c9d195960621b60448201526064016109a5565b60068101805460ff1916600317905560008481526007602090815260408083208054825181850281018501909352808352919290919083018282801561134457602002820191906000526020600020905b81546001600160a01b03168152600190910190602001808311611326575b5050505050905060005b815181101561145857600082828151811061136b5761136b612804565b60209081029190910181015160008981526006835260408082206001600160a01b038416835290935291909120600181015491925090156114435760018101546040516000916001600160a01b038516918381818185875af1925050503d80600081146113f4576040519150601f19603f3d011682016040523d82523d6000602084013e6113f9565b606091505b505090508061143a5760405162461bcd60e51b815260206004820152600d60248201526c1499599d5b990819985a5b1959609a1b60448201526064016109a5565b50600060018201555b5050808061145090612784565b91505061134e565b50847f0cc974a8ed71442b832b78decd00a1fa53ebb6889c70a2effb3275ce8e6e94f6858560405161148b92919061281a565b60405180910390a25050505050565b600081815260056020908152604080832060068352818420338552909252909120600281015460ff166114df5760405162461bcd60e51b81526004016109a5906127d9565b6001600683015460ff1660048111156114fa576114fa6124a6565b146115175760405162461bcd60e51b81526004016109a5906127b0565b600982015460ff161561155d5760405162461bcd60e51b815260206004820152600e60248201526d20b63932b0b23c90333937bd32b760911b60448201526064016109a5565b60098201805460ff199081166001179091556006830180549091166004179055604051339084907f11215f0d387bde1f67e012b0ebef8cafc0686c6533b6afbf73fddc814ecacbff90600090a3505050565b60008181526007602090815260409182902080548351818402810184019094528084526060939283018282801561160f57602002820191906000526020600020905b81546001600160a01b031681526001909101906020018083116115f1575b50505050509050919050565b60008051602061289983398151915261163381612006565b610c6961208f565b60008051602061289983398151915261165381612006565b60008381526005602052604090206004600682015460ff16600481111561167c5761167c6124a6565b146116bf5760405162461bcd60e51b815260206004820152601360248201527254726970206e6f7420696e206469737075746560681b60448201526064016109a5565b60008481526006602090815260408083206001600160a01b03871684529091529020600281015460ff166117055760405162461bcd60e51b81526004016109a5906127d9565b600281015462010000900460ff16156117525760405162461bcd60e51b815260206004820152600f60248201526e105b1c9958591e481cdb185cda1959608a1b60448201526064016109a5565b60028101805462ff00001916620100001790556001818101546008840154909160009161177f9190612771565b905080156119085760006117938284612849565b6000898152600760209081526040808320805482518185028101850190935280835294955092939092918301828280156117f657602002820191906000526020600020905b81546001600160a01b031681526001909101906020018083116117d8575b5050505050905060005b815181101561190457886001600160a01b031682828151811061182557611825612804565b60200260200101516001600160a01b0316146118f257600082828151811061184f5761184f612804565b60200260200101516001600160a01b03168460405160006040518083038185875af1925050503d80600081146118a1576040519150601f19603f3d011682016040523d82523d6000602084013e6118a6565b606091505b50509050806118f05760405162461bcd60e51b815260206004820152601660248201527514995dd85c99081d1c985b9cd9995c8819985a5b195960521b60448201526064016109a5565b505b806118fc81612784565b915050611800565b5050505b856001600160a01b0316877f22d98087e73327c576741a1d13b818fa68a68afa414e1c94d63ae6659d748c368460405161194491815260200190565b60405180910390a350505050505050565b600082815260026020526040812061196d90836120cc565b9392505050565b60009182526001602090815260408084206001600160a01b0393909316845291905290205460ff1690565b600760205281600052604060002081815481106119bb57600080fd5b6000918252602090912001546001600160a01b03169150829050565b600081815260026020526040902060609061091e906120d8565b6119f9611f81565b60008181526005602052604090206001600682015460ff166004811115611a2257611a226124a6565b14611a3f5760405162461bcd60e51b81526004016109a5906127b0565b6005810154611a51906202a30061279d565b4211611a9f5760405162461bcd60e51b815260206004820152601c60248201527f566572696669636174696f6e20706572696f64206e6f74206f7665720000000060448201526064016109a5565b600981015460ff1615611ae55760405162461bcd60e51b815260206004820152600e60248201526d2a3934b81034b990333937bd32b760911b60448201526064016109a5565b60068101805460ff19166002179055600781015460006064611b0860058461286b565b611b129190612849565b90506000611b208284612771565b60008681526007602090815260408083208054825181850281018501909352808352949550929384939192830182828015611b8457602002820191906000526020600020905b81546001600160a01b03168152600190910190602001808311611b66575b5050505050905060005b8151811015611ca3576000828281518110611bab57611bab612804565b60209081029190910181015160008b81526006835260408082206001600160a01b038416835290935291909120600281015491925090610100900460ff1615611c005784611bf881612784565b955050611c8e565b600281015462010000900460ff16611c8e5760028101805462ff00001916620100001790556001810154600090606490611c3c90601e9061286b565b611c469190612849565b9050826001600160a01b03168b7f22d98087e73327c576741a1d13b818fa68a68afa414e1c94d63ae6659d748c3683604051611c8491815260200190565b60405180910390a3505b50508080611c9b90612784565b915050611b8e565b5060008211611cf45760405162461bcd60e51b815260206004820152601960248201527f4e6f20636f6e6669726d6564207061727469636970616e74730000000000000060448201526064016109a5565b6000611d008385612849565b905060005b8251811015611e11576000838281518110611d2257611d22612804565b60209081029190910181015160008c81526006835260408082206001600160a01b038416835290935291909120600281015491925090610100900460ff1615611dfc576000826001600160a01b03168560405160006040518083038185875af1925050503d8060008114611db2576040519150601f19603f3d011682016040523d82523d6000602084013e611db7565b606091505b5050905080611dfa5760405162461bcd60e51b815260206004820152600f60248201526e151c985b9cd9995c8819985a5b1959608a1b60448201526064016109a5565b505b50508080611e0990612784565b915050611d05565b506000611e2d6000805160206128998339815191526000611955565b6001600160a01b03168660405160006040518083038185875af1925050503d8060008114611e77576040519150601f19603f3d011682016040523d82523d6000602084013e611e7c565b606091505b5050905080611ec35760405162461bcd60e51b8152602060048201526013602482015272119959481d1c985b9cd9995c8819985a5b1959606a1b60448201526064016109a5565b887fbe91c0e11ad7e25ee0e09afb2468fa4a6003ff00ea555c21102764fa13a58b2088604051611ef591815260200190565b60405180910390a25050505050505050610c696001600055565b600081815260026020526040812061091e906120e5565b60008281526001602081905260409091200154611f4281612006565b6111398383612010565b60006001600160e01b03198216637965db0b60e01b148061091e57506301ffc9a760e01b6001600160e01b031983161461091e565b600260005403611fa457604051633ee5aeb560e01b815260040160405180910390fd5b6002600055565b60035460ff1615611fcf5760405163d93c066560e01b815260040160405180910390fd5b565b600080611fde84846120ef565b9050801561196d576000848152600260205260409020611ffe9084612168565b509392505050565b610c69813361217d565b60008061201d84846121ba565b9050801561196d576000848152600260205260409020611ffe9084612227565b61204561223c565b6003805460ff191690557f5db9ee0a495bf2e6ff9c91a7834c1ba4fdd244a5e8aa4e537bd38aeae4b073aa335b6040516001600160a01b03909116815260200160405180910390a1565b612097611fab565b6003805460ff191660011790557f62e78cea01bee320cd4e420270b5ea74000d11b0c9f74754ebdbfc544b05a2586120723390565b600061196d838361225f565b6060600061196d83612289565b600061091e825490565b60006120fb8383611974565b6121605760008381526001602081815260408084206001600160a01b0387168086529252808420805460ff19169093179092559051339286917f2f8788117e7eff1d82e926ec794901d17c78024a50270940304540a733656f0d9190a450600161091e565b50600061091e565b600061196d836001600160a01b0384166122e4565b6121878282611974565b6121b65760405163e2517d3f60e01b81526001600160a01b0382166004820152602481018390526044016109a5565b5050565b60006121c68383611974565b156121605760008381526001602090815260408083206001600160a01b0386168085529252808320805460ff1916905551339286917ff6391f5c32d9c69d2a47ea670b442974b53935d1edc7fd64eb21e047a839171b9190a450600161091e565b600061196d836001600160a01b03841661232b565b60035460ff16611fcf57604051638dfc202b60e01b815260040160405180910390fd5b600082600001828154811061227657612276612804565b9060005260206000200154905092915050565b60608160000180548060200260200160405190810160405280929190818152602001828054801561160f57602002820191906000526020600020905b8154815260200190600101908083116122c55750505050509050919050565b60008181526001830160205260408120546121605750815460018181018455600084815260208082209093018490558454848252828601909352604090209190915561091e565b6000818152600183016020526040812054801561241457600061234f600183612771565b855490915060009061236390600190612771565b90508082146123c857600086600001828154811061238357612383612804565b90600052602060002001549050808760000184815481106123a6576123a6612804565b6000918252602080832090910192909255918252600188019052604090208390555b85548690806123d9576123d9612882565b60019003818190600052602060002001600090559055856001016000868152602001908152602001600020600090556001935050505061091e565b600091505061091e565b6040518061014001604052806000815260200160006001600160a01b031681526020016000815260200160008152602001600081526020016000815260200160006004811115612470576124706124a6565b815260200160008152602001600081526020016000151581525090565b60006020828403121561249f57600080fd5b5035919050565b634e487b7160e01b600052602160045260246000fd5b600581106124da57634e487b7160e01b600052602160045260246000fd5b9052565b81518152602080830151610140830191612502908401826001600160a01b03169052565b5060408301516040830152606083015160608301526080830151608083015260a083015160a083015260c083015161253d60c08401826124bc565b5060e083810151908301526101008084015190830152610120928301511515929091019190915290565b60006020828403121561257957600080fd5b81356001600160e01b03198116811461196d57600080fd5b80356001600160a01b03811681146125a857600080fd5b919050565b600080604083850312156125c057600080fd5b823591506125d060208401612591565b90509250929050565b600080600080608085870312156125ef57600080fd5b5050823594602084013594506040840135936060013592509050565b6000806040838503121561261e57600080fd5b50508035926020909101359150565b60008060006040848603121561264257600080fd5b83359250602084013567ffffffffffffffff8082111561266157600080fd5b818601915086601f83011261267557600080fd5b81358181111561268457600080fd5b87602082850101111561269657600080fd5b6020830194508093505050509250925092565b6020808252825182820181905260009190848201906040850190845b818110156126ea5783516001600160a01b0316835292840192918401916001016126c5565b50909695505050505050565b8a81526001600160a01b038a16602082015260408101899052606081018890526080810187905260a08101869052610140810161273660c08301876124bc565b8460e0830152836101008301528215156101208301529b9a5050505050505050505050565b634e487b7160e01b600052601160045260246000fd5b8181038181111561091e5761091e61275b565b6000600182016127965761279661275b565b5060010190565b8082018082111561091e5761091e61275b565b6020808252600f908201526e54726970206e6f742061637469766560881b604082015260600190565b602080825260119082015270139bdd0818481c185c9d1a58da5c185b9d607a1b604082015260600190565b634e487b7160e01b600052603260045260246000fd5b60208152816020820152818360408301376000818301604090810191909152601f909201601f19160101919050565b60008261286657634e487b7160e01b600052601260045260246000fd5b500490565b808202811582820484141761091e5761091e61275b565b634e487b7160e01b600052603160045260246000fdfea49807205ce4d355092ef5a8a18f56e8913cf4a201fbe287825b095693c21775a26469706673582212208f04339a949cf9e838f000e85ee73c72a45d0ed3bb5085380740fe82990f981a64736f6c63430008140033",
  "linkReferences": {},
  "deployedLinkReferences": {}
}