{
  "_format": "hh-sol-artifact-1",
  "contractName": "GroupRegistry",
  "sourceName": "contracts/GroupRegistry.sol",
  "abi": [
    {
      "anonymous": false,
      "inputs": [
        {
          "indexed": true,
          "internalType": "string",
          "name": "groupId",
          "type": "string"
        },
        {
          "indexed": false,
          "internalType": "string",
          "name": "destination",
          "type": "string"
        },
        {
          "indexed": false,
          "internalType": "uint256",
          "name": "memberCount",
          "type": "uint256"
        },
        {
          "indexed": false,
          "internalType": "uint256",
          "name": "createdAt",
          "type": "uint256"
        },
        {
          "indexed": false,
          "internalType": "address",
          "name": "registeredBy",
          "type": "address"
        }
      ],
      "name": "GroupRegistered",
      "type": "event"
    },
    {
      "anonymous": false,
      "inputs": [
        {
          "indexed": true,
          "internalType": "string",
          "name": "groupId",
          "type": "string"
        },
        {
          "indexed": false,
          "internalType": "string",
          "name": "destination",
          "type": "string"
        },
        {
          "indexed": false,
          "internalType": "uint256",
          "name": "memberCount",
          "type": "uint256"
        }
      ],
      "name": "GroupUpdated",
      "type": "event"
    },
    {
      "inputs": [
        {
          "internalType": "string",
          "name": "_groupId",
          "type": "string"
        }
      ],
      "name": "getGroup",
      "outputs": [
        {
          "internalType": "string",
          "name": "groupId",
          "type": "string"
        },
        {
          "internalType": "string",
          "name": "destination",
          "type": "string"
        },
        {
          "internalType": "uint256",
          "name": "memberCount",
          "type": "uint256"
        },
        {
          "internalType": "uint256",
          "name": "createdAt",
          "type": "uint256"
        },
        {
          "internalType": "bool",
          "name": "exists",
          "type": "bool"
        },
        {
          "internalType": "address",
          "name": "registeredBy",
          "type": "address"
        }
      ],
      "stateMutability": "view",
      "type": "function"
    },
    {
      "inputs": [
        {
          "internalType": "uint256",
          "name": "index",
          "type": "uint256"
        }
      ],
      "name": "getGroupIdByIndex",
      "outputs": [
        {
          "internalType": "string",
          "name": "",
          "type": "string"
        }
      ],
      "stateMutability": "view",
      "type": "function"
    },
    {
      "inputs": [],
      "name": "getTotalGroups",
      "outputs": [
        {
          "internalType": "uint256",
          "name": "",
          "type": "uint256"
        }
      ],
      "stateMutability": "view",
      "type": "function"
    },
    {
      "inputs": [
        {
          "internalType": "string",
          "name": "_groupId",
          "type": "string"
        }
      ],
      "name": "groupExists",
      "outputs": [
        {
          "internalType": "bool",
          "name": "",
          "type": "bool"
        }
      ],
      "stateMutability": "view",
      "type": "function"
    },
    {
      "inputs": [
        {
          "internalType": "uint256",
          "name": "",
          "type": "uint256"
        }
      ],
      "name": "groupIds",
      "outputs": [
        {
          "internalType": "string",
          "name": "",
          "type": "string"
        }
      ],
      "stateMutability": "view",
      "type": "function"
    },
    {
      "inputs": [
        {
          "internalType": "string",
          "name": "",
          "type": "string"
        }
      ],
      "name": "groups",
      "outputs": [
        {
          "internalType": "string",
          "name": "groupId",
          "type": "string"
        },
        {
          "internalType": "string",
          "name": "destination",
          "type": "string"
        },
        {
          "internalType": "uint256",
          "name": "memberCount",
          "type": "uint256"
        },
        {
          "internalType": "uint256",
          "name": "createdAt",
          "type": "uint256"
        },
        {
          "internalType": "bool",
          "name": "exists",
          "type": "bool"
        },
        {
          "internalType": "address",
          "name": "registeredBy",
          "type": "address"
        }
      ],
      "stateMutability": "view",
      "type": "function"
    },
    {
      "inputs": [
        {
          "internalType": "string",
          "name": "_groupId",
          "type": "string"
        },
        {
          "internalType": "string",
          "name": "_destination",
          "type": "string"
        },
        {
          "internalType": "uint256",
          "name": "_memberCount",
          "type": "uint256"
        },
        {
          "internalType": "uint256",
          "name": "_createdAt",
          "type": "uint256"
        }
      ],
      "name": "registerGroup",
      "outputs": [],
      "stateMutability": "nonpayable",
      "type": "function"
    },
    {
      "inputs": [
        {
          "internalType": "string",
          "name": "_groupId",
          "type": "string"
        },
        {
          "internalType": "uint256",
          "name": "_newMemberCount",
          "type": "uint256"
        }
      ],
      "name": "updateMemberCount",
      "outputs": [],
      "stateMutability": "nonpayable",
      "type": "function"
    }
  ],
  "bytecode": "0x608060405234801561001057600080fd5b50610ef7806100206000396000f3fe608060405234801561001057600080fd5b50600436106100885760003560e01c8063a4b0c0bb1161005b578063a4b0c0bb14610101578063abef281e14610114578063cdd781e214610127578063fef05b9a1461014a57600080fd5b80634093d7a11461008d5780636b52230b146100b65780637d497753146100db57806393b1415b146100f0575b600080fd5b6100a061009b3660046109c7565b61015d565b6040516100ad9190610a30565b60405180910390f35b6100c96100c4366004610aed565b610209565b6040516100ad96959493929190610b2a565b6100ee6100e9366004610b7e565b610367565b005b6001546040519081526020016100ad565b6100a061010f3660046109c7565b6105b9565b6100c9610122366004610aed565b6106b0565b61013a610135366004610aed565b61087a565b60405190151581526020016100ad565b6100ee610158366004610bf2565b6108a7565b6001818154811061016d57600080fd5b90600052602060002001600091509050805461018890610c37565b80601f01602080910402602001604051908101604052809291908181526020018280546101b490610c37565b80156102015780601f106101d657610100808354040283529160200191610201565b820191906000526020600020905b8154815290600101906020018083116101e457829003601f168201915b505050505081565b805160208183018101805160008252928201919093012091528054819061022f90610c37565b80601f016020809104026020016040519081016040528092919081815260200182805461025b90610c37565b80156102a85780601f1061027d576101008083540402835291602001916102a8565b820191906000526020600020905b81548152906001019060200180831161028b57829003601f168201915b5050505050908060010180546102bd90610c37565b80601f01602080910402602001604051908101604052809291908181526020018280546102e990610c37565b80156103365780601f1061030b57610100808354040283529160200191610336565b820191906000526020600020905b81548152906001019060200180831161031957829003601f168201915b50505050600283015460038401546004909401549293909290915060ff81169061010090046001600160a01b031686565b60008451116103bd5760405162461bcd60e51b815260206004820152601860248201527f47726f75702049442063616e6e6f7420626520656d707479000000000000000060448201526064015b60405180910390fd5b600083511161040e5760405162461bcd60e51b815260206004820152601b60248201527f44657374696e6174696f6e2063616e6e6f7420626520656d707479000000000060448201526064016103b4565b6000821161042e5760405162461bcd60e51b81526004016103b490610c71565b60008460405161043e9190610cb4565b9081526040519081900360200190206004015460ff16610495576001805480820182556000919091527fb10e2d527612073b26eecdfd717e6a320cf44b4afac2b0732d9fcbe2b7fa0cf6016104938582610d1f565b505b6040805160c0810182528581526020810185905280820184905260608101839052600160808201523360a082015290516000906104d3908790610cb4565b908152604051908190036020019020815181906104f09082610d1f565b50602082015160018201906105059082610d1f565b5060408281015160028301556060830151600383015560808301516004909201805460a0909401516001600160a01b031661010002610100600160a81b0319931515939093166001600160a81b031990941693909317919091179091555161056e908590610cb4565b60405180910390207fc4aa013e9c879adedc1701b7edd63ae8f88d7cc0f3eb7b637ff949b6d6888348848484336040516105ab9493929190610ddf565b60405180910390a250505050565b60015460609082106106035760405162461bcd60e51b8152602060048201526013602482015272496e646578206f7574206f6620626f756e647360681b60448201526064016103b4565b6001828154811061061657610616610e17565b90600052602060002001805461062b90610c37565b80601f016020809104026020016040519081016040528092919081815260200182805461065790610c37565b80156106a45780601f10610679576101008083540402835291602001916106a4565b820191906000526020600020905b81548152906001019060200180831161068757829003601f168201915b50505050509050919050565b606080600080600080600080886040516106ca9190610cb4565b90815260200160405180910390206040518060c00160405290816000820180546106f390610c37565b80601f016020809104026020016040519081016040528092919081815260200182805461071f90610c37565b801561076c5780601f106107415761010080835404028352916020019161076c565b820191906000526020600020905b81548152906001019060200180831161074f57829003601f168201915b5050505050815260200160018201805461078590610c37565b80601f01602080910402602001604051908101604052809291908181526020018280546107b190610c37565b80156107fe5780601f106107d3576101008083540402835291602001916107fe565b820191906000526020600020905b8154815290600101906020018083116107e157829003601f168201915b50505091835250506002820154602080830191909152600383015460408084019190915260049093015460ff811615156060808501919091526101009091046001600160a01b031660809384015284519185015193850151908501519285015160a090950151919d939c509a5090985091965090945092505050565b6000808260405161088b9190610cb4565b9081526040519081900360200190206004015460ff1692915050565b6000826040516108b79190610cb4565b9081526040519081900360200190206004015460ff166109105760405162461bcd60e51b815260206004820152601460248201527311dc9bdd5c08191bd95cc81b9bdd08195e1a5cdd60621b60448201526064016103b4565b600081116109305760405162461bcd60e51b81526004016103b490610c71565b806000836040516109419190610cb4565b90815260405190819003602001812060020191909155610962908390610cb4565b60405180910390207fd4001bf98e36f0aad1926130a302e19777d4a5bf5b74fd2ba3bdf9742f88f26760008460405161099b9190610cb4565b9081526020016040518091039020600101836040516109bb929190610e2d565b60405180910390a25050565b6000602082840312156109d957600080fd5b5035919050565b60005b838110156109fb5781810151838201526020016109e3565b50506000910152565b60008151808452610a1c8160208601602086016109e0565b601f01601f19169290920160200192915050565b602081526000610a436020830184610a04565b9392505050565b634e487b7160e01b600052604160045260246000fd5b600082601f830112610a7157600080fd5b813567ffffffffffffffff80821115610a8c57610a8c610a4a565b604051601f8301601f19908116603f01168101908282118183101715610ab457610ab4610a4a565b81604052838152866020858801011115610acd57600080fd5b836020870160208301376000602085830101528094505050505092915050565b600060208284031215610aff57600080fd5b813567ffffffffffffffff811115610b1657600080fd5b610b2284828501610a60565b949350505050565b60c081526000610b3d60c0830189610a04565b8281036020840152610b4f8189610a04565b60408401979097525050606081019390935290151560808301526001600160a01b031660a09091015292915050565b60008060008060808587031215610b9457600080fd5b843567ffffffffffffffff80821115610bac57600080fd5b610bb888838901610a60565b95506020870135915080821115610bce57600080fd5b50610bdb87828801610a60565b949794965050505060408301359260600135919050565b60008060408385031215610c0557600080fd5b823567ffffffffffffffff811115610c1c57600080fd5b610c2885828601610a60565b95602094909401359450505050565b600181811c90821680610c4b57607f821691505b602082108103610c6b57634e487b7160e01b600052602260045260246000fd5b50919050565b60208082526023908201527f4d656d62657220636f756e74206d75737420626520677265617465722074686160408201526206e20360ec1b606082015260800190565b60008251610cc68184602087016109e0565b9190910192915050565b601f821115610d1a57600081815260208120601f850160051c81016020861015610cf75750805b601f850160051c820191505b81811015610d1657828155600101610d03565b5050505b505050565b815167ffffffffffffffff811115610d3957610d39610a4a565b610d4d81610d478454610c37565b84610cd0565b602080601f831160018114610d825760008415610d6a5750858301515b600019600386901b1c1916600185901b178555610d16565b600085815260208120601f198616915b82811015610db157888601518255948401946001909101908401610d92565b5085821015610dcf5787850151600019600388901b60f8161c191681555b5050505050600190811b01905550565b608081526000610df26080830187610a04565b60208301959095525060408101929092526001600160a01b0316606090910152919050565b634e487b7160e01b600052603260045260246000fd5b604081526000808454610e3f81610c37565b8060408601526060600180841660008114610e615760018114610e7b57610eac565b60ff1985168884015283151560051b880183019550610eac565b8960005260208060002060005b86811015610ea35781548b8201870152908401908201610e88565b8a018501975050505b5050505050602092909201929092529291505056fea264697066735822122019c9b3f3e2c609054f5e172ce773e69e4b00883b4a1470223f6aad8e67db38ac64736f6c63430008140033",
  "linkReferences": {},
  "deployedLinkReferences": {}
}