{
  "_format": "hh-sol-artifact-1",
  "contractName": "ZKProofVerifier",
  "sourceName": "src/ZKProofVerifier.sol",
  "abi": [
    {
      "anonymous": false,
      "inputs": [
        {
          "indexed": true,
          "internalType": "address",
          "name": "user",
          "type": "address"
        },
        {
          "indexed": false,
          "internalType": "bytes32",
          "name": "proofHash",
          "type": "bytes32"
        },
        {
          "indexed": false,
          "internalType": "uint256",
          "name": "timestamp",
          "type": "uint256"
        }
      ],
      "name": "ProofRevoked",
      "type": "event"
    },
    {
      "anonymous": false,
      "inputs": [
        {
          "indexed": true,
          "internalType": "address",
          "name": "user",
          "type": "address"
        },
        {
          "indexed": false,
          "internalType": "bytes32",
          "name": "proofHash",
          "type": "bytes32"
        },
        {
          "indexed": false,
          "internalType": "string",
          "name": "lighthouseCID",
          "type": "string"
        },
        {
          "indexed": false,
          "internalType": "uint256",
          "name": "timestamp",
          "type": "uint256"
        },
        {
          "indexed": false,
          "internalType": "uint256",
          "name": "expiresAt",
          "type": "uint256"
        }
      ],
      "name": "ProofSubmitted",
      "type": "event"
    },
    {
      "anonymous": false,
      "inputs": [
        {
          "indexed": true,
          "internalType": "address",
          "name": "user",
          "type": "address"
        },
        {
          "indexed": false,
          "internalType": "bytes32",
          "name": "proofHash",
          "type": "bytes32"
        },
        {
          "indexed": false,
          "internalType": "uint256",
          "name": "timestamp",
          "type": "uint256"
        }
      ],
      "name": "ProofVerified",
      "type": "event"
    },
    {
      "inputs": [
        {
          "internalType": "address",
          "name": "_user",
          "type": "address"
        }
      ],
      "name": "getProof",
      "outputs": [
        {
          "components": [
            {
              "internalType": "bytes32",
              "name": "proofHash",
              "type": "bytes32"
            },
            {
              "internalType": "string",
              "name": "lighthouseCID",
              "type": "string"
            },
            {
              "internalType": "uint256",
              "name": "timestamp",
              "type": "uint256"
            },
            {
              "internalType": "bool",
              "name": "isVerified",
              "type": "bool"
            },
            {
              "internalType": "uint256",
              "name": "expiresAt",
              "type": "uint256"
            }
          ],
          "internalType": "struct ZKProofVerifier.ProofMetadata",
          "name": "",
          "type": "tuple"
        }
      ],
      "stateMutability": "view",
      "type": "function"
    },
    {
      "inputs": [
        {
          "internalType": "address",
          "name": "_user",
          "type": "address"
        }
      ],
      "name": "getProofCID",
      "outputs": [
        {
          "internalType": "string",
          "name": "",
          "type": "string"
        }
      ],
      "stateMutability": "view",
      "type": "function"
    },
    {
      "inputs": [
        {
          "internalType": "address",
          "name": "_user",
          "type": "address"
        }
      ],
      "name": "hasValidProof",
      "outputs": [
        {
          "internalType": "bool",
          "name": "",
          "type": "bool"
        }
      ],
      "stateMutability": "view",
      "type": "function"
    },
    {
      "inputs": [
        {
          "internalType": "address",
          "name": "_user",
          "type": "address"
        }
      ],
      "name": "isProofExpired",
      "outputs": [
        {
          "internalType": "bool",
          "name": "",
          "type": "bool"
        }
      ],
      "stateMutability": "view",
      "type": "function"
    },
    {
      "inputs": [],
      "name": "revokeProof",
      "outputs": [],
      "stateMutability": "nonpayable",
      "type": "function"
    },
    {
      "inputs": [
        {
          "internalType": "bytes32",
          "name": "_proofHash",
          "type": "bytes32"
        },
        {
          "internalType": "string",
          "name": "_lighthouseCID",
          "type": "string"
        },
        {
          "internalType": "uint256",
          "name": "_expiresAt",
          "type": "uint256"
        }
      ],
      "name": "submitProof",
      "outputs": [],
      "stateMutability": "nonpayable",
      "type": "function"
    },
    {
      "inputs": [
        {
          "internalType": "bytes32",
          "name": "_proofHash",
          "type": "bytes32"
        },
        {
          "internalType": "string",
          "name": "_lighthouseCID",
          "type": "string"
        },
        {
          "internalType": "uint256",
          "name": "_expiresAt",
          "type": "uint256"
        }
      ],
      "name": "updateProof",
      "outputs": [],
      "stateMutability": "nonpayable",
      "type": "function"
    },
    {
      "inputs": [
        {
          "internalType": "bytes32",
          "name": "",
          "type": "bytes32"
        }
      ],
      "name": "usedProofHashes",
      "outputs": [
        {
          "internalType": "bool",
          "name": "",
          "type": "bool"
        }
      ],
      "stateMutability": "view",
      "type": "function"
    },
    {
      "inputs": [
        {
          "internalType": "address",
          "name": "",
          "type": "address"
        }
      ],
      "name": "userProofs",
      "outputs": [
        {
          "internalType": "bytes32",
          "name": "proofHash",
          "type": "bytes32"
        },
        {
          "internalType": "string",
          "name": "lighthouseCID",
          "type": "string"
        },
        {
          "internalType": "uint256",
          "name": "timestamp",
          "type": "uint256"
        },
        {
          "internalType": "bool",
          "name": "isVerified",
          "type": "bool"
        },
        {
          "internalType": "uint256",
          "name": "expiresAt",
          "type": "uint256"
        }
      ],
      "stateMutability": "view",
      "type": "function"
    },
    {
      "inputs": [
        {
          "internalType": "address",
          "name": "_user",
          "type": "address"
        },
        {
          "internalType": "bytes32",
          "name": "_proofHash",
          "type": "bytes32"
        }
      ],
      "name": "verifyProofHash",
      "outputs": [
        {
          "internalType": "bool",
          "name": "",
          "type": "bool"
        }
      ],
      "stateMutability": "view",
      "type": "function"
    }
  ],
  "bytecode": "0x608060405234801561001057600080fd5b50610ffb806100206000396000f3fe608060405234801561001057600080fd5b506004361061009e5760003560e01c806359553d9e1161006657806359553d9e146101375780638f96eb9e1461013f578063cc15156b14610152578063d87318b214610172578063e6a675cb1461019557600080fd5b806301ae8b7b146100a357806322b824ab146100cb57806327bbd37d146100ef57806332af6c89146101025780633eea79d114610117575b600080fd5b6100b66100b1366004610c5e565b6101c4565b60405190151581526020015b60405180910390f35b6100de6100d9366004610c5e565b6102cd565b6040516100c2959493929190610cbf565b6100b66100fd366004610cf5565b61038a565b610115610110366004610d1f565b610496565b005b61012a610125366004610c5e565b6107a3565b6040516100c29190610da1565b6101156108c1565b61011561014d366004610d1f565b61099a565b610165610160366004610c5e565b610b3d565b6040516100c29190610df3565b6100b6610180366004610e06565b60016020526000908152604090205460ff1681565b6100b66101a3366004610c5e565b6001600160a01b031660009081526020819052604090206004015442101590565b6001600160a01b038116600090815260208181526040808320815160a08101909252805482526001810180548594840191906101ff90610e1f565b80601f016020809104026020016040519081016040528092919081815260200182805461022b90610e1f565b80156102785780601f1061024d57610100808354040283529160200191610278565b820191906000526020600020905b81548152906001019060200180831161025b57829003601f168201915b505050918352505060028201546020820152600382015460ff161515604082015260049091015460609182015281015190915080156102b75750805115155b80156102c65750428160800151115b9392505050565b600060208190529081526040902080546001820180549192916102ef90610e1f565b80601f016020809104026020016040519081016040528092919081815260200182805461031b90610e1f565b80156103685780601f1061033d57610100808354040283529160200191610368565b820191906000526020600020905b81548152906001019060200180831161034b57829003601f168201915b50505050600283015460038401546004909401549293909260ff909116915085565b6001600160a01b038216600090815260208181526040808320815160a08101909252805482526001810180548594840191906103c590610e1f565b80601f01602080910402602001604051908101604052809291908181526020018280546103f190610e1f565b801561043e5780601f106104135761010080835404028352916020019161043e565b820191906000526020600020905b81548152906001019060200180831161042157829003601f168201915b505050918352505060028201546020820152600382015460ff161515604082015260049091015460609091015280519091508314801561047f575080606001515b801561048e5750428160800151115b949350505050565b336000908152602081905260409020546104eb5760405162461bcd60e51b815260206004820152601160248201527027379032bc34b9ba34b73390383937b7b360791b60448201526064015b60405180910390fd5b8361052d5760405162461bcd60e51b8152602060048201526012602482015271092dcecc2d8d2c840e0e4dedecc40d0c2e6d60731b60448201526064016104e2565b816105685760405162461bcd60e51b815260206004820152600b60248201526a125b9d985b1a590810d25160aa1b60448201526064016104e2565b4281116105af5760405162461bcd60e51b8152602060048201526015602482015274141c9bdbd988185b1c9958591e48195e1c1a5c9959605a1b60448201526064016104e2565b60008481526001602052604090205460ff16156106085760405162461bcd60e51b8152602060048201526017602482015276141c9bdbd9881a185cda08185b1c9958591e481d5cd959604a1b60448201526064016104e2565b336000818152602081815260409182902054825190815242918101919091527f1ea942c72f5cf3d160f8de3f8412990045ae144a902751facdd56e9c8471013a910160405180910390a26040518060a0016040528085815260200184848080601f016020809104026020016040519081016040528093929190818152602001838380828437600092018290525093855250504260208085019190915260016040808601829052606090950187905233845283825293909220845181559184015191928301916106d8915082610ebe565b506040828101516002830155606083015160038301805491151560ff19928316179055608090930151600490920191909155600086815260016020819052908290208054909316179091555133907fc6b10449b0d6b62b2c1760d94f4c93f907bea5447fa5cc50af8363dbf6d76ae09061075b9087908790879042908890610f7e565b60405180910390a26040805185815242602082015233917f153b480344bae969ac0b89735efbb1b52d9806699539a49ce9780bdb6e903b8e910160405180910390a250505050565b6107da6040518060a00160405280600080191681526020016060815260200160008152602001600015158152602001600081525090565b6001600160a01b03821660009081526020818152604091829020825160a0810190935280548352600181018054919284019161081590610e1f565b80601f016020809104026020016040519081016040528092919081815260200182805461084190610e1f565b801561088e5780601f106108635761010080835404028352916020019161088e565b820191906000526020600020905b81548152906001019060200180831161087157829003601f168201915b505050918352505060028201546020820152600382015460ff161515604082015260049091015460609091015292915050565b336000908152602081905260409020546109125760405162461bcd60e51b81526020600482015260126024820152714e6f2070726f6f6620746f207265766f6b6560701b60448201526064016104e2565b336000818152602081815260409182902054825190815242918101919091527f1ea942c72f5cf3d160f8de3f8412990045ae144a902751facdd56e9c8471013a910160405180910390a23360009081526020819052604081208181559061097c6001830182610bec565b5060006002820181905560038201805460ff19169055600490910155565b836109dc5760405162461bcd60e51b8152602060048201526012602482015271092dcecc2d8d2c840e0e4dedecc40d0c2e6d60731b60448201526064016104e2565b81610a175760405162461bcd60e51b815260206004820152600b60248201526a125b9d985b1a590810d25160aa1b60448201526064016104e2565b428111610a5e5760405162461bcd60e51b8152602060048201526015602482015274141c9bdbd988185b1c9958591e48195e1c1a5c9959605a1b60448201526064016104e2565b60008481526001602052604090205460ff1615610ab75760405162461bcd60e51b8152602060048201526017602482015276141c9bdbd9881a185cda08185b1c9958591e481d5cd959604a1b60448201526064016104e2565b6040518060a0016040528085815260200184848080601f016020809104026020016040519081016040528093929190818152602001838380828437600092018290525093855250504260208085019190915260016040808601829052606090950187905233845283825293909220845181559184015191928301916106d8915082610ebe565b6001600160a01b0381166000908152602081905260409020600101805460609190610b6790610e1f565b80601f0160208091040260200160405190810160405280929190818152602001828054610b9390610e1f565b8015610be05780601f10610bb557610100808354040283529160200191610be0565b820191906000526020600020905b815481529060010190602001808311610bc357829003601f168201915b50505050509050919050565b508054610bf890610e1f565b6000825580601f10610c08575050565b601f016020900490600052602060002090810190610c269190610c29565b50565b5b80821115610c3e5760008155600101610c2a565b5090565b80356001600160a01b0381168114610c5957600080fd5b919050565b600060208284031215610c7057600080fd5b6102c682610c42565b6000815180845260005b81811015610c9f57602081850181015186830182015201610c83565b506000602082860101526020601f19601f83011685010191505092915050565b85815260a060208201526000610cd860a0830187610c79565b604083019590955250911515606083015260809091015292915050565b60008060408385031215610d0857600080fd5b610d1183610c42565b946020939093013593505050565b60008060008060608587031215610d3557600080fd5b84359350602085013567ffffffffffffffff80821115610d5457600080fd5b818701915087601f830112610d6857600080fd5b813581811115610d7757600080fd5b886020828501011115610d8957600080fd5b95986020929092019750949560400135945092505050565b60208152815160208201526000602083015160a06040840152610dc760c0840182610c79565b905060408401516060840152606084015115156080840152608084015160a08401528091505092915050565b6020815260006102c66020830184610c79565b600060208284031215610e1857600080fd5b5035919050565b600181811c90821680610e3357607f821691505b602082108103610e5357634e487b7160e01b600052602260045260246000fd5b50919050565b634e487b7160e01b600052604160045260246000fd5b601f821115610eb957600081815260208120601f850160051c81016020861015610e965750805b601f850160051c820191505b81811015610eb557828155600101610ea2565b5050505b505050565b815167ffffffffffffffff811115610ed857610ed8610e59565b610eec81610ee68454610e1f565b84610e6f565b602080601f831160018114610f215760008415610f095750858301515b600019600386901b1c1916600185901b178555610eb5565b600085815260208120601f198616915b82811015610f5057888601518255948401946001909101908401610f31565b5085821015610f6e5787850151600019600388901b60f8161c191681555b5050505050600190811b01905550565b85815260806020820152836080820152838560a0830137600060a08583010152600060a0601f19601f8701168301019050836040830152826060830152969550505050505056fea2646970667358221220e1613732cd81b5766bc1dd29b9ef3328c020e1e2b602137e222f0f4c15d9024f64736f6c63430008140033",
  "linkReferences": {},
  "deployedLinkReferences": {}
}