{
  "_format": "hh-sol-artifact-1",
  "contractName": "AgentStaking",
  "sourceName": "contracts/AgentStaking.sol",
  "abi": [
    {
      "inputs": [],
      "stateMutability": "nonpayable",
      "type": "constructor"
    },
    {
      "anonymous": false,
      "inputs": [
        {
          "indexed": true,
          "internalType": "address",
          "name": "user",
          "type": "address"
        },
        {
          "indexed": true,
          "internalType": "address",
          "name": "agent",
          "type": "address"
        },
        {
          "indexed": false,
          "internalType": "uint256",
          "name": "amount",
          "type": "uint256"
        }
      ],
      "name": "Approval",
      "type": "event"
    },
    {
      "anonymous": false,
      "inputs": [
        {
          "indexed": true,
          "internalType": "address",
          "name": "previousOwner",
          "type": "address"
        },
        {
          "indexed": true,
          "internalType": "address",
          "name": "newOwner",
          "type": "address"
        }
      ],
      "name": "OwnershipTransferred",
      "type": "event"
    },
    {
      "anonymous": false,
      "inputs": [
        {
          "indexed": false,
          "internalType": "bool",
          "name": "paused",
          "type": "bool"
        }
      ],
      "name": "Paused",
      "type": "event"
    },
    {
      "anonymous": false,
      "inputs": [
        {
          "indexed": true,
          "internalType": "address",
          "name": "user",
          "type": "address"
        },
        {
          "indexed": true,
          "internalType": "address",
          "name": "agent",
          "type": "address"
        },
        {
          "indexed": false,
          "internalType": "uint256",
          "name": "amount",
          "type": "uint256"
        },
        {
          "indexed": false,
          "internalType": "uint256",
          "name": "tripId",
          "type": "uint256"
        }
      ],
      "name": "StakedOnBehalf",
      "type": "event"
    },
    {
      "anonymous": false,
      "inputs": [
        {
          "indexed": true,
          "internalType": "uint256",
          "name": "tripId",
          "type": "uint256"
        },
        {
          "indexed": false,
          "internalType": "bool",
          "name": "success",
          "type": "bool"
        }
      ],
      "name": "TripCompleted",
      "type": "event"
    },
    {
      "anonymous": false,
      "inputs": [
        {
          "indexed": true,
          "internalType": "address",
          "name": "user",
          "type": "address"
        },
        {
          "indexed": false,
          "internalType": "uint256",
          "name": "amount",
          "type": "uint256"
        }
      ],
      "name": "Withdrawn",
      "type": "event"
    },
    {
      "inputs": [],
      "name": "MIN_STAKE",
      "outputs": [
        {
          "internalType": "uint256",
          "name": "",
          "type": "uint256"
        }
      ],
      "stateMutability": "view",
      "type": "function"
    },
    {
      "inputs": [
        {
          "internalType": "address",
          "name": "user",
          "type": "address"
        },
        {
          "internalType": "address",
          "name": "agent",
          "type": "address"
        }
      ],
      "name": "allowance",
      "outputs": [
        {
          "internalType": "uint256",
          "name": "",
          "type": "uint256"
        }
      ],
      "stateMutability": "view",
      "type": "function"
    },
    {
      "inputs": [
        {
          "internalType": "address",
          "name": "",
          "type": "address"
        },
        {
          "internalType": "address",
          "name": "",
          "type": "address"
        }
      ],
      "name": "allowances",
      "outputs": [
        {
          "internalType": "uint256",
          "name": "",
          "type": "uint256"
        }
      ],
      "stateMutability": "view",
      "type": "function"
    },
    {
      "inputs": [
        {
          "internalType": "address",
          "name": "agent",
          "type": "address"
        },
        {
          "internalType": "uint256",
          "name": "amount",
          "type": "uint256"
        }
      ],
      "name": "approve",
      "outputs": [],
      "stateMutability": "nonpayable",
      "type": "function"
    },
    {
      "inputs": [
        {
          "internalType": "address",
          "name": "",
          "type": "address"
        }
      ],
      "name": "balances",
      "outputs": [
        {
          "internalType": "uint256",
          "name": "",
          "type": "uint256"
        }
      ],
      "stateMutability": "view",
      "type": "function"
    },
    {
      "inputs": [
        {
          "internalType": "uint256",
          "name": "tripId",
          "type": "uint256"
        },
        {
          "internalType": "bool",
          "name": "success",
          "type": "bool"
        }
      ],
      "name": "completeTrip",
      "outputs": [],
      "stateMutability": "nonpayable",
      "type": "function"
    },
    {
      "inputs": [],
      "name": "emergencyWithdraw",
      "outputs": [],
      "stateMutability": "nonpayable",
      "type": "function"
    },
    {
      "inputs": [
        {
          "internalType": "address",
          "name": "user",
          "type": "address"
        }
      ],
      "name": "getBalance",
      "outputs": [
        {
          "internalType": "uint256",
          "name": "",
          "type": "uint256"
        }
      ],
      "stateMutability": "view",
      "type": "function"
    },
    {
      "inputs": [
        {
          "internalType": "uint256",
          "name": "tripId",
          "type": "uint256"
        }
      ],
      "name": "getTripParticipants",
      "outputs": [
        {
          "internalType": "address[]",
          "name": "",
          "type": "address[]"
        }
      ],
      "stateMutability": "view",
      "type": "function"
    },
    {
      "inputs": [
        {
          "internalType": "uint256",
          "name": "tripId",
          "type": "uint256"
        }
      ],
      "name": "getTripTotal",
      "outputs": [
        {
          "internalType": "uint256",
          "name": "",
          "type": "uint256"
        }
      ],
      "stateMutability": "view",
      "type": "function"
    },
    {
      "inputs": [],
      "name": "owner",
      "outputs": [
        {
          "internalType": "address",
          "name": "",
          "type": "address"
        }
      ],
      "stateMutability": "view",
      "type": "function"
    },
    {
      "inputs": [],
      "name": "paused",
      "outputs": [
        {
          "internalType": "bool",
          "name": "",
          "type": "bool"
        }
      ],
      "stateMutability": "view",
      "type": "function"
    },
    {
      "inputs": [
        {
          "internalType": "bool",
          "name": "_paused",
          "type": "bool"
        }
      ],
      "name": "setPaused",
      "outputs": [],
      "stateMutability": "nonpayable",
      "type": "function"
    },
    {
      "inputs": [
        {
          "internalType": "address",
          "name": "user",
          "type": "address"
        },
        {
          "internalType": "uint256",
          "name": "amount",
          "type": "uint256"
        },
        {
          "internalType": "uint256",
          "name": "tripId",
          "type": "uint256"
        }
      ],
      "name": "stakeOnBehalf",
      "outputs": [],
      "stateMutability": "payable",
      "type": "function"
    },
    {
      "inputs": [
        {
          "internalType": "address",
          "name": "newOwner",
          "type": "address"
        }
      ],
      "name": "transferOwnership",
      "outputs": [],
      "stateMutability": "nonpayable",
      "type": "function"
    },
    {
      "inputs": [
        {
          "internalType": "uint256",
          "name": "",
          "type": "uint256"
        }
      ],
      "name": "tripCompleted",
      "outputs": [
        {
          "internalType": "bool",
          "name": "",
          "type": "bool"
        }
      ],
      "stateMutability": "view",
      "type": "function"
    },
    {
      "inputs": [
        {
          "internalType": "uint256",
          "name": "",
          "type": "uint256"
        },
        {
          "internalType": "uint256",
          "name": "",
          "type": "uint256"
        }
      ],
      "name": "tripParticipants",
      "outputs": [
        {
          "internalType": "address",
          "name": "",
          "type": "address"
        }
      ],
      "stateMutability": "view",
      "type": "function"
    },
    {
      "inputs": [
        {
          "internalType": "uint256",
          "name": "",
          "type": "uint256"
        },
        {
          "internalType": "address",
          "name": "",
          "type": "address"
        }
      ],
      "name": "tripStakes",
      "outputs": [
        {
          "internalType": "uint256",
          "name": "",
          "type": "uint256"
        }
      ],
      "stateMutability": "view",
      "type": "function"
    },
    {
      "inputs": [
        {
          "internalType": "uint256",
          "name": "",
          "type": "uint256"
        }
      ],
      "name": "tripTotals",
      "outputs": [
        {
          "internalType": "uint256",
          "name": "",
          "type": "uint256"
        }
      ],
      "stateMutability": "view",
      "type": "function"
    },
    {
      "inputs": [
        {
          "internalType": "uint256",
          "name": "amount",
          "type": "uint256"
        }
      ],
      "name": "withdraw",
      "outputs": [],
      "stateMutability": "nonpayable",
      "type": "function"
    },
    {
      "stateMutability": "payable",
      "type": "receive"
    }
  ],
  "bytecode": "0x6080604052600160075534801561001557600080fd5b506000805460ff60a01b1933166001600160a81b0319909116179055611283806100406000396000f3fe6080604052600436106101225760003560e01c80637fd20d43116100a0578063cb1c2b5c11610064578063cb1c2b5c146103b3578063db2e21bc146103cf578063dd62ed3e146103e4578063f2fde38b1461042a578063f8b2cb4f1461044a57600080fd5b80637fd20d43146102c95780638da5cb5b146102f65780639df66a691461032e578063aaf760771461034e578063ca1b33b91461037b57600080fd5b80632e1a7d4d116100e75780632e1a7d4d146102035780633d48ca32146102235780634fe12fc51461024357806355b6ed5c146102705780635c975abb146102a857600080fd5b8062ed3b331461012e578063095ea7b31461014357806316c38b3c1461016357806327e235e31461018357806329501229146101c357600080fd5b3661012957005b600080fd5b61014161013c366004610fb3565b610480565b005b34801561014f57600080fd5b5061014161015e366004610fe6565b6107ab565b34801561016f57600080fd5b5061014161017e366004611020565b6108d1565b34801561018f57600080fd5b506101b061019e366004611042565b60016020526000908152604090205481565b6040519081526020015b60405180910390f35b3480156101cf57600080fd5b506101f36101de36600461105d565b60066020526000908152604090205460ff1681565b60405190151581526020016101ba565b34801561020f57600080fd5b5061014161021e36600461105d565b610953565b34801561022f57600080fd5b5061014161023e366004611076565b610b34565b34801561024f57600080fd5b506101b061025e36600461105d565b60009081526004602052604090205490565b34801561027c57600080fd5b506101b061028b3660046110a2565b600260209081526000928352604080842090915290825290205481565b3480156102b457600080fd5b506000546101f390600160a01b900460ff1681565b3480156102d557600080fd5b506102e96102e436600461105d565b610d7e565b6040516101ba91906110cc565b34801561030257600080fd5b50600054610316906001600160a01b031681565b6040516001600160a01b0390911681526020016101ba565b34801561033a57600080fd5b50610316610349366004611119565b610dea565b34801561035a57600080fd5b506101b061036936600461105d565b60046020526000908152604090205481565b34801561038757600080fd5b506101b061039636600461113b565b600360209081526000928352604080842090915290825290205481565b3480156103bf57600080fd5b506101b0670de0b6b3a764000081565b3480156103db57600080fd5b50610141610e22565b3480156103f057600080fd5b506101b06103ff3660046110a2565b6001600160a01b03918216600090815260026020908152604080832093909416825291909152205490565b34801561043657600080fd5b50610141610445366004611042565b610ed3565b34801561045657600080fd5b506101b0610465366004611042565b6001600160a01b031660009081526001602052604090205490565b600054600160a01b900460ff16156104b35760405162461bcd60e51b81526004016104aa9061115e565b60405180910390fd5b6007546001146104d55760405162461bcd60e51b81526004016104aa90611187565b60026007556001600160a01b0383166105275760405162461bcd60e51b8152602060048201526014602482015273496e76616c69642075736572206164647265737360601b60448201526064016104aa565b670de0b6b3a76400008210156105765760405162461bcd60e51b8152602060048201526014602482015273416d6f756e742062656c6f77206d696e696d756d60601b60448201526064016104aa565b6001600160a01b03831660009081526002602090815260408083203384529091529020548211156105e25760405162461bcd60e51b8152602060048201526016602482015275496e73756666696369656e7420616c6c6f77616e636560501b60448201526064016104aa565b60008181526006602052604090205460ff161561063a5760405162461bcd60e51b8152602060048201526016602482015275151c9a5c08185b1c9958591e4818dbdb5c1b195d195960521b60448201526064016104aa565b6001600160a01b03831660009081526002602090815260408083203384529091528120805484929061066d9084906111ca565b90915550506001600160a01b0383166000908152600160205260408120805484929061069a9084906111e1565b909155505060008181526003602090815260408083206001600160a01b0387168452909152812080548492906106d19084906111e1565b9091555050600081815260046020526040812080548492906106f49084906111e1565b909155505060008181526003602090815260408083206001600160a01b038716845290915290205482141561075b5760008181526005602090815260408220805460018101825590835291200180546001600160a01b0319166001600160a01b0385161790555b604080518381526020810183905233916001600160a01b038616917f7944565fe0c17fe787f657c435ae8aafbf6ca80cead06084219da57ef3df20a3910160405180910390a35050600160075550565b600054600160a01b900460ff16156107d55760405162461bcd60e51b81526004016104aa9061115e565b6001600160a01b0382166108235760405162461bcd60e51b8152602060048201526015602482015274496e76616c6964206167656e74206164647265737360581b60448201526064016104aa565b6001600160a01b0382163314156108725760405162461bcd60e51b815260206004820152601360248201527221b0b73737ba1030b8383937bb329039b2b63360691b60448201526064016104aa565b3360008181526002602090815260408083206001600160a01b03871680855290835292819020859055518481529192917f8c5be1e5ebec7d5bd14f71427d1e84f3dd0314c0f7b2291e5b200ac8c7c3b925910160405180910390a35050565b6000546001600160a01b031633146108fb5760405162461bcd60e51b81526004016104aa906111f9565b60008054821515600160a01b0260ff60a01b199091161790556040517f0e2fb031ee032dc02d8011dc50b816eb450cf856abd8261680dac74f72165bd29061094890831515815260200190565b60405180910390a150565b600054600160a01b900460ff161561097d5760405162461bcd60e51b81526004016104aa9061115e565b60075460011461099f5760405162461bcd60e51b81526004016104aa90611187565b6002600755806109f15760405162461bcd60e51b815260206004820152601760248201527f416d6f756e74206d75737420626520706f73697469766500000000000000000060448201526064016104aa565b33600090815260016020526040902054811115610a475760405162461bcd60e51b8152602060048201526014602482015273496e73756666696369656e742062616c616e636560601b60448201526064016104aa565b3360009081526001602052604081208054839290610a669084906111ca565b9091555050604051600090339083908381818185875af1925050503d8060008114610aad576040519150601f19603f3d011682016040523d82523d6000602084013e610ab2565b606091505b5050905080610af55760405162461bcd60e51b815260206004820152600f60248201526e151c985b9cd9995c8819985a5b1959608a1b60448201526064016104aa565b60405182815233907f7084f5476618d8e60b11ef0d7d3f06914655adb8793e28ff7f018d4c76d505d5906020015b60405180910390a250506001600755565b6000546001600160a01b03163314610b5e5760405162461bcd60e51b81526004016104aa906111f9565b600754600114610b805760405162461bcd60e51b81526004016104aa90611187565b600260075560008281526006602052604090205460ff1615610bd85760405162461bcd60e51b8152602060048201526011602482015270105b1c9958591e4818dbdb5c1b195d1959607a1b60448201526064016104aa565b600082815260046020526040902054610c285760405162461bcd60e51b815260206004820152601260248201527104e6f207374616b657320666f7220747269760741b60448201526064016104aa565b6000828152600660205260409020805460ff1916600117905580610d4a57600082815260056020908152604080832080548251818502810185019093528083529192909190830182828015610ca657602002820191906000526020600020905b81546001600160a01b03168152600190910190602001808311610c88575b5050505050905060005b8151811015610d47576000828281518110610ccd57610ccd61121c565b60209081029190910181015160008781526003835260408082206001600160a01b038416835290935291909120549091508015610d32576001600160a01b03821660009081526001602052604081208054839290610d2c9084906111ca565b90915550505b50508080610d3f90611232565b915050610cb0565b50505b817fdd8d9da2f68f8699dbbcfaaf4a7d7983eb35181cf6822540ba05092146a35a4482604051610b23911515815260200190565b600081815260056020908152604091829020805483518184028101840190945280845260609392830182828015610dde57602002820191906000526020600020905b81546001600160a01b03168152600190910190602001808311610dc0575b50505050509050919050565b60056020528160005260406000208181548110610e0657600080fd5b6000918252602090912001546001600160a01b03169150829050565b6000546001600160a01b03163314610e4c5760405162461bcd60e51b81526004016104aa906111f9565b600054600160a01b900460ff16610e965760405162461bcd60e51b815260206004820152600e60248201526d135d5cdd081899481c185d5cd95960921b60448201526064016104aa565b600080546040516001600160a01b03909116914780156108fc02929091818181858888f19350505050158015610ed0573d6000803e3d6000fd5b50565b6000546001600160a01b03163314610efd5760405162461bcd60e51b81526004016104aa906111f9565b6001600160a01b038116610f475760405162461bcd60e51b815260206004820152601160248201527024b73b30b634b2103732bb9037bbb732b960791b60448201526064016104aa565b600080546001600160a01b038381166001600160a01b0319831681178455604051919092169283917f8be0079c531659141344cd1fd0a4f28419497f9722a3daafe3b4186f6b6457e09190a35050565b80356001600160a01b0381168114610fae57600080fd5b919050565b600080600060608486031215610fc857600080fd5b610fd184610f97565b95602085013595506040909401359392505050565b60008060408385031215610ff957600080fd5b61100283610f97565b946020939093013593505050565b80358015158114610fae57600080fd5b60006020828403121561103257600080fd5b61103b82611010565b9392505050565b60006020828403121561105457600080fd5b61103b82610f97565b60006020828403121561106f57600080fd5b5035919050565b6000806040838503121561108957600080fd5b8235915061109960208401611010565b90509250929050565b600080604083850312156110b557600080fd5b6110be83610f97565b915061109960208401610f97565b6020808252825182820181905260009190848201906040850190845b8181101561110d5783516001600160a01b0316835292840192918401916001016110e8565b50909695505050505050565b6000806040838503121561112c57600080fd5b50508035926020909101359150565b6000806040838503121561114e57600080fd5b8235915061109960208401610f97565b6020808252600f908201526e10dbdb9d1c9858dd081c185d5cd959608a1b604082015260600190565b6020808252601390820152721499595b9d1c985b98de4819195d1958dd1959606a1b604082015260600190565b634e487b7160e01b600052601160045260246000fd5b6000828210156111dc576111dc6111b4565b500390565b600082198211156111f4576111f46111b4565b500190565b6020808252600990820152682737ba1037bbb732b960b91b604082015260600190565b634e487b7160e01b600052603260045260246000fd5b6000600019821415611246576112466111b4565b506001019056fea2646970667358221220920dce7aef0e44c1ab62e4e872a6a5d4df9bcc45dd7f0623ca4bc5ca01bb40df64736f6c63430008090033",
  "linkReferences": {},
  "deployedLinkReferences": {}
}