{
  "_format": "hh-sol-artifact-1",
  "contractName": "AgentStaking",
  "sourceName": "contracts/AgentStaking.sol",
  "abi": [
    {
      "inputs": [],
      "stateMutability": "nonpayable",
      "type": "constructor"
    },
    {
      "anonymous": false,
      "inputs": [
        {
          "indexed": true,
          "internalType": "address",
          "name": "user",
          "type": "address"
        },
        {
          "indexed": true,
          "internalType": "address",
          "name": "agent",
          "type": "address"
        },
        {
          "indexed": false,
          "internalType": "uint256",
          "name": "amount",
          "type": "uint256"
        }
      ],
      "name": "Approval",
      "type": "event"
    },
    {
      "anonymous": false,
      "inputs": [
        {
          "indexed": true,
          "internalType": "address",
          "name": "previousOwner",
          "type": "address"
        },
        {
          "indexed": true,
          "internalType": "address",
          "name": "newOwner",
          "type": "address"
        }
      ],
      "name": "OwnershipTransferred",
      "type": "event"
    },
    {
      "anonymous": false,
      "inputs": [
        {
          "indexed": false,
          "internalType": "bool",
          "name": "paused",
          "type": "bool"
        }
      ],
      "name": "Paused",
      "type": "event"
    },
    {
      "anonymous": false,
      "inputs": [
        {
          "indexed": true,
          "internalType": "address",
          "name": "user",
          "type": "address"
        },
        {
          "indexed": true,
          "internalType": "address",
          "name": "agent",
          "type": "address"
        },
        {
          "indexed": false,
          "internalType": "uint256",
          "name": "amount",
          "type": "uint256"
        },
        {
          "indexed": false,
          "internalType": "uint256",
          "name": "tripId",
          "type": "uint256"
        }
      ],
      "name": "StakedOnBehalf",
      "type": "event"
    },
    {
      "anonymous": false,
      "inputs": [
        {
          "indexed": true,
          "internalType": "uint256",
          "name": "tripId",
          "type": "uint256"
        },
        {
          "indexed": false,
          "internalType": "bool",
          "name": "success",
          "type": "bool"
        }
      ],
      "name": "TripCompleted",
      "type": "event"
    },
    {
      "anonymous": false,
      "inputs": [
        {
          "indexed": true,
          "internalType": "address",
          "name": "user",
          "type": "address"
        },
        {
          "indexed": false,
          "internalType": "uint256",
          "name": "amount",
          "type": "uint256"
        }
      ],
      "name": "Withdrawn",
      "type": "event"
    },
    {
      "inputs": [],
      "name": "MIN_STAKE",
      "outputs": [
        {
          "internalType": "uint256",
          "name": "",
          "type": "uint256"
        }
      ],
      "stateMutability": "view",
      "type": "function"
    },
    {
      "inputs": [
        {
          "internalType": "address",
          "name": "user",
          "type": "address"
        },
        {
          "internalType": "address",
          "name": "agent",
          "type": "address"
        }
      ],
      "name": "allowance",
      "outputs": [
        {
          "internalType": "uint256",
          "name": "",
          "type": "uint256"
        }
      ],
      "stateMutability": "view",
      "type": "function"
    },
    {
      "inputs": [
        {
          "internalType": "address",
          "name": "",
          "type": "address"
        },
        {
          "internalType": "address",
          "name": "",
          "type": "address"
        }
      ],
      "name": "allowances",
      "outputs": [
        {
          "internalType": "uint256",
          "name": "",
          "type": "uint256"
        }
      ],
      "stateMutability": "view",
      "type": "function"
    },
    {
      "inputs": [
        {
          "internalType": "address",
          "name": "agent",
          "type": "address"
        },
        {
          "internalType": "uint256",
          "name": "amount",
          "type": "uint256"
        }
      ],
      "name": "approve",
      "outputs": [],
      "stateMutability": "nonpayable",
      "type": "function"
    },
    {
      "inputs": [
        {
          "internalType": "address",
          "name": "",
          "type": "address"
        }
      ],
      "name": "balances",
      "outputs": [
        {
          "internalType": "uint256",
          "name": "",
          "type": "uint256"
        }
      ],
      "stateMutability": "view",
      "type": "function"
    },
    {
      "inputs": [
        {
          "internalType": "uint256",
          "name": "tripId",
          "type": "uint256"
        },
        {
          "internalType": "bool",
          "name": "success",
          "type": "bool"
        }
      ],
      "name": "completeTrip",
      "outputs": [],
      "stateMutability": "nonpayable",
      "type": "function"
    },
    {
      "inputs": [],
      "name": "emergencyWithdraw",
      "outputs": [],
      "stateMutability": "nonpayable",
      "type": "function"
    },
    {
      "inputs": [
        {
          "internalType": "address",
          "name": "user",
          "type": "address"
        }
      ],
      "name": "getBalance",
      "outputs": [
        {
          "internalType": "uint256",
          "name": "",
          "type": "uint256"
        }
      ],
      "stateMutability": "view",
      "type": "function"
    },
    {
      "inputs": [
        {
          "internalType": "uint256",
          "name": "tripId",
          "type": "uint256"
        }
      ],
      "name": "getTripParticipants",
      "outputs": [
        {
          "internalType": "address[]",
          "name": "",
          "type": "address[]"
        }
      ],
      "stateMutability": "view",
      "type": "function"
    },
    {
      "inputs": [
        {
          "internalType": "uint256",
          "name": "tripId",
          "type": "uint256"
        }
      ],
      "name": "getTripTotal",
      "outputs": [
        {
          "internalType": "uint256",
          "name": "",
          "type": "uint256"
        }
      ],
      "stateMutability": "view",
      "type": "function"
    },
    {
      "inputs": [],
      "name": "owner",
      "outputs": [
        {
          "internalType": "address",
          "name": "",
          "type": "address"
        }
      ],
      "stateMutability": "view",
      "type": "function"
    },
    {
      "inputs": [
        {
          "internalType": "address",
          "name": "user",
          "type": "address"
        },
        {
          "internalType": "uint256",
          "name": "amount",
          "type": "uint256"
        }
      ],
      "name": "ownerWithdrawFor",
      "outputs": [],
      "stateMutability": "nonpayable",
      "type": "function"
    },
    {
      "inputs": [],
      "name": "paused",
      "outputs": [
        {
          "internalType": "bool",
          "name": "",
          "type": "bool"
        }
      ],
      "stateMutability": "view",
      "type": "function"
    },
    {
      "inputs": [
        {
          "internalType": "bool",
          "name": "_paused",
          "type": "bool"
        }
      ],
      "name": "setPaused",
      "outputs": [],
      "stateMutability": "nonpayable",
      "type": "function"
    },
    {
      "inputs": [
        {
          "internalType": "address",
          "name": "user",
          "type": "address"
        },
        {
          "internalType": "uint256",
          "name": "amount",
          "type": "uint256"
        },
        {
          "internalType": "uint256",
          "name": "tripId",
          "type": "uint256"
        }
      ],
      "name": "stakeOnBehalf",
      "outputs": [],
      "stateMutability": "payable",
      "type": "function"
    },
    {
      "inputs": [
        {
          "internalType": "address",
          "name": "newOwner",
          "type": "address"
        }
      ],
      "name": "transferOwnership",
      "outputs": [],
      "stateMutability": "nonpayable",
      "type": "function"
    },
    {
      "inputs": [
        {
          "internalType": "uint256",
          "name": "",
          "type": "uint256"
        }
      ],
      "name": "tripCompleted",
      "outputs": [
        {
          "internalType": "bool",
          "name": "",
          "type": "bool"
        }
      ],
      "stateMutability": "view",
      "type": "function"
    },
    {
      "inputs": [
        {
          "internalType": "uint256",
          "name": "",
          "type": "uint256"
        },
        {
          "internalType": "uint256",
          "name": "",
          "type": "uint256"
        }
      ],
      "name": "tripParticipants",
      "outputs": [
        {
          "internalType": "address",
          "name": "",
          "type": "address"
        }
      ],
      "stateMutability": "view",
      "type": "function"
    },
    {
      "inputs": [
        {
          "internalType": "uint256",
          "name": "",
          "type": "uint256"
        },
        {
          "internalType": "address",
          "name": "",
          "type": "address"
        }
      ],
      "name": "tripStakes",
      "outputs": [
        {
          "internalType": "uint256",
          "name": "",
          "type": "uint256"
        }
      ],
      "stateMutability": "view",
      "type": "function"
    },
    {
      "inputs": [
        {
          "internalType": "uint256",
          "name": "",
          "type": "uint256"
        }
      ],
      "name": "tripTotals",
      "outputs": [
        {
          "internalType": "uint256",
          "name": "",
          "type": "uint256"
        }
      ],
      "stateMutability": "view",
      "type": "function"
    },
    {
      "inputs": [
        {
          "internalType": "uint256",
          "name": "amount",
          "type": "uint256"
        }
      ],
      "name": "withdraw",
      "outputs": [],
      "stateMutability": "nonpayable",
      "type": "function"
    },
    {
      "stateMutability": "payable",
      "type": "receive"
    }
  ],
  "bytecode": "0x6080604052600160075534801561001557600080fd5b506000805460ff60a01b1933166001600160a81b03199091161790556114fa806100406000396000f3fe60806040526004361061012d5760003560e01c8063648a226d116100ab578063ca1b33b91161006f578063ca1b33b9146103a6578063cb1c2b5c146103de578063db2e21bc146103fa578063dd62ed3e1461040f578063f2fde38b14610455578063f8b2cb4f1461047557600080fd5b8063648a226d146102d45780637fd20d43146102f45780638da5cb5b146103215780639df66a6914610359578063aaf760771461037957600080fd5b80632e1a7d4d116100f25780632e1a7d4d1461020e5780633d48ca321461022e5780634fe12fc51461024e57806355b6ed5c1461027b5780635c975abb146102b357600080fd5b8062ed3b3314610139578063095ea7b31461014e57806316c38b3c1461016e57806327e235e31461018e57806329501229146101ce57600080fd5b3661013457005b600080fd5b61014c61014736600461122a565b6104ab565b005b34801561015a57600080fd5b5061014c61016936600461125d565b6107d6565b34801561017a57600080fd5b5061014c610189366004611297565b6108fc565b34801561019a57600080fd5b506101bb6101a93660046112b9565b60016020526000908152604090205481565b6040519081526020015b60405180910390f35b3480156101da57600080fd5b506101fe6101e93660046112d4565b60066020526000908152604090205460ff1681565b60405190151581526020016101c5565b34801561021a57600080fd5b5061014c6102293660046112d4565b61097e565b34801561023a57600080fd5b5061014c6102493660046112ed565b610b2e565b34801561025a57600080fd5b506101bb6102693660046112d4565b60009081526004602052604090205490565b34801561028757600080fd5b506101bb610296366004611319565b600260209081526000928352604080842090915290825290205481565b3480156102bf57600080fd5b506000546101fe90600160a01b900460ff1681565b3480156102e057600080fd5b5061014c6102ef36600461125d565b610d78565b34801561030057600080fd5b5061031461030f3660046112d4565b610f8c565b6040516101c59190611343565b34801561032d57600080fd5b50600054610341906001600160a01b031681565b6040516001600160a01b0390911681526020016101c5565b34801561036557600080fd5b50610341610374366004611390565b610ff8565b34801561038557600080fd5b506101bb6103943660046112d4565b60046020526000908152604090205481565b3480156103b257600080fd5b506101bb6103c13660046113b2565b600360209081526000928352604080842090915290825290205481565b3480156103ea57600080fd5b506101bb670de0b6b3a764000081565b34801561040657600080fd5b5061014c611030565b34801561041b57600080fd5b506101bb61042a366004611319565b6001600160a01b03918216600090815260026020908152604080832093909416825291909152205490565b34801561046157600080fd5b5061014c6104703660046112b9565b61114a565b34801561048157600080fd5b506101bb6104903660046112b9565b6001600160a01b031660009081526001602052604090205490565b600054600160a01b900460ff16156104de5760405162461bcd60e51b81526004016104d5906113d5565b60405180910390fd5b6007546001146105005760405162461bcd60e51b81526004016104d5906113fe565b60026007556001600160a01b0383166105525760405162461bcd60e51b8152602060048201526014602482015273496e76616c69642075736572206164647265737360601b60448201526064016104d5565b670de0b6b3a76400008210156105a15760405162461bcd60e51b8152602060048201526014602482015273416d6f756e742062656c6f77206d696e696d756d60601b60448201526064016104d5565b6001600160a01b038316600090815260026020908152604080832033845290915290205482111561060d5760405162461bcd60e51b8152602060048201526016602482015275496e73756666696369656e7420616c6c6f77616e636560501b60448201526064016104d5565b60008181526006602052604090205460ff16156106655760405162461bcd60e51b8152602060048201526016602482015275151c9a5c08185b1c9958591e4818dbdb5c1b195d195960521b60448201526064016104d5565b6001600160a01b038316600090815260026020908152604080832033845290915281208054849290610698908490611441565b90915550506001600160a01b038316600090815260016020526040812080548492906106c5908490611458565b909155505060008181526003602090815260408083206001600160a01b0387168452909152812080548492906106fc908490611458565b90915550506000818152600460205260408120805484929061071f908490611458565b909155505060008181526003602090815260408083206001600160a01b03871684529091529020548214156107865760008181526005602090815260408220805460018101825590835291200180546001600160a01b0319166001600160a01b0385161790555b604080518381526020810183905233916001600160a01b038616917f7944565fe0c17fe787f657c435ae8aafbf6ca80cead06084219da57ef3df20a3910160405180910390a35050600160075550565b600054600160a01b900460ff16156108005760405162461bcd60e51b81526004016104d5906113d5565b6001600160a01b03821661084e5760405162461bcd60e51b8152602060048201526015602482015274496e76616c6964206167656e74206164647265737360581b60448201526064016104d5565b6001600160a01b03821633141561089d5760405162461bcd60e51b815260206004820152601360248201527221b0b73737ba1030b8383937bb329039b2b63360691b60448201526064016104d5565b3360008181526002602090815260408083206001600160a01b03871680855290835292819020859055518481529192917f8c5be1e5ebec7d5bd14f71427d1e84f3dd0314c0f7b2291e5b200ac8c7c3b925910160405180910390a35050565b6000546001600160a01b031633146109265760405162461bcd60e51b81526004016104d590611470565b60008054821515600160a01b0260ff60a01b199091161790556040517f0e2fb031ee032dc02d8011dc50b816eb450cf856abd8261680dac74f72165bd29061097390831515815260200190565b60405180910390a150565b600054600160a01b900460ff16156109a85760405162461bcd60e51b81526004016104d5906113d5565b6007546001146109ca5760405162461bcd60e51b81526004016104d5906113fe565b600260075580610a165760405162461bcd60e51b8152602060048201526017602482015276416d6f756e74206d75737420626520706f73697469766560481b60448201526064016104d5565b33600090815260016020526040902054811115610a6c5760405162461bcd60e51b8152602060048201526014602482015273496e73756666696369656e742062616c616e636560601b60448201526064016104d5565b3360009081526001602052604081208054839290610a8b908490611441565b9091555050604051600090339083156108fc0290849084818181858888f19350505050905080610aef5760405162461bcd60e51b815260206004820152600f60248201526e151c985b9cd9995c8819985a5b1959608a1b60448201526064016104d5565b60405182815233907f7084f5476618d8e60b11ef0d7d3f06914655adb8793e28ff7f018d4c76d505d5906020015b60405180910390a250506001600755565b6000546001600160a01b03163314610b585760405162461bcd60e51b81526004016104d590611470565b600754600114610b7a5760405162461bcd60e51b81526004016104d5906113fe565b600260075560008281526006602052604090205460ff1615610bd25760405162461bcd60e51b8152602060048201526011602482015270105b1c9958591e4818dbdb5c1b195d1959607a1b60448201526064016104d5565b600082815260046020526040902054610c225760405162461bcd60e51b815260206004820152601260248201527104e6f207374616b657320666f7220747269760741b60448201526064016104d5565b6000828152600660205260409020805460ff1916600117905580610d4457600082815260056020908152604080832080548251818502810185019093528083529192909190830182828015610ca057602002820191906000526020600020905b81546001600160a01b03168152600190910190602001808311610c82575b5050505050905060005b8151811015610d41576000828281518110610cc757610cc7611493565b60209081029190910181015160008781526003835260408082206001600160a01b038416835290935291909120549091508015610d2c576001600160a01b03821660009081526001602052604081208054839290610d26908490611441565b90915550505b50508080610d39906114a9565b915050610caa565b50505b817fdd8d9da2f68f8699dbbcfaaf4a7d7983eb35181cf6822540ba05092146a35a4482604051610b1d911515815260200190565b6000546001600160a01b03163314610da25760405162461bcd60e51b81526004016104d590611470565b600754600114610dc45760405162461bcd60e51b81526004016104d5906113fe565b600260075580610e105760405162461bcd60e51b8152602060048201526017602482015276416d6f756e74206d75737420626520706f73697469766560481b60448201526064016104d5565b6001600160a01b038216600090815260016020526040902054811115610e6f5760405162461bcd60e51b8152602060048201526014602482015273496e73756666696369656e742062616c616e636560601b60448201526064016104d5565b6001600160a01b03821660009081526001602052604081208054839290610e97908490611441565b9091555050600080546040516001600160a01b039091169083908381818185875af1925050503d8060008114610ee9576040519150601f19603f3d011682016040523d82523d6000602084013e610eee565b606091505b5050905080610f3f5760405162461bcd60e51b815260206004820152601860248201527f5472616e7366657220746f206f776e6572206661696c6564000000000000000060448201526064016104d5565b826001600160a01b03167f7084f5476618d8e60b11ef0d7d3f06914655adb8793e28ff7f018d4c76d505d583604051610f7a91815260200190565b60405180910390a25050600160075550565b600081815260056020908152604091829020805483518184028101840190945280845260609392830182828015610fec57602002820191906000526020600020905b81546001600160a01b03168152600190910190602001808311610fce575b50505050509050919050565b6005602052816000526040600020818154811061101457600080fd5b6000918252602090912001546001600160a01b03169150829050565b6000546001600160a01b0316331461105a5760405162461bcd60e51b81526004016104d590611470565b600054600160a01b900460ff166110a45760405162461bcd60e51b815260206004820152600e60248201526d135d5cdd081899481c185d5cd95960921b60448201526064016104d5565b600080546040516001600160a01b039091169047908381818185875af1925050503d80600081146110f1576040519150601f19603f3d011682016040523d82523d6000602084013e6110f6565b606091505b50509050806111475760405162461bcd60e51b815260206004820152601960248201527f456d657267656e6379207472616e73666572206661696c65640000000000000060448201526064016104d5565b50565b6000546001600160a01b031633146111745760405162461bcd60e51b81526004016104d590611470565b6001600160a01b0381166111be5760405162461bcd60e51b815260206004820152601160248201527024b73b30b634b2103732bb9037bbb732b960791b60448201526064016104d5565b600080546001600160a01b038381166001600160a01b0319831681178455604051919092169283917f8be0079c531659141344cd1fd0a4f28419497f9722a3daafe3b4186f6b6457e09190a35050565b80356001600160a01b038116811461122557600080fd5b919050565b60008060006060848603121561123f57600080fd5b6112488461120e565b95602085013595506040909401359392505050565b6000806040838503121561127057600080fd5b6112798361120e565b946020939093013593505050565b8035801515811461122557600080fd5b6000602082840312156112a957600080fd5b6112b282611287565b9392505050565b6000602082840312156112cb57600080fd5b6112b28261120e565b6000602082840312156112e657600080fd5b5035919050565b6000806040838503121561130057600080fd5b8235915061131060208401611287565b90509250929050565b6000806040838503121561132c57600080fd5b6113358361120e565b91506113106020840161120e565b6020808252825182820181905260009190848201906040850190845b818110156113845783516001600160a01b03168352928401929184019160010161135f565b50909695505050505050565b600080604083850312156113a357600080fd5b50508035926020909101359150565b600080604083850312156113c557600080fd5b823591506113106020840161120e565b6020808252600f908201526e10dbdb9d1c9858dd081c185d5cd959608a1b604082015260600190565b6020808252601390820152721499595b9d1c985b98de4819195d1958dd1959606a1b604082015260600190565b634e487b7160e01b600052601160045260246000fd5b6000828210156114535761145361142b565b500390565b6000821982111561146b5761146b61142b565b500190565b6020808252600990820152682737ba1037bbb732b960b91b604082015260600190565b634e487b7160e01b600052603260045260246000fd5b60006000198214156114bd576114bd61142b565b506001019056fea26469706673582212200d4d8adab0e88b3b213551ed2ab3e8a1a5d7381d681572fbc71fc5eb5deda02464736f6c63430008090033",
  "linkReferences": {},
  "deployedLinkReferences": {}
}